:020000040800F2
:1000000030B50020290300088D3F0008A9370008FB
:10001000893F000807080008697300080000000015
:10002000000000000000000000000000690200085D
:10003000F311000800000000C5020008616A000812
:100040004303000843030008430300084303000878
:100050004303000843030008F511000843030008A8
:1000600043030008FF1100080912000843030008B9
:100070004303000843030008430300084303000848
:100080004303000843030008430300084303000838
:100090000D0800084303000843030008131200087A
:1000A0004303000843030008430300084303000818
:1000B0004303000843030008430300084303000808
:1000C00043030008430300084303000843030008F8
:1000D0004303000843030008430300083972000883
:1000E00043030008430300084303000843030008D8
:1000F00043030008430300084303000843030008C8
:1001000043030008430300084303000843030008B7
:1001100043030008430300084303000843030008A7
:1001200043030008430300087D0800084303000858
:100130004303000843030008430300084303000887
:100140001D08000843030008430300084303000898
:100150004303000843030008430300084303000867
:100160004303000843030008430300084303000857
:100170004303000843030008430300080000000095
:10018000430300084303000800F002F800F05CF8A5
:100190000AA090E8000C82448344AAF10107DA45E2
:1001A00001D100F051F8AFF2090EBAE80F0013F0D8
:1001B000010F18BFFB1A43F001031847B0C200003B
:1001C000D0C200000A444FF0000C10F8013B13F0BD
:1001D000070408BF10F8014B1D1108BF10F8015BA0
:1001E000641E05D010F8016B641E01F8016BF9D193
:1001F00013F0080F1EBF10F8014BAD1C0C1B09D1EA
:100200006D1E58BF01F801CBFAD505E014F8016B5B
:1002100001F8016B6D1EF9D59142D6D370470000ED
:100220000023002400250026103A28BF78C1FBD8FF
:10023000520728BF30C148BF0B6070471FB50BF095
:1002400061FB1FBD10B510BD00F026FA1146FFF787
:10025000F5FF08F0B5FD00F044FA03B4FFF7F2FF34
:1002600003BC00F0A9FA00002C4B19680868B0E83C
:10027000F04F80F30988BFF36F8F4FF0000080F3D9
:10028000118870470000000008480068006880F38B
:1002900008884FF0000080F3148862B661B6BFF39F
:1002A0004F8FBFF36F8F00DF00BF00BF08ED00E08E
:1002B000DFF80C00016841F470010160704700BF75
:1002C00088ED00E0EFF30980BFF36F8F134B1A68DE
:1002D0001EF0100F08BF20ED108A20E9F04F1060CB
:1002E00009B44FF0500080F31188BFF34F8FBFF374
:1002F0006F8F09F04FFF4FF0000080F3118809BCA9
:1003000019680868B0E8F04F1EF0100F08BFB0EC95
:10031000108A80F30988BFF36F8F70472C0000208C
:10032000EFF30580704700000948804709480047FF
:10033000FEE7FEE7FEE7FEE7FEE7FEE7FEE7FEE795
:10034000FEE7FEE704480549054A064B70470000F2
:10035000416B0008890100083075002030B500208D
:100360003095002030950020DFED190AB5EEC00A67
:1003700060EE200ABDEEE01A11EE100AF1EE10FA5E
:1003800038BF401E00EE100A1349F7EE001AB8EE0F
:10039000C00A30EEC00ADFED0F0A60EE200ABCEEA4
:1003A000E00A10EE100AC0F3080000EE100A01EB9C
:1003B0008000B8EE400A90ED011A70EEC00A90ED90
:1003C000000A71EEE01A21EE800A00EE810A704701
:1003D00083F9223E0000004448BC000853EA020CA6
:1003E00000F069802DE9F04B4FF00006002B1FBF95
:1003F000B3FA83F503FA05F424FA05F65E4012BF5A
:100400001643B2FA82F502FA05F4C5F120051EBFC3
:1004100022FA05FC44EA0C04203556EA044C4FEA63
:10042000144418BF641C4FF000084FF000099042BC
:1004300071EB030C39D3002919BFB1FA81F701FA26
:1004400007F6B0FA80F700FA07F6C7F120071EBFDB
:1004500020FA07FC46EA0C062037B6FBF4FCA7EBB3
:100460000507103F07F01F0BCBF120060CFA0BFB22
:100470002CFA06F644BFB3460026202FA4BF5E46E2
:100480004FF0000B5BEA060C08BF4FF0010B19EBB5
:100490000B09ABFB027C48EB0608C01B06FB02CC39
:1004A0000BFB03CC71EB0C01C1E70B460246414646
:1004B0004846BDE8F08B13B54FF000004FF0000147
:1004C000AFF30080BDE81C407047032A40F2308043
:1004D00010F0030C00F0158011F8013BBCF1020F85
:1004E000624498BF11F801CB00F8013B38BF11F806
:1004F000013BA2F1040298BF00F801CB38BF00F81D
:10050000013B11F0030300F02580083AC0F0088099
:1005100051F8043B083A51F804CBA0E80810F5E77D
:10052000121D5CBF51F8043B40F8043BAFF3008060
:10053000D20724BF11F8013B11F801CB48BF11F8D5
:10054000012B24BF00F8013B00F801CB48BF00F8A5
:10055000012B704710B5203AC0F00B80B1E818505D
:10056000203AA0E81850B1E81850A0E81850BFF49D
:10057000F5AF5FEA027C24BFB1E81850A0E818503C
:1005800044BF18C918C0BDE810405FEA827C24BF90
:1005900051F8043B40F8043B08BF7047D20728BF1E
:1005A00031F8023B48BF11F8012B28BF20F8023B6D
:1005B00048BF00F8012B704702F0FF0343EA032213
:1005C00042EA024200F02CB84FF0000200B5134698
:1005D00094469646203922BFA0E80C50A0E80C5063
:1005E000B1F12001BFF4F7AF090728BFA0E80C5014
:1005F00048BF0CC05DF804EB890028BF40F8042B0D
:1006000008BF704748BF20F8022B11F0804F18BF79
:1006100000F8012B70477047704770474FF0000299
:100620000429C0F0128010F0030C3FF4CFAFCCF1DE
:10063000040CBCF1020F18BF00F8012BA8BF20F872
:10064000022BA1EB0C01FFF7C1BF5FEAC17C24BF05
:1006500000F8012B00F8012B48BF00F8012B704770
:100660001FB584B000200A9C06AB04AA02A900941E
:10067000AFF3008018B1DDE9020108B010BD0348F6
:10068000204000F037F800200146F6E70000207C0B
:1006900000487047CC7400207546FFF7F9FFAE465E
:1006A00005006946534620F00700854618B020B57E
:1006B000FFF748FEBDE820404FF000064FF000076E
:1006C0004FF000084FF0000B21F00701AC46ACE8FA
:1006D000C009ACE8C009ACE8C009ACE8C0098D4667
:1006E000704710B50446AFF300802046BDE81040C7
:1006F000FFF7B3BD10B500F009F8BDE81040AFF347
:100700000080002801D000F057B8704710B50228CB
:1007100003D0410103D50DA112E0002010BD01015D
:1007200001D50FA10CE0C10001D511A108E08100A5
:1007300001D512A104E0400001D513A100E0002181
:1007400015A000F03FF8012010BD0000496E766151
:100750006C6964204F7065726174696F6E0000008F
:10076000446976696465204279205A65726F000099
:100770004F766572666C6F7700000000556E646599
:1007800072666C6F77000000496E65786163742053
:10079000526573756C7400005349474650453A20C2
:1007A00041726974686D657469632065786365700A
:1007B00074696F6E3A20000001491820ABBEFEE755
:1007C0002600020070B505460C460A2000E06D1CAC
:1007D00000F011F835B128780028F8D102E0641C47
:1007E00000F009F814B120780028F8D1BDE8704075
:1007F0000A20AFF3008008B569468DF80000032099
:10080000ABBE08BD704700BFFEE7000010B5024850
:1008100000F017FF10BD00000802002010B50248CC
:1008200000F00FFF10BD000030020020F8B50746B1
:100830000C4615461E464FF400700D490860002016
:100840008860C86008200861380A0A4908704F703B
:10085000200A8870CC70280A08714D71300A88719E
:10086000CE716B460A460249034800F0EDFCF8BD24
:10087000247000200C0100200802002010B5FE4862
:10088000C06C0068FD49884276D9FC48543800683D
:10089000F949C96C0968FA4A914201D1202169E0FD
:1008A000F549C96C0968F54A483A914201D12021BD
:1008B00060E0F149C96C0968F14A6032914201D1A6
:1008C000202157E0EC49C96C0968EC4A1832914282
:1008D00001D120214EE0E849C96C0968E84A183284
:1008E000914201D1C91445E0E349C96C0968E34A62
:1008F000303A914201D1C9143CE0DF49C96C096822
:10090000DF4A7832914201D1C91433E0DA49C96C27
:100910000968DA4A3032914201D1C9142AE0D64935
:10092000C96C0968D64A3032914202D14FF40011A5
:1009300020E0D149C96C0968D04A183A914202D1E5
:100940004FF4001116E0CC49C96C0968CC4A9032CA
:10095000914202D14FF400110CE0C749C96C0968FB
:10096000C64A4832914203D14FF4001102E003E03D
:100970004FF00061084070E1BF48C06C0068C0499A
:10098000A831884276D9BD4858380068BA49C96C40
:100990000968BB4A914201D1202169E0B649C96C7E
:1009A0000968B64A483A914201D1202160E0B24933
:1009B000C96C0968B24A6032914201D1202157E0E6
:1009C000AD49C96C0968AD4A1832914201D1202164
:1009D0004EE0A949C96C0968A94A1832914201D16F
:1009E000C91445E0A449C96C0968A44A303A914247
:1009F00001D1C9143CE0A049C96C0968A04A783209
:100A0000914201D1C91433E09B49C96C09689B4AE2
:100A10003032914201D1C9142AE09749C96C096862
:100A2000974A3032914202D14FF4001120E09249AE
:100A3000C96C0968914A183A914202D14FF40011E9
:100A400016E08D49C96C09688D4A9032914202D1F5
:100A50004FF400110CE08849C96C0968874A483294
:100A6000914203D14FF4001102E003E04FF0006126
:100A70000840F2E08048C06C0068814948318842F3
:100A800076D97F48103840687B49C96C09687C4A30
:100A9000914201D1202169E07749C96C0968774A00
:100AA000483A914201D1202160E07349C96C09683C
:100AB000734A6032914201D1202157E06E49C96CDE
:100AC00009686E4A1832914201D120214EE06A49EC
:100AD000C96C09686A4A1832914201D1C91445E0CB
:100AE0006549C96C0968654A303A914201D1C91417
:100AF0003CE06149C96C0968614A7832914201D190
:100B0000C91433E05C49C96C09685C4A30329142CF
:100B100001D1C9142AE05849C96C0968584A3032D1
:100B2000914202D14FF4001120E05349C96C096889
:100B3000524A183A914202D14FF4001116E04E4940
:100B4000C96C09684E4A9032914202D14FF40011AB
:100B50000CE04949C96C0968484A4832914203D1BE
:100B60004FF4001102E003E04FF00061084074E030
:100B70004348103800684049C96C0968404A9142AE
:100B800001D1202168E03C49C96C09683B4A483AD8
:100B9000914201D120215FE03749C96C0968384A88
:100BA0006032914201D1202156E03349C96C096875
:100BB000324A1832914201D120214DE02E49C96CB0
:100BC00009682F4A1832914201D1C91444E02A49D8
:100BD000C96C0968294A303A914201D1C9143BE0F5
:100BE0002549C96C0968264A7832914201D1C91455
:100BF00032E02149C96C0968204A3032914201D162
:100C0000C91429E01C49C96C09681D4A3032914257
:100C100002D14FF400111FE01749C96C0968174A47
:100C2000183A914202D14FF4001115E01249C96CF3
:100C30000968134A9032914202D14FF400110BE03F
:100C40000D49C96C09680D4A4832914202D14FF4EE
:100C5000001101E04FF00061084000286FD0064805
:100C6000C06C0068054988427BD90348C06C0068A5
:100C70000349884208D105E0740900205864024005
:100C800010600240202068E0FE48C06C0068FE4909
:100C9000884201D1202060E0FA48C06C0068FB491E
:100CA000884201D1202058E0F648C06C0068F6491F
:100CB0006031884201D120204FE0F248C06C0068CA
:100CC000F2494839884201D1C01446E0ED48C06C71
:100CD0000068ED491831884201D1C0143DE0E9486F
:100CE000C06C0068E9491831884201D1C01434E071
:100CF000E448C06C0068E4497831884201D1C014EE
:100D00002BE0E048C06C0068E0493039884202D1ED
:100D10004FF4001021E0DB48C06C0068DA49303144
:100D2000884202D14FF4001017E0D648C06C00682A
:100D3000D6493031884204D14FF400100DE0DFE194
:100D40000FE0D048C06C0068CF499031884202D192
:100D50004FF4001001E04FF00060CB49091F08601C
:100D60006AE1C848C06C0068C8494831884274D9F3
:100D7000C448C06C0068C5496039884201D1202050
:100D800066E0C048C06C0068BF49884201D120209D
:100D90005EE0BC48C06C0068BC49884201D120209C
:100DA00056E0B848C06C0068B7496031884201D14C
:100DB00020204DE0B348C06C0068B44948398842EF
:100DC00001D1C01444E0AF48C06C0068AE4918318E
:100DD000884201D1C0143BE0AA48C06C0068AB490E
:100DE0001831884201D1C01432E0A648C06C0068B6
:100DF000A5497831884201D1C01429E0A148C06CCE
:100E00000068A2493039884202D14FF400101FE037
:100E10009C48C06C00689C493031884202D14FF434
:100E2000001015E09748C06C00689849303188423E
:100E300002D14FF400100BE09248C06C0068924958
:100E40009031884202D14FF4001001E04FF0006071
:100E50008D4908390860EFE0FFE78A48C06C0068F8
:100E60008A491839884274D98648C06C0068874915
:100E70006039884201D1202066E08248C06C006859
:100E80008149884201D120205EE07E48C06C006824
:100E90007E49884201D1202056E07A48C06C006823
:100EA00079496031884201D120204DE07548C06CFD
:100EB000006876494839884201D1C01444E071483D
:100EC000C06C006870491831884201D1C0143BE001
:100ED0006C48C06C00686D491831884201D1C0145B
:100EE00032E06848C06C006867497831884201D1B7
:100EF000C01429E06348C06C0068644930398842F6
:100F000002D14FF400101FE05E48C06C00685E49DB
:100F10003031884202D14FF4001015E05948C06CBE
:100F200000685A493031884202D14FF400100BE07A
:100F30005448C06C006854499031884202D14FF443
:100F4000001001E04FF0006050497039C86073E054
:100F5000FFE74C48C06C00684C496039884201D1B9
:100F6000202066E04748C06C00684749884201D1AC
:100F700020205EE04348C06C00684449884201D1AB
:100F8000202056E03F48C06C00683F4960318842ED
:100F900001D120204DE03B48C06C00683B494839F6
:100FA000884201D1C01444E03648C06C006836491C
:100FB0001831884201D1C0143BE03248C06C00684F
:100FC00032491831884201D1C01432E02D48C06C3A
:100FD00000682D497831884201D1C01429E02948A0
:100FE000C06C006829493039884202D14FF40010A2
:100FF0001FE02448C06C006823493031884202D188
:101000004FF4001015E01F48C06C00681F493031D4
:10101000884202D14FF400100BE01A48C06C0068FF
:1010200019499031884202D14FF4001001E04FF08D
:1010300000601649703988601548007800F0020099
:1010400078B11348007820F0020011490870084672
:10105000007840F004000870012211460D4801F0AC
:101060000BF80D48007800F00200E0B10A48007863
:1010700020F00200084908700846007840F004009B
:1010800008700BE074090020106402407060024098
:1010900061010020000402406201002001221021B1
:1010A000184800F0E9FF1848007800F0020078B115
:1010B0001548007820F002001349087008460078AF
:1010C00040F004000870012210210E4800F0D4FF07
:1010D00007F09AFC0D48007800F0040080B10B483E
:1010E000007820F00400094908700846007840F0B4
:1010F000080008700648006840F0010004490860D4
:1011000010BD0000000002406301002061010020CA
:10111000103C01400146087810381823B0FBF3F268
:101120000848805CC865032A05D908686FF3090080
:10113000001D886503E008686FF309008865886D05
:1011400070470000F4BB0008014600208A6A8B69E2
:10115000CBB932B1012A0DD0022A03D0032A10D113
:101160000EE000BFCB6A03F08073B3F1807F00D143
:10117000012007E0CB6AB3F1C07F00D1012001E07C
:1011800000E000BF34E08B69B3F5005F1AD132B1E3
:10119000012A07D0022A03D0032A11D10AE000BF96
:1011A00001200EE0CB6A03F08073B3F1807F00D1A1
:1011B000012006E0CB6AB3F1C07F00D1012000E03E
:1011C00000BF15E032B1012A05D0022A04D0032A5B
:1011D0000CD103E000BF00BF012008E0CB6A03F0A0
:1011E0008073B3F1807F00D1012000E000BF00BF19
:1011F0007047704710B5012000F030FE10BD10B5EB
:10120000082000F02BFE10BD10B5102000F026FEC7
:1012100010BD10B5202000F021FE10BD704710B5A4
:10122000024692F82030012B01D0022B06D1106823
:101230004069084314686061002010BD506A40F4A2
:10124000802050620120F8E7F0B504460D461E46A6
:1012500094F8207020688368A86800B900E000BF97
:10126000012F01D0022F7CD103F0806030B903F050
:10127000006018B903F08050002873D0C3F30161F7
:10128000022905D9606A40F4000060620120F0BDC7
:10129000012088403060A86860B9B5F800C0E868EF
:1012A00040EA4C5C206800F5C07000EB0110C0F80B
:1012B00000C00FE0D5E901C040EACC00D5F80CC071
:1012C00040EA0C00D4F800C00CF5C07C0CEB011C0B
:1012D000CCF80000D5F810C0206800F5C07000EB15
:1012E0000110C0F804C0287D01280ED1206800F547
:1012F000C07000EB0110406840F4807C206800F56D
:10130000C07000EB0110C0F804C0D079000692F85C
:1013100006C040EA0C4092F805C040EA0C2C107957
:101320004CEA000C206800F5C07000EB0110C0F81A
:101330000CC0D078000692F802C040EA0C4092F847
:1013400001C040EA0C2092F800C040EA0C00D4F83A
:1013500000C00CF5C07C0CEB011CCCF80800206828
:1013600001E016E00FE000F5C07000EB011000682E
:1013700040F0010C206800F5C07000EB0110C0F8CF
:1013800000C0002083E7606A40F400106062012022
:101390007DE7606A40F480206062012077E700000A
:1013A000F0B504460A46216894F82050012D01D07A
:1013B000022D7ED1424901F50071086840F001001C
:1013C0000860086820F47C5008600868566A40EAA3
:1013D00006200860107D00F01F06012000FA06F3C9
:1013E000C8699843C861A1F50071D069C8B9D1F83E
:1013F0000C029843C1F80C02908880B2968940EAAA
:10140000064601F51070576940F83760108880B2C1
:10141000168940EA064601F51070576900EBC700CF
:101420004660D069012819D1D1F80C021843C1F8DF
:101430000C02908880B2168840EA064601F51070CA
:10144000576940F83760908980B2168940EA0646AD
:1014500001F51070576900EBC7004660906928B924
:10146000D1F804029843C1F8040204E0D1F8040260
:101470001843C1F80402106928B9D1F8140298433E
:10148000C1F8140204E0D1F814021843C1F81402A0
:10149000106A012804D1D1F81C021843C1F81C02BB
:1014A000D1F8000220F00100C1F800020020F0BDD8
:1014B000FFE7606A40F4802060620120F7E70000E7
:1014C00000640040704770B5044694F82050012D28
:1014D00001D0022D7CD151B92068C06800F0030012
:1014E00080B9606A40F400106062012070BD20681D
:1014F000006900F0030028B9606A40F400106062DF
:101500000120F3E7206800F5D87000EB01100068B7
:1015100000F004009060906840B9206800F5D87031
:1015200000EB01100068400D106007E0206800F536
:10153000D87000EB01100068C0085060206800F50A
:10154000D87000EB0110006800F002004008D06085
:10155000206800F5D87000EB0110406800F00F0023
:101560001061206800F5D87000EB0110406800F4AD
:101570007F40000A9061206800F5D87000EB0110F0
:101580004068000C5061206800F5D87000EB011035
:1015900080681870206800F5D87000EB0110806832
:1015A00000F47F40000A5870206800F5D87000EB06
:1015B0000110806800F47F00000C9870206800F52E
:1015C000D87000EB01108068000ED870206800E031
:1015D00031E000F5D87000EB0110C0681871206888
:1015E00000F5D87000EB0110C06800F47F40000ADD
:1015F0005871206800F5D87000EB0110C06800F445
:101600007F00000C9871206800F5D87000EB011085
:10161000C068000ED87131B92068C06840F0200061
:101620002668F06005E02068006940F02000266828
:10163000306100205AE7606A40F480206062012037
:1016400054E72DE9F05F04460025206846692068CC
:10165000D0F80490206887682068D0F80CA0206833
:10166000D0F810B02068D0F8188006F001000028EB
:1016700055D007F00100C0B101202168886007F053
:10168000020018B1204600F010FB0EE007F0040045
:1016900010B145F4006508E007F0080010B145F40A
:1016A000805502E0204600F0FFFA07F48070C8B1D0
:1016B0004FF480702168886007F4007018B12046EC
:1016C00000F0F5FA0EE007F4806010B145F4005523
:1016D00008E007F4006010B145F4804502E02046C0
:1016E00000F0E4FA07F48030C8B14FF4803021688C
:1016F000886007F4003018B1204600F0DAFA0EE0F6
:1017000007F4802010B145F4004508E007F40020FC
:1017100010B145F4803502E0204600F0C9FA06F029
:10172000080038B10AF0100020B145F4007510200F
:101730002168C86006F0040040B10AF0080028B132
:1017400008202168C860204600F00CFA06F002006C
:1017500038B12068C06800F0030010B1204600F0E6
:1017600003FA06F0400038B10BF0100020B145F448
:10177000806510202168086106F0200040B10BF060
:10178000080028B1082021680861204600F05AFAB4
:1017900006F0100038B12068006900F0030010B1B5
:1017A000204600F050FA06F4003040B109F0100075
:1017B00028B1102021684860204600F045FA06F460
:1017C000803040B109F0080028B108202168486045
:1017D000204600F06FFA06F4004088B309F00400D8
:1017E00078B306F4807020B108F0010008B145F02C
:1017F000010506F4007020B108F0020008B145F0C0
:10180000020506F4806020B108F0040008B145F03C
:10181000040506F40060A0B108F0700088B108F07B
:101820007000402817D006DC10280BD020280CD0E0
:10183000302819D10CE0502810D0602814D110E0C5
:101840001DE019E045F008050FE045F010050CE03B
:1018500045F0200509E045F0400506E045F080052B
:1018600003E045F4807500E000BF00BF2068806998
:1018700020F07000216888610420216848602DB143
:10188000606A284360622046FFF71CFEBDE8F09FB7
:1018900070B504460CB9012070BD94F8200010B951
:1018A000204600F0AFF82068006820F002002168B0
:1018B000086000F0E7FB05460DE000F0E3FB401B8D
:1018C0000A2808D9606A40F400306062052084F874
:1018D00020000120E0E72068406800F002000028B6
:1018E000EBD12068006840F001002168086000F03A
:1018F000C9FB05460DE000F0C5FB401B0A2808D9CE
:10190000606A40F400306062052084F82000012005
:10191000C2E72068406800F001000028EBD0207E7C
:10192000012806D12068006840F080002168086026
:1019300005E02068006820F0800021680860607E73
:10194000012806D12068006840F040002168086046
:1019500005E02068006820F0400021680860A07E53
:10196000012806D12068006840F020002168086046
:1019700005E02068006820F0200021680860E07E13
:10198000012806D12068006820F010002168086056
:1019900005E02068006840F0100021680860207FA2
:1019A000012806D12068006840F00800216808601E
:1019B00005E02068006820F0080021680860607F6A
:1019C000012806D12068006840F004002168086002
:1019D00005E02068006820F0040021680860D4E970
:1019E0000201084321690843616908436168491E8F
:1019F00008432168C86100206062012084F820004B
:101A0000002049E710B586B00446142101A8FEF76E
:101A1000DBFD4E492068884241D14D480068401C9A
:101A20004B4908600846006801280FD100BF00201C
:101A300000904848006840F0007046490860084639
:101A4000006800F00070009000BF00BF00BF0020E1
:101A5000009040481038006840F008003D491039B7
:101A600008600846006800F00800009000BF00BF52
:101A70000320019002200290002003900320049094
:101A80000920059001A9344800F0F6F9002206214A
:101A9000142000F0C7FC142000F0B4FC54E02F49DF
:101AA0002068884250D100BF00200090294800687B
:101AB00040F08060274908600846006800F08060B8
:101AC000009000BF00BF22480068401C2049086009
:101AD0000846006801280FD100BF002000901D4873
:101AE000006840F000701B4908600846006800F07C
:101AF0000070009000BF00BF00BF0020009015489C
:101B00001038006840F00200124910390860084699
:101B1000006800F00200009000BF00BF602001904C
:101B200002200290002003900320049009200590D9
:101B300001A90B4800F0A0F900220621402000F086
:101B400071FC402000F05EFC06B010BD0064004057
:101B50000000002040380240000C024000680040B5
:101B6000000402407047000010B58AB0044601AB83
:101B700003AA00212046FFF7A6FC0398A0F201204B
:101B8000072857D2DFE800F00405060708090A0015
:101B900000BF00BF00BF00BF00BF00BF0398401ED2
:101BA000264908700846007800EB8000244931F887
:101BB000100000B22149097801EB8101204A02EBB3
:101BC000410108819DF805009DF8041040EA0120BC
:101BD0001A49097801EB810122F811009DF80700EC
:101BE0009DF8061040EA012000B21449097801EB83
:101BF000810102EB410148809DF809009DF8081021
:101C000040EA012000B20D49097801EB810102EBA5
:101C1000410188809DF80A000849097801EB81019B
:101C200002EB4101887105490978491CC8B206F0E8
:101C3000C3FB00E000BF00BF0AB010BD14010020CC
:101C4000C46F002070477047704770B5044694F821
:101C50002000012822D1022084F82000206800689A
:101C600020F001002168086000F00CFA05460DE044
:101C700000F008FA401B0A2808D9606A40F40030D6
:101C80006062052084F82000012070BD2068406853
:101C900000F001000028EBD16062F6E7606A40F4D2
:101CA000002060620120F0E770477047704770477E
:101CB00070477047704700002DE9F0410446002549
:101CC00000F0E0F9074614B90120BDE8F081606A30
:101CD00000B100BF00BF002084F8340000BF022024
:101CE00084F835002068006820F001002168086051
:101CF0000AE000F0C7F9C01B052805D9202060655F
:101D0000032084F83500E0E72068006800F0010057
:101D10000028EED12068056821480540D4E901017A
:101D20000843E16808432169084361690843A169E0
:101D30000843E1690843216A08430543606A0428AF
:101D400003D1D4E90B0108430543206805602068EE
:101D5000456925F00705606A0543606A04280DD1CE
:101D6000A06A0543E06A48B12046FFF7EDF928B1C3
:101D700040206065012084F83500A6E720684561B1
:101D80002046FFF7C7F9064694F85C103F208840CC
:101D9000B06000206065012084F83500002094E7E1
:101DA0003F8010F010B50446102C14D10A2006F024
:101DB00003FB2248007840F00100204908702048C9
:101DC000007840F001001E4908701E480078A0B35A
:101DD00006F01AFE31E0202C0ED1092006F0ECFAB4
:101DE0001948007840F0010017490870154800783C
:101DF00018B306F009FE20E0082C09D10B2006F0EC
:101E0000DBFA1248007840F001001049087014E035
:101E1000012C12D108F074FE01280ED00C490D4897
:101E2000006808F09FF80A48006830B120070A49A6
:101E30000860BFF34F8FBFF36F8F10BD62010020AA
:101E40006301002065010020610100206401002081
:101E5000D80100203C01002004ED00E010B504464C
:101E600004480068204020B1024804602046FFF783
:101E700099FF10BD143C0140F8B502460B46002501
:101E8000002400200021DCE0012606FA01F51E688E
:101E900006EA0504AC4273D15E68022E02D05E6889
:101EA000122E13D1CF0802F1200656F827004E0754
:101EB000F70E0F26BE40B0434F07FF0E1E69BE400F
:101EC0003043CF0802F1200646F8270010684F0083
:101ED0000326BE40B0431E7906F003064F00BE4005
:101EE000304310605E68012E08D05E68022E05D077
:101EF0005E68112E02D05E68122E13D190684F00DA
:101F00000326BE40B0434F00DE68BE4030439060C1
:101F1000506801268E40B0431E79C6F300168E40ED
:101F200030435060D0684F000326BE40B0434F009E
:101F30009E68BE403043D0605E6806F08056B6F1C1
:101F4000805F7DD100BF00260096404E366846F483
:101F500080463E4F3E603E46366806F48046009618
:101F600000BF00BF3A4E8F0856F827008E07370F84
:101F70000F26BE40B043374EB24202D1002624E0C5
:101F80005EE0354EB24201D101261EE0334EB24230
:101F900001D1022619E0324EB24201D1032614E0EB
:101FA000304EB24201D104260FE02F4EB24201D191
:101FB00005260AE02D4EB24201D1062605E02C4E40
:101FC000B24201D1072600E008268F073F0FBE402E
:101FD00030431F4E8F0846F82700264E3068A04336
:101FE0005E6806F48036B6F5803F00D12043214E6E
:101FF0003060361D3068A0435E6806F40036B6F5E2
:10200000003F00D120431B4E361D3060361D306826
:10201000A0435E6806F48016B6F5801F00D1204309
:10202000144E08363060361D3068A0435E6806F4F2
:102030000016B6F5001F00D120430E4E0C3630605E
:10204000491C1029FFF420AFF8BD000044380240BD
:10205000083801400000024000040240000802402D
:10206000000C024000100240001402400018024020
:10207000001C0240003C01400AB1816101E00B04F8
:102080008361704701480068704700001C00002011
:1020900070B504460CB9012070BD94F83D0028B914
:1020A000002084F83C00204600F0CEF8242084F87C
:1020B0003D002068006820F001002168086000F001
:1020C00099FB05465C496068884206D85B488542B2
:1020D00001D2012007E0002005E05948854201D2E5
:1020E000012000E00020012800D1D5E75548B5FBCC
:1020F000F0F62068406820F03F00304321684860D7
:102100004D496068884201D8701C07E04FF4967012
:1021100070434FF47A71B0FBF1F0401C2168096AFA
:1021200021F03F0108432168086243496068884202
:1021300014D8681E61684900B0FBF1F0401CC0F380
:102140000B00042801D204203DE0681E61684900AC
:10215000B0FBF1F0401CC0F30B0034E0A06838B9CC
:10216000681E616801EB4101B0FBF1F0401C0AE020
:10217000681E616801EBC10202EB0111B0FBF1F0D6
:10218000401C40F48040C0F30B0008B901201AE065
:10219000A06848B9681E616801EB4101B0FBF1F02D
:1021A000401CC0F30B000CE0681E616801EBC1022B
:1021B00002EB0111B0FBF1F0401CC0F30B0040F446
:1021C000804040F400402168C9694CF6FF72914399
:1021D00008432168C861D4E90701084321680968F8
:1021E00021F0C001084321680860D4E903100843C6
:1021F0002168896848F2FF3291430843216888606A
:10220000D4E9050108432168C96821F0FF010843AA
:102210002168C8602068006840F0010021680860FB
:1022200000202064202084F83D000020206384F8F2
:102230003E0000BF30E70000A086010080841E0041
:1022400000093D0040420F0010B586B0044614213D
:1022500001A8FEF7B9F92A49206888424DD100BF8C
:10226000002000902748006840F0040025490860DD
:102270000846006800F00400009000BF00BF00BFE7
:10228000002000900846006840F001000860084601
:10229000006800F00100009000BF00BF48150190E9
:1022A0001220029001200390032004900420059046
:1022B00001A91548FFF7E0FD4FF48070019012204E
:1022C000029001200390032004900420059001A9AE
:1022D0000E48FFF7D1FD00BF0020009009481030E4
:1022E000006840F4000007491031086008460068A3
:1022F00000F40000009000BF00BF06B010BD000059
:10230000005C0040303802400008024000000240FB
:102310000348006803490978084401490860704788
:102320001C0000202400002010B50D48006840F477
:1023300000700B4908600846006840F4806008603F
:102340000846006840F480700860032000F0A8F898
:102350000F2000F007F800F02BF8002010BD00005F
:10236000003C024070B504460E4800784FF47A7184
:10237000B1FBF0F00C490968B1FBF0F5284600F01C
:102380005DFE08B1012070BD102C07D2002221464D
:10239000501E00F047F80548046001E00120F2E714
:1023A0000020F0E72400002028000020200000206A
:1023B00008B500BF002000901148006840F480403C
:1023C0000F4908600846006800F48040009000BF94
:1023D00000BF00BF00200090081F006840F0805040
:1023E000091F08600846006800F08050009000BF98
:1023F00000BF00220F21901E00F014F808BD00005D
:102400004438024001460846002809DB00F01F035B
:1024100001229A4043099B0003F1E023C3F8002105
:1024200000BF70472DE9F05F80460D461646002735
:1024300004F09CFF074639462A46334601F0070060
:10244000C0F1070ABAF1040F02D94FF0040A01E003
:10245000C0F1070AD14600F1040ABAF1070F02D20F
:102460004FF0000A01E0A0F1030AD4464FF0010A40
:102470000AFA09FAAAF1010A0AEA020A0AFA0CFAA5
:102480004FF0010B0BFA0CFBABF1010B0BEA030B4A
:102490004AEA0B042146404604F070FFBDE8F09F75
:1024A00000BF00F00702064B19684FF6FF03194002
:1024B000044B0B4343EA0221014B196000BF7047F4
:1024C0000CED00E00000FA05F8B5044600250026F2
:1024D000207800F0010020B9207800F004000428E2
:1024E0002FD100205B498866FFF7CCFD054606E04A
:1024F000FFF7C8FD401B022801D90320F8BD56484C
:102500000068C0F3C0600028F2D160688101207AC1
:1025100041EA007050498431086001204D498866C5
:10252000FFF7B0FD054606E0FFF7ACFD401B0228B3
:1025300001D90320E2E748480068C0F3C0600028E2
:10254000F2D0207800F0020002287DD100BF0020E8
:10255000009041484030006840F080503E49403192
:1025600008600846006800F08050009000BF00BF7F
:102570003A48006840F4807038490860FFF782FDEF
:10258000054606E0FFF77EFD401B022801D9032027
:10259000B4E73248006800F480700028F2D02E487A
:1025A0007030006800F440764EB3A08900F44070AB
:1025B000B04224D028487030006820F440760120D2
:1025C00027490860002008602348703006600068D2
:1025D00000F0010098B1FFF755FD054608E0FFF750
:1025E00051FD401B41F28831884201D9032085E723
:1025F000194870300068C0F340000028EFD000BFD9
:10260000A08900F44070B0F5407F0CD1124808302A
:10261000006820F4F810134AE168114008430E499D
:102620000831086007E00C480830006820F4F81012
:10263000094908310860084870300068A189C1F371
:102640000B010843044900E002E07031086000BF5C
:10265000002053E70000474200380240007000406D
:10266000400E4742FFFCFF0F70B504460D460CB903
:10267000012070BD5848006800F00F00A84209D240
:1026800055490D700846006800F00F00A84201D0BF
:102690000120EEE7207800F0020002281DD120780A
:1026A00000F00400042805D14C48006840F4E050D4
:1026B0004A490860207800F00800082805D14748FA
:1026C000006840F46040454908604448006820F0D4
:1026D000F000A168084341490860207800F001003B
:1026E000A8B36068012807D13C4808380068C0F3E7
:1026F0004040B8B90120BCE76068022802D0606899
:10270000032807D1354808380068C0F3406048B94D
:102710000120AEE7314808380068C0F3400008B92E
:102720000120A6E72D48006820F0030061680843F7
:102730002A490860FFF7A6FC064609E0FFF7A2FC5D
:10274000801B41F28831884202D9032091E707E0DB
:102750002248006800F00C006168B0EB810FEDD1F9
:102760001D48006800F00F00A84209D91A490D70F1
:102770000846006800F00F00A84201D0012078E769
:10278000207800F00400042807D11448006820F4E1
:10279000E050E168084311490860207800F0080023
:1027A000082808D10D48006820F46040216940EAFB
:1027B000C1000A49086000F03DF808490968C1F302
:1027C0000311074A515CC840064908600F20FFF713
:1027D000C9FD00204DE70000003C024008380240DF
:1027E000FCBB00082800002001480068704700007A
:1027F0002800002000B5FFF7F7FF04490968C1F37E
:102800008221034A515CC84000BD000008380240E4
:102810000CBC000800B5FFF7E7FF04490968C1F3E5
:102820004231034A515CC84000BD000008380240F4
:102830000CBC00082DE9F047002400250026A14625
:102840002548006800F00C0020B1042805D00828B5
:102850003AD105E0DFF8849039E0DFF8849036E083
:102860001D48001F006800F03F041B48001F00685F
:1028700000F4800078B11A481749091F0968C1F3AC
:102880008811A0FB01700146224600233846FDF75F
:10289000A5FD05460EE011480F49091F0968C1F35F
:1028A0008811A0FB01700146224600233846FDF73F
:1028B00095FD05460848001F0068C0F30140401C14
:1028C0004600B5FBF6F902E0DFF8109000BF00BF4C
:1028D0004846BDE8F0870000083802400024F400B4
:1028E000001BB700F8B504460CB90120F8BD2078EC
:1028F00000F00100002874D0F948006800F00C00D6
:1029000004280DD0F648006800F00C00082813D108
:10291000F348001F006800F48000B0F5800F0BD171
:10292000EF4808380068C0F34040002859D060687C
:10293000002856D10120D9E700BF6068B0F5803F7C
:1029400008D1E7480838006840F48030E449083985
:1029500008601EE06068B0F5A02F0DD1E04808388F
:10296000006840F48020DE490839086008460068A5
:1029700040F4803008600CE0D9480838006820F442
:102980008030D749083908600846006820F4802064
:10299000086000BF606890B1FFF774FB054606E071
:1029A000FFF770FB401B642801D903209EE7CC4849
:1029B00008380068C0F340400028F1D011E0FFF76C
:1029C00061FB054606E0FFF75DFB401B642801D96B
:1029D00003208BE7C24808380068C0F34040002855
:1029E000F1D1207800F0020002285FD1BC480068D5
:1029F00000F00C0058B1BA48006800F00C0008283C
:102A00001CD1B748001F006800F48000B0B9B4487A
:102A100008380068C0F3400020B1E068012801D008
:102A2000012063E7AE480838006820F0F80021690B
:102A300040EAC100AA490839086037E0E06800B3FD
:102A40000120A8490860FFF71DFB054606E0FFF7D7
:102A500019FB401B022801D9032047E7A04808388A
:102A60000068C0F340000028F1D09D480838006895
:102A700020F0F800216940EAC1009949083908604E
:102A800014E0002097490860FFF7FCFA054606E0CD
:102A9000FFF7F8FA401B022801D9032026E79048E7
:102AA00008380068C0F340000028F1D1207800F019
:102AB000080008282CD16069A8B101208A49086063
:102AC000FFF7E0FA054606E0FFF7DCFA401B0228B4
:102AD00001D903200AE782486C300068C0F3400047
:102AE0000028F1D014E000207F490860FFF7CAFAFF
:102AF000054606E0FFF7C6FA401B022801D903206D
:102B0000F4E677486C300068C0F340000028F1D14B
:102B1000207800F00400042870D100267048383076
:102B2000006800F0805090B900BF002000906C4811
:102B30003830006840F080506949383108600846F4
:102B4000006800F08050009000BF00BF0126674879
:102B5000006800F48070B0B96448006840F4807088
:102B600062490860FFF78EFA054606E0FFF78AFA29
:102B7000401B022801D90320B8E65C48006800F435
:102B800080700028F2D000BFA068012808D1544806
:102B90006830006840F001005149683108601DE06C
:102BA000A06805280DD14E486830006840F0040048
:102BB0004B49683108600846006840F00100086031
:102BC0000CE047486830006820F001004449683153
:102BD00008600846006820F00400086000BFA06894
:102BE000A8B1FFF74FFA054609E0FFF74BFA401B83
:102BF00041F28831884202D9032077E626E038483E
:102C000068300068C0F340000028EED013E0FFF702
:102C100039FA054608E0FFF735FA401B41F28831E2
:102C2000884201D9032061E62D4868300068C0F36E
:102C300040000028EFD1012E07D129483830006824
:102C400020F0805026493831086000BFA069B8B331
:102C50002348006800F00C0008285ED0A069022814
:102C600046D100201F490866FFF70CFA054606E02A
:102C7000FFF708FA401B022801D9032036E618485E
:102C800008380068C0F340600028F1D1D4E907019A
:102C90000843616A40EA81110122A06AC2EB500038
:102CA00041EA00412C20005D41EA00600C49091F07
:102CB000086001200B490866FFF7E4F9054607E0C4
:102CC0002DE0FFF7DFF9401B022801D903200DE6B4
:102CD000034808380068C0F340600028F1D01EE0C7
:102CE0000838024000004742800E47420070004012
:102CF00000200C490866FFF7C5F9054606E0FFF716
:102D0000C1F9401B022801D90320EFE506480068FD
:102D1000C0F340600028F2D101E00120E6E5002088
:102D2000E4E50000000047420038024010B50446C8
:102D30000CB9012010BD607F20B90020207720460B
:102D400000F060F80220607700BFCA202168486266
:102D500053202168486200BF204601F0C3FA40B109
:102D600000BFFF202168486200BF04206077012077
:102D7000E0E720688068224908402168886021696E
:102D800060680843616908432168896808432168CD
:102D900088602168E068086120680169208941EA4B
:102DA0000040216808612068C06820F08000216828
:102DB000C8602068806800F0200060B9204600F0FC
:102DC0002DF840B100BFFF202168486200BF0420F9
:102DD00060770120AEE72068006C20F48020216835
:102DE00008642068006CA16908432168086400BF7A
:102DF000FF202168486200BF01206077002099E72A
:102E0000BFFF8FFF034A0168914202D10121024AAC
:102E100011607047002800403C0E474270B50446E0
:102E200000252068C06820F0A0002168C860FFF776
:102E300029F9054607E0FFF725F9401BB0F57A7F31
:102E400001D9032070BD2068C06800F02000002870
:102E5000F1D00020F6E710B504460CB9012010BDF2
:102E6000606A00B900BF0021A16294F8510028B93E
:102E7000002084F85000204600F034F8022084F846
:102E800051002068006820F0400021680860D4E903
:102E900001010843E1680843216908436169084367
:102EA000218B01F400710843E1690843216A08435A
:102EB000A16A0843216808600421A06901EA104062
:102EC000616A0843216848602068C06920F4006096
:102ED0002168C86100206065012084F8510000204D
:102EE000BDE7000010B586B00446142101A8FDF727
:102EF0006BFB4B49206888427ED100BF00200090C8
:102F00004848006840F48050464908600846006818
:102F100000F48050009000BF00BF00BF0020009070
:102F200040481438006840F002003E4914390860F7
:102F30000846006800F00200009000BF00BF00BF1C
:102F4000002000900846006840F001000860084634
:102F5000006800F00100009000BF00BF1820019041
:102F60000220029001200390032004900520059088
:102F700001A92D48FEF780FF8020019002200290D9
:102F800001200390032004900520059001A9274803
:102F9000FEF772FF2648274908604FF0C06048607E
:102FA000002124488160C1604FF4806101610021EB
:102FB00041618161C1614FF4403101620021416290
:102FC000FEF77AFE08B1FEF729F900BF1948E06460
:102FD000846300BF16481830174908604FF0C0607E
:102FE00048604021144881600021C1604FF4806135
:102FF00001610021416100E010E08161C1614FF495
:103000000031016200214162FEF756FE08B1FEF771
:1030100005F900BF0848A064846300BF06B010BD76
:1030200000300140443802400004024000000240E9
:1030300040640240CC0900202C0A002070B50446F0
:103040002546681EB0F1807F01D301200FE0681E85
:103050004FF0E02148610F214FF0FF3004F08EF96E
:1030600000204FF0E021886107200861002070BD3A
:1030700010B5024600BF92F83C00012801D10220A1
:1030800010BD012082F83C0000BF022082F83D0004
:10309000106843681068846823F07003086803436D
:1030A00024F080044868044310684360106884601A
:1030B000012082F83D0000BF002082F83C0000BFE4
:1030C00000BFDDE710B504460CB9012010BD94F82F
:1030D0003D0028B9002084F83C00204600F00CF8A0
:1030E000022084F83D00211D206803F05BFD0120D3
:1030F00084F83D000020E9E708B5344A01689142B0
:103100000FD100BF002100913149096841F002014F
:103110002F4A11601146096801F00201009100BFB9
:1031200053E02C4A016891420FD100BF0021009169
:103130002749096841F00401254A116011460968D0
:1031400001F00401009100BF3FE0234A0168914271
:103150000FD100BF002100911D49096841F008010D
:103160001B4A11601146096801F00801009100BF77
:103170002BE01A4A0168914211D100BF0021009151
:103180001349091D096841F00201114A121D11601D
:103190001146096801F00201009100BF15E0104AD4
:1031A0000168914211D100BF002100910849091D19
:1031B000096841F40031064A121D11601146096880
:1031C00001F40031009100BF00BF08BD00040040C1
:1031D0004038024000080040000C0040000401405C
:1031E000004401400146022081F83D0008688068E3
:1031F00000F00702062A05D00868006840F00100C8
:103200000B681860012081F83D00002070472DE90F
:10321000F04104460D4600BF94F83C00012802D15D
:103220000220BDE8F081012084F83C0000BF0220AC
:1032300084F83D002068866826F0770626F47F46ED
:10324000206886602868502833D00CDC202850D0B5
:1032500004DC00284BD0102851D149E0302849D057
:1032600040284CD139E060282DD0702807D0B0F527
:10327000805F03D0B0F5005F41D10DE040E0D5E9BB
:1032800002136A68206803F00AFD2068866846F029
:1032900077062068866033E0D5E902136A68206803
:1032A00003F0FDFC2068806840F48040216888605D
:1032B00026E0EA686968206803F0E2FD5021206892
:1032C00003F0F8FC1CE0EA686968206803F0EBFD95
:1032D0006021206803F0EEFC12E0EA68696820686B
:1032E00003F0CEFD4021206803F0E4FC08E000BFBD
:1032F00000BF00BF2968206803F0DCFC00E000BFCD
:1033000000BF012084F83D0000BF002084F83C008D
:1033100000BF00BF85E7000010B586B00446142149
:1033200001A8FDF751F958492068884224D100BF0F
:10333000002000905548006840F0040053490860A0
:103340000846006800F00400009000BF00BF881528
:103350000190022002900120039002200490059029
:1033600001A94B48FEF788FD4A48FFF73BFF0821BB
:10337000484800F043F984E047492068884225D155
:1033800000BF002000904148006840F008003F491D
:1033900008600846006800F00800009000BF00BF09
:1033A0004FF48040019002200290012003900220FF
:1033B0000490059001A93948FEF75EFD3848FFF7F3
:1033C00011FF0821364800F019F95AE03549206804
:1033D00088422DD100BF002000902C48006840F0AA
:1033E00080002A4908600846006800F080000090CC
:1033F00000BF00BF4FF4E050019002200290012076
:10340000039002200490059001A92748FEF734FD9F
:103410002648FFF7E7FE0021244800F0EFF80421DA
:10342000224800F0EBF80821204800F0E7F828E0F7
:103430001F492068884224D100BF00200090134813
:10344000006840F02000114908600846006800F05C
:103450002000009000BF00BF402001900220029099
:1034600001200390022004900320059001A9114837
:10347000FEF702FD1048FFF7B5FE00210E4800F0F0
:10348000BDF806B010BD0000000400403038024016
:10349000000802408C0A002000080040000C024096
:1034A000CC0A0020000C0040001C02400C0B002045
:1034B00000440140001402408C0B002070B504460B
:1034C0000D46164600BF94F83C00012801D10220A9
:1034D00070BD012084F83C0000BF022084F83D004C
:1034E00036B1042E1BD0082E31D00C2E5ED145E013
:1034F0002946206803F0E8FB2068806940F0080056
:10350000216888612068806920F004002168886152
:1035100020688069296908432168886147E0294655
:10352000206803F009FC2068806940F4006021688D
:1035300088612068806920F4806021688861206843
:103540008069296940EA0120216888612FE02946C5
:10355000206803F02FFC2068C06940F00800216853
:10356000C8612068C06920F004002168C861206833
:10357000C069296908432168C86118E029462068A4
:1035800003F054FC2068C06940F400602168C86101
:103590002068C06920F480602168C8612068C06923
:1035A000296940EA01202168C86100E000BF00BF2E
:1035B000012084F83D0000BF002084F83C0000BFDB
:1035C00000BF85E710B504460CB9012010BD94F882
:1035D0003D0028B9002084F83C00204600F00CF89B
:1035E000022084F83D00211D206803F0DBFA012051
:1035F00084F83D000020E9E77047000070B50446FC
:103600000E4601223146206803F038FB0F4920683E
:10361000884203D00E492068884201D1012000E091
:10362000002028B12068406C40F4004021684864C4
:103630002068806800F00705062D05D02068006826
:1036400040F0010021680860002070BD00000140CA
:103650000004014010B504460CB9012010BDA0695A
:1036600000B100E000BF94F8390028B9002084F8C8
:103670003800204600F028F8242084F8390020681B
:10368000C06820F400502168C860204603F020FC88
:103690002068006920F49040216808612068406932
:1036A00020F02A00216848612068C06840F400507A
:1036B0002168C8600020E063202084F8390084F885
:1036C0003A000020CAE7000010B586B00446142175
:1036D00001A8FCF779FF2F492068884258D100BF24
:1036E000002000902C48006840F480202A4908609F
:1036F0000846006800F48020009000BF00BF00BFB3
:103700000020009024481038006840F0040022494E
:10371000103908600846006800F00400009000BFFF
:1037200000BF4FF4406001900220029001200390FE
:10373000032004900720059001A91848FEF79CFB80
:103740001748184908604FF000604860002115488C
:103750008160C1604FF4806101610021416181613C
:10376000C1614FF40031016200214162FEF7A4FA09
:1037700008B1FDF753FD00BF0A486063846300BFD2
:10378000002204212720FEF74DFE2720FEF73AFEF7
:1037900006B010BD0048004040380240000802401A
:1037A000286002400C0C002000BFFEE770B5044604
:1037B0000D461646308888B9184890ED000A18481A
:1037C00080ED000A154890ED010A154880ED010AC8
:1037D000124890ED020A124880ED020A3246114961
:1037E0000F4805F0E7F80E4890ED000A85ED000A55
:1037F00090ED010A85ED010A90ED020A85ED020ABD
:10380000B7EE000A84ED000AB7EE000A84ED010A63
:10381000B7EE000A84ED020A70BD00007473002048
:10382000687300202C74002091ED000A0E4A82ED8E
:10383000000A91ED010A82ED010A91ED020A82ED82
:10384000020A92ED000A094A82ED000A064A92ED48
:10385000010A064A82ED010A034A92ED020A034A6E
:1038600082ED020A70470000747300206873002024
:1038700010B50E480E4908600320486000210C482E
:103880008160C1604FF4102101614FF4001141616A
:103890000021017641768176C17601774177FDF787
:1038A000F7FF08B1FDF7BAFC10BD0000006400404E
:1038B0000802002010B50E480E4908600320486039
:1038C00000210C488160C1604FF4102101614FF468
:1038D000001141610021017641768176C176017740
:1038E0004177FDF7D5FF08B1FDF798FC10BD00004A
:1038F000006800403002002008B500BF00200090A2
:103900001A48006840F480001849086008460068BA
:1039100000F48000009000BF00BF00BF00200090B6
:103920000846006840F4001008600846006800F48B
:103930000010009000BF00BF002205210C20FEF700
:1039400071FD0C20FEF75EFD002205213A20FEF7F6
:1039500069FD3A20FEF756FD002205213B20FEF7C7
:1039600061FD3B20FEF74EFD08BD000030380240EF
:1039700000B59DB01C22184916A8FCF7EBFD0021EC
:1039800016A805F069FA154908601C2212491C3175
:103990000FA8FCF7DFFD00210FA805F05DFA104924
:1039A00008601C220C49383108A8FCF7D3FD00211F
:1039B00008A805F051FA0B4908601C220649543149
:1039C00001A8FCF7C7FD002101A805F045FA06494A
:1039D00008601DB000BD000084BB00081800002076
:1039E000080000200C0000201400002000B587B063
:1039F000142102A8FCF7E8FD00BF002001906548F3
:103A0000006840F00200634908600846006800F062
:103A10000200019000BF00BF00BF002001900846D7
:103A2000006840F0010008600846006800F00100EE
:103A3000019000BF00BF00BF002001900846006851
:103A400040F0080008600846006800F00800019097
:103A500000BF00BF00BF002001900846006840F092
:103A6000040008600846006800F00400019000BFF0
:103A700000BF00BF002001900846006840F08000B1
:103A800008600846006800F08000019000BF00BF99
:103A900000BF002001900846006840F04000086028
:103AA0000846006800F04000019000BF00BF00BF62
:103AB000002001900846006840F020000860084699
:103AC000006800F02000019000BF00BF01224021EB
:103AD0003148FEF7D1FA012210213048FEF7CCFA26
:103AE000012211462E48FEF7C7FA4020029001201D
:103AF00003900490059002A92748FEF7BDF909201C
:103B00000290284803900120049002A92248FEF761
:103B1000B3F9102002900120039004900220059038
:103B200002A91E48FEF7A8F9302002901D48039014
:103B30000120049002A91C48FEF79EF90120029082
:103B4000039004900220059002A91548FEF794F90D
:103B5000002206210846FEF765FC0620FEF752FC0F
:103B6000002205210920FEF75DFC0920FEF74AFC32
:103B7000002205210A20FEF755FC0A20FEF742FC30
:103B8000002205211720FEF74DFC1720FEF73AFC16
:103B900007B000BD3038024000180240000002406B
:103BA00000040240000021100008024010B50B483C
:103BB0000B4908600B484860002109488160C160DA
:103BC0004FF480410161002141618161C161016265
:103BD000FEF75EFA08B1FDF721FB10BD005C004066
:103BE00000090020801A060010B50A480A4908603A
:103BF000002048607C210848816040F67F41C16018
:103C00000021016141618161FFF790F808B1FDF782
:103C100005FB10BD002800405409002010B50F48D6
:103C20000F4908604FF48270486000210C488160A1
:103C3000C160022101610121416149028161382194
:103C4000C16100210162416281620A21C162FFF704
:103C500002F908B1FDF7E2FA10BD000000300140A2
:103C60007409002000B587B01C216846FCF7ACFC45
:103C700015481649086000204860002113488160FB
:103C800041F28731C160002101618161FFF71AFAB9
:103C900008B1FDF7C3FA0D48FFF794FC08B1FDF732
:103CA000BDFA602000900020019002900490002254
:103CB00069460648FFF702FC08B1FDF7AFFA034872
:103CC000FFF72AFB07B000BD004401408C0B002029
:103CD00000B58DB0002009900A900B900C900790D1
:103CE00008901C216846FCF76FFC204820490860BA
:103CF0000020486000211E48816042F2CF01C1606F
:103D0000002101618161FFF7DDF908B1FDF786FA55
:103D10004FF48050099009A91548FFF778FA08B1C7
:103D2000FDF77CFA1248FFF74DFC08B1FDF776FA73
:103D300000200790089007A90D48FFF799F908B1EE
:103D4000FDF76CFA60200090002001900290049032
:103D5000082269460648FFF7B1FB08B1FDF75EFA95
:103D60000348FFF7D9FA0DB000BD00000004004081
:103D70008C0A002000B58DB0002009900A900B90AD
:103D80000C90079008901C216846FCF71DFC204809
:103D900020490860A720486000211E4881604FF636
:103DA000FF71C160002101618161FFF78BF908B1EA
:103DB000FDF734FA4FF48050099009A91548FFF730
:103DC00026FA08B1FDF72AFA1248FFF7FBFB08B103
:103DD000FDF724FA00200790089007A90D48FFF787
:103DE00047F908B1FDF71AFA602000900020019011
:103DF00002900490082269460648FFF75FFB08B16D
:103E0000FDF70CFA0348FFF787FA0DB000BD00007C
:103E100000080040CC0A002000B58DB000200990B9
:103E20000A900B900C90079008901C216846FCF7B4
:103E3000CBFB28482849086000204860002126481C
:103E400081604FF6FF71C160002101618161FFF760
:103E500039F908B1FDF7E2F94FF48050099009A94A
:103E60001D48FFF7D4F908B1FDF7D8F91A48FFF754
:103E7000A9FB08B1FDF7D2F900200790089007A927
:103E80001548FFF7F5F808B1FDF7C8F96020009074
:103E90000020019002900490002269460E48FFF72E
:103EA0000DFB08B1FDF7BAF9042269460A48FFF78D
:103EB00005FB08B1FDF7B2F9082269460648FFF78D
:103EC000FDFA08B1FDF7AAF90348FFF725FA0DB08E
:103ED00000BD0000000C00400C0B002000B587B0B6
:103EE00000200390049005900690019002901548E0
:103EF00015490860A720486000211348816044F6F6
:103F00001F61C1600021016141618161FFF7DAF841
:103F100008B1FDF783F94FF48050039003A90A48D4
:103F2000FFF775F908B1FDF779F9002001900290CB
:103F300001A90548FFF79CF808B1FDF76FF907B034
:103F400000BD0000000401404C0B002010B50B48E0
:103F50000B4908600B484860002109488160C16036
:103F60004FF4806101610C21416100218161C161D7
:103F7000FFF770FB08B1FDF751F910BD0048004094
:103F8000CC0B0020A086010000BFFEE770470000B8
:103F9000B0EE401A10B99FED790A704790ED100A03
:103FA00080ED110A90ED0F0A80ED100AC0ED060AAF
:103FB00080ED071A30EEC10A80ED0F0A0178002962
:103FC00075D190ED010AD0ED0F1A20EE210A80ED97
:103FD000090A90ED0A0AD0ED021A90ED0F2A01EEBF
:103FE000820A80ED0A0A90ED0D0A80ED0E0A90ED2E
:103FF0000C0A80ED0D0A90ED0F0AD0ED101A30EE8C
:10400000610A80ED0C0A90ED030AD0ED0C1A20EE47
:10401000210A80ED0B0A90ED0A0AD0ED051AB4EEE4
:10402000E10AF1EE10FA04DD90ED050A80ED0A0ACE
:1040300010E090ED0A0AD0ED051AF1EE611AB4EE27
:10404000E10AF1EE10FA05D290ED050AB1EE400A50
:1040500080ED0A0A90ED090AD0ED0A1A30EE210A25
:10406000D0ED0B1A30EE210A80ED080A90ED080A17
:10407000D0ED041AB4EEE10AF1EE10FA04DD90ED91
:10408000040A80ED080A76E090ED080AD0ED041AE3
:10409000F1EE611AB4EEE10AF1EE10FA6BD290ED96
:1040A000040AB1EE400A80ED080A64E0FFE70178F7
:1040B000012960D190ED0F0AD0ED101A30EE610A9F
:1040C000D0ED011A20EE210A80ED090A90ED020AD6
:1040D000D0ED0F1A20EE210A80ED0A0A90ED0D0AAC
:1040E00080ED0E0A90ED0C0A80ED0D0A90ED0F0A9E
:1040F000D0ED101AB0EE002A02EE610AD0ED111ACE
:1041000030EE210A80ED0C0A90ED030AD0ED0C1A76
:1041100020EE210A80ED0B0A90ED090AD0ED0A1A73
:1041200030EE210AD0ED0B1A30EE210AD0ED081A3C
:1041300030EE210A80ED080A90ED080AD0ED041A4D
:10414000B4EEE10AF1EE10FA04DD90ED040A80ED20
:10415000080A10E090ED080AD0ED041AF1EE611A99
:10416000B4EEE10AF1EE10FA05D290ED040AB1EED8
:10417000400A80ED080A90ED080A0EE700000000F2
:1041800000B102B97047017092ED001A80ED011A7A
:1041900092ED011A80ED021A92ED021A80ED031AD7
:1041A00080ED040AC0ED050A9FED0C1A80ED0E1A91
:1041B00080ED0D1A80ED0C1A9FED081A80ED081A9B
:1041C00080ED0B1A80ED0A1A80ED091A80ED111AA4
:1041D00080ED101A80ED0F1A00BFD3E70000000039
:1041E00010B5234B1B685B6943F04003204C2468E7
:1041F00063611F4B1B68DB6843F010031C4C246891
:10420000E3601C4B1B681B6823F00103194C2468F6
:10421000236007E0174B1B681B6823F00103154C54
:1042200024682360134B1B681B6803F00103002BF9
:10423000F0D1114B0F4C2468A3600E4B1B68D86063
:104240000C4B1B6819610B4B1B685A60094B1B68B0
:104250001B6843F48023074C24682360054B1B68CC
:104260001B6843F00103034C2468236010BD000069
:10427000CC0B00200C0C00200448004011490968B8
:10428000C96821F400510F4A1268D1600E490968CB
:10429000096821F001010C4A126811600A49096895
:1042A000486009490968096841F00101064A126835
:1042B000116004490968C96841F40051014A126853
:1042C000D1607047CC0B00200C0C00200448006823
:1042D000C06820F4005002490968C86070470000B7
:1042E000CC0B002070B5044600252068C06800F0A3
:1042F0004000A0B9681E2168C860FDF7C3FE0546EE
:1043000007E0FDF7BFFE401BB0F57A7F01D903201F
:1043100070BD2068C06800F040000028F1D0002087
:10432000F6E7000010B5FB4B1B681B6823F0010388
:10433000F84C24682360F84B1B681B6823F00103CA
:10434000F54C2468236007E0F24B1B681B6823F0E0
:104350000103F04C24682360EE4B1B681B6803F0DC
:104360000103002BF0D107E0EB4B1B681B6823F027
:104370000103E94C24682360E74B1B681B6803F0CA
:104380000103002BF0D1E54BDB6C1B68E44CA3422E
:1043900075D9E24BDB6C1B68E24CA34201D12023B0
:1043A00068E0DE4BDB6C1B68DD4C483CA34201D16E
:1043B00020235FE0D94BDB6C1B68DA4C6034A342EE
:1043C00001D1202356E0D54BDB6C1B68D44C18344C
:1043D000A34201D120234DE0D04BDB6C1B68D14CB4
:1043E0001834A34201D1DB1444E0CC4BDB6C1B68D6
:1043F000CB4C303CA34201D1DB143BE0C74BDB6C20
:104400001B68C84C7834A34201D1DB1432E0C34BA3
:10441000DB6C1B68C24C3034A34201D1DB1429E0B1
:10442000BE4BDB6C1B68BF4C3034A34202D14FF44F
:1044300000131FE0B94BDB6C1B68B94C183CA3425E
:1044400002D14FF4001315E0B44BDB6C1B68B54C84
:104450009034A34202D14FF400130BE0AF4BDB6C5E
:104460001B68AF4C4834A34202D14FF4001301E063
:104470004FF00063AA4C4C3C236076E1FFE7A74B6A
:10448000DB6C1B68A74CA834A34275D9A34BDB6C2B
:104490001B68A44CA34201D1202369E09F4BDB6C35
:1044A0001B689F4C483CA34201D1202360E09B4BFA
:1044B000DB6C1B689B4C6034A34201D1202357E086
:1044C000964BDB6C1B68964C1834A34201D1202319
:1044D0004EE0924BDB6C1B68924C1834A34201D126
:1044E000DB1445E08D4BDB6C1B688D4C303CA342EC
:1044F00001D1DB143CE0894BDB6C1B68894C7834C0
:10450000A34201D1DB1433E0844BDB6C1B68844C89
:104510003034A34201D1DB142AE0804BDB6C1B68F2
:10452000804C3034A34202D14FF4001320E07B4B87
:10453000DB6C1B687A4C183CA34202D14FF4001389
:1045400016E0764BDB6C1B68764C9034A34202D1AC
:104550004FF400130CE0714BDB6C1B68704C48345B
:10456000A34203D14FF4001302E005E04FF00063D3
:104570006B4C503C2360F8E0684BDB6C1B68694C6B
:104580004834A34275D9654BDB6C1B68654CA3426C
:1045900001D1202368E0614BDB6C1B68604C483C18
:1045A000A34201D120235FE05C4BDB6C1B685D4CB8
:1045B0006034A34201D1202356E0584BDB6C1B68CA
:1045C000574C1834A34201D120234DE0534BDB6CF0
:1045D0001B68544C1834A34201D1DB1444E04F4B08
:1045E000DB6C1B684E4C303CA34201D1DB143BE03A
:1045F0004A4BDB6C1B684B4C7834A34201D1DB1473
:1046000032E0464BDB6C1B68454C3034A34201D191
:10461000DB1429E0414BDB6C1B68424C3034A34275
:1046200002D14FF400131FE03C4BDB6C1B683C4C89
:10463000183CA34202D14FF4001315E0374BDB6C5A
:104640001B68384C9034A34202D14FF400130BE0A6
:10465000324BDB6C1B68324C4834A34202D14FF41E
:10466000001301E04FF000632E4C103CE3607CE04F
:10467000FFE72A4BDB6C1B682A4CA34201D12023A5
:1046800070E0264BDB6C1B68254C483CA34201D1F3
:10469000202367E0214BDB6C1B68224C6034A34273
:1046A00001D120235EE01D4BDB6C1B681C4C1834D1
:1046B000A34201D1202355E0184BDB6C1B68194C39
:1046C0001834A34201D1DB144CE0144BDB6C1B68A3
:1046D000134C303CA34201D1DB1443E00F4BDB6CA5
:1046E0001B68104C7834A34201D1DB143AE00B4B29
:1046F000DB6C1B680A4C3034A34201D1DB1431E07F
:10470000064BDB6C1B68074C3034A3420CD14FF4D2
:10471000001327E0CC0900202C0A00207409002097
:104720005864024010600240F74BDB6C1B68F74C8A
:10473000A34202D14FF4001314E0F34BDB6C1B686F
:10474000F34CA34202D14FF400130BE0EE4BDB6CB1
:104750001B68EE4C6034A34202D14FF4001301E019
:104760004FF00063EA4CA03CA360E74BDB6C1B6896
:10477000E64C1834A34274D9E34BDB6C1B68E44C61
:10478000903CA34201D1102366E0DF4BDB6C1B6839
:10479000DE4C303CA34201D110235DE0DA4BDB6CF0
:1047A0001B68DB4C303CA34201D1102354E0D64BB4
:1047B000DB6C1B68D54C3034A34201D110234BE095
:1047C000D14BDB6C1B68D24C783CA34201D11B154A
:1047D00042E0CD4BDB6C1B68CC4C183CA34201D1B2
:1047E0001B1539E0C84BDB6C1B68C94C183CA34255
:1047F00001D11B1530E0C44BDB6C1B68C34C483443
:10480000A34201D11B1527E0BF4BDB6C1B68C04CDA
:10481000603CA34202D14FF480131DE0BA4BDB6C25
:104820001B68BA4CA34202D14FF4801314E0B64B7C
:10483000DB6C1B68B64CA34202D14FF480130BE033
:10484000B14BDB6C1B68B14C6034A34202D14FF416
:10485000801301E04FF08063AC4C343C236070E186
:10486000FFE7A94BDB6C1B68A94C1834A34274D931
:10487000A54BDB6C1B68A64C903CA34201D11023D6
:1048800066E0A14BDB6C1B68A04C303CA34201D11D
:1048900010235DE09C4BDB6C1B689D4C303CA342BD
:1048A00001D1102354E0984BDB6C1B68974C3034DB
:1048B000A34201D110234BE0934BDB6C1B68944C5B
:1048C000783CA34201D11B1542E08F4BDB6C1B6887
:1048D0008E4C183CA34201D11B1539E08A4BDB6C8E
:1048E0001B688B4C183CA34201D11B1530E0864B52
:1048F000DB6C1B68854C4834A34201D11B1527E0B3
:10490000814BDB6C1B68824C603CA34202D14FF4AC
:1049100080131DE07C4BDB6C1B687C4CA34202D1F6
:104920004FF4801314E0784BDB6C1B68784CA34287
:1049300002D14FF480130BE0734BDB6C1B68734C9C
:104940006034A34202D14FF4801301E04FF0806342
:104950006E4C383C2360F4E0FFE76B4BDB6C1B686C
:104960006B4C483CA34274D9674BDB6C1B68684CAA
:10497000903CA34201D1102366E0634BDB6C1B68C3
:10498000624C303CA34201D110235DE05E4BDB6CF6
:104990001B685F4C303CA34201D1102354E05A4BBA
:1049A000DB6C1B68594C3034A34201D110234BE01F
:1049B000554BDB6C1B68564C783CA34201D11B1550
:1049C00042E0514BDB6C1B68504C183CA34201D1B8
:1049D0001B1539E04C4BDB6C1B684D4C183CA3425B
:1049E00001D11B1530E0484BDB6C1B68474C483449
:1049F000A34201D11B1527E0434BDB6C1B68444CE1
:104A0000603CA34202D14FF480131DE03E4BDB6CAF
:104A10001B683E4CA34202D14FF4801314E03A4B82
:104A2000DB6C1B683A4CA34202D14FF480130BE0BD
:104A3000354BDB6C1B68354C6034A34202D14FF41C
:104A4000801301E04FF08063314CA03CE36078E0DC
:104A5000FFE72D4BDB6C1B682D4C903CA34201D132
:104A600010236BE0284BDB6C1B68284C303CA342C6
:104A700001D1102362E0244BDB6C1B68244C303CDA
:104A8000A34201D1102359E01F4BDB6C1B681F4C64
:104A90003034A34201D1102350E01B4BDB6C1B6868
:104AA0001B4C783CA34201D11B1547E0164BDB6C35
:104AB0001B68164C183CA34201D11B153EE0124B5B
:104AC000DB6C1B68124C183CA34201D11B1535E06E
:104AD0000D4BDB6C1B680D4C4834A34201D11B15F8
:104AE0002CE0094BDB6C1B68094C603CA34202D1F3
:104AF0004FF4801322E0044BDB6C1B68034CA34291
:104B000008D14FF4801319E074090020406402407A
:104B1000A0600240F74BDB6C1B68F74CA34202D14C
:104B20004FF480130AE0F34BDB6C1B68F34CA34299
:104B300002D14FF4801301E04FF08063EE4CA03CB3
:104B4000A360EC4BDB6C1B68EC4C483CA34274D973
:104B5000E84BDB6C1B68E84C903CA34201D1082376
:104B600066E0E44BDB6C1B68E44C903CA34201D153
:104B700008235DE0DF4BDB6C1B68DF4C303CA3425D
:104B800001D1082354E0DB4BDB6C1B68DB4C303C71
:104B9000A34201D108234BE0D64BDB6C1B68D64CFB
:104BA000783CA34201D15B1542E0D24BDB6C1B6821
:104BB000D24C783CA34201D15B1539E0CD4BDB6C84
:104BC0001B68CD4C183CA34201D15B1530E0C94BAA
:104BD000DB6C1B68C94C183CA34201D15B1527E074
:104BE000C44BDB6C1B68C44C603CA34202D14FF445
:104BF00000231DE0BF4BDB6C1B68C04C603CA34234
:104C000002D14FF4002313E0BA4BDB6C1B68BA4CA3
:104C1000A34202D14FF400230AE0B64BDB6C1B68C1
:104C2000B64CA34202D14FF4002301E04FF00073D1
:104C3000B24C943C236070E1FFE7AE4BDB6C1B6829
:104C4000AD4C1834A34274D9AA4BDB6C1B68AA4C38
:104C5000903CA34201D1082366E0A64BDB6C1B68A5
:104C6000A64C903CA34201D108235DE0A14BDB6C34
:104C70001B68A14C303CA34201D1082354E09D4B5A
:104C8000DB6C1B689D4C303CA34201D108234BE0F8
:104C9000984BDB6C1B68984C783CA34201D15B15A8
:104CA00042E0944BDB6C1B68944C783CA34201D1EE
:104CB0005B1539E08F4BDB6C1B688F4C183CA342B3
:104CC00001D15B1530E08B4BDB6C1B688B4C183CC7
:104CD000A34201D15B1527E0864BDB6C1B68864C39
:104CE000603CA34202D14FF400231DE0814BDB6CFA
:104CF0001B68824C603CA34202D14FF4002313E0B6
:104D00007C4BDB6C1B687C4CA34202D14FF400232C
:104D10000AE0784BDB6C1B68784CA34202D14FF45D
:104D2000002301E04FF00073744C983C2360F4E0E2
:104D3000FFE7704BDB6C1B686F4C483CA34274D997
:104D40006C4BDB6C1B686C4C903CA34201D108237C
:104D500066E0684BDB6C1B68684C903CA34201D159
:104D600008235DE0634BDB6C1B68634C303CA34263
:104D700001D1082354E05F4BDB6C1B685F4C303C77
:104D8000A34201D108234BE05A4BDB6C1B685A4C01
:104D9000783CA34201D15B1542E0564BDB6C1B68AB
:104DA000564C783CA34201D15B1539E0514BDB6C8A
:104DB0001B68514C183CA34201D15B1530E04D4BB0
:104DC000DB6C1B684D4C183CA34201D15B1527E0FE
:104DD000484BDB6C1B68484C603CA34202D14FF44B
:104DE00000231DE0434BDB6C1B68444C603CA3423A
:104DF00002D14FF4002313E03E4BDB6C1B683E4CAA
:104E0000A34202D14FF400230AE03A4BDB6C1B684B
:104E10003A4CA34202D14FF4002301E04FF000735B
:104E2000354CA03CE36078E0FFE7324BDB6C1B685D
:104E3000314C903CA34201D108236CE02D4BDB6C3C
:104E40001B682E4C903CA34201D1082363E0294B00
:104E5000DB6C1B68284C303CA34201D108235AE08C
:104E6000244BDB6C1B68254C303CA34201D108234A
:104E700051E0204BDB6C1B681F4C783CA34201D1F6
:104E80005B1548E01B4BDB6C1B681C4C783CA34259
:104E900001D15B153FE0174BDB6C1B68164C183CCF
:104EA000A34201D15B1536E0124BDB6C1B68134C3F
:104EB000183CA34201D15B152DE00E4BDB6C1B6847
:104EC0000D4C603CA34202D14FF4002323E0094B78
:104ED000DB6C1B68094C603CA34202D14FF40023F9
:104EE00019E0044BDB6C1B68034CA34208D14FF460
:104EF000002310E074090020A0600240A06402407A
:104F0000F84BDB6C1B68F84CA34202D14FF4002332
:104F100001E04FF00073F54CA360F24BDB6C1B68B3
:104F2000F14C483CA34275D9EE4BDB6C1B68EF4C4F
:104F30001034A34201D1042368E0EA4BDB6C1B6808
:104F4000E94C903CA34201D104235FE0E54BDB6CCC
:104F50001B68E64C7034A34201D1042356E0E14BB8
:104F6000DB6C1B68E04C303CA34201D104234DE0D4
:104F7000DC4BDB6C1B68DD4C2834A34201D19B1554
:104F800044E0D84BDB6C1B68D74C783CA34201D182
:104F90009B153BE0D34BDB6C1B68D44C8834A3429D
:104FA00001D19B1532E0CF4BDB6C1B68CE4C183C1B
:104FB000A34201D19B1529E0CA4BDB6C1B68CB4C8B
:104FC0004034A34202D14FF480231FE0C54BDB6C79
:104FD0001B68C54C603CA34202D14FF4802315E00E
:104FE000C04BDB6C1B68C14CA034A34202D14FF410
:104FF00080230BE0BB4BDB6C1B68BB4CA34203D193
:105000004FF4802302E005E04FF08073B64C943CEF
:10501000236071E1B34BDB6C1B68B44CB834A34222
:1050200075D9B04BDB6C1B68B04C1034A34201D176
:10503000042367E0AB4BDB6C1B68AB4C903CA3429A
:1050400001D104235EE0A74BDB6C1B68A74C7034D6
:10505000A34201D1042355E0A24BDB6C1B68A24C98
:10506000303CA34201D104234CE09E4BDB6C1B6817
:105070009E4C2834A34201D19B1543E0994BDB6C35
:105080001B68994C783CA34201D19B153AE0954BA3
:10509000DB6C1B68954C8834A34201D19B1531E031
:1050A000904BDB6C1B68904C183CA34201D19B15C4
:1050B00028E08C4BDB6C1B688C4C4034A34202D143
:1050C0004FF480231EE0874BDB6C1B68864C603CF2
:1050D000A34202D14FF4802314E0824BDB6C1B68A7
:1050E000824CA034A34202D14FF480230AE07D4BCE
:1050F000DB6C1B687C4CA34202D14FF4802301E09F
:105100004FF08073784C983C2360F5E0FFE7754BD7
:10511000DB6C1B68754C5834A34274D9714BDB6C43
:105120001B68724C1034A34201D1042368E06D4B1C
:10513000DB6C1B686C4C903CA34201D104235FE004
:10514000684BDB6C1B68694C7034A34201D10423AB
:1051500056E0644BDB6C1B68634C303CA34201D1CE
:1051600004234DE05F4BDB6C1B68604C2834A3428A
:1051700001D19B1544E05B4BDB6C1B685A4C783CBF
:10518000A34201D19B153BE0564BDB6C1B68574C8F
:105190008834A34201D19B1532E0524BDB6C1B6873
:1051A000514C183CA34201D19B1529E04D4BDB6CBF
:1051B0001B684E4C4034A34202D14FF480231FE0C1
:1051C000484BDB6C1B68484C603CA34202D14FF457
:1051D000802315E0434BDB6C1B68444CA034A34296
:1051E00002D14FF480230BE03E4BDB6C1B683E4C3E
:1051F000A34203D14FF4802302E004E04FF0807318
:105200003A4CE36078E0374BDB6C1B68374C10346A
:10521000A34201D104236DE0324BDB6C1B68324C9E
:10522000903CA34201D1042364E02E4BDB6C1B684D
:105230002E4C7034A34201D104235BE0294BDB6C7C
:105240001B68294C303CA34201D1042352E0254B7A
:10525000DB6C1B68254C2834A34201D19B1549E027
:10526000204BDB6C1B68204C783CA34201D19B1582
:1052700040E01C4BDB6C1B681C4C8834A34201D102
:105280009B1537E0174BDB6C1B68174C183CA3428F
:1052900001D19B152EE0134BDB6C1B68134C403483
:1052A000A34202D14FF4802324E00E4BDB6C1B6839
:1052B0000D4C603CA34202D14FF480231AE0094B0D
:1052C000DB6C1B68094CA034A34202D14FF480234D
:1052D00010E0044BDB6C1B68034CA34208D14FF475
:1052E000802307E074090020A064024000600240AF
:1052F0004FF08073FE4CA360FE4BDB6C1B68FE4CD2
:10530000A34276D9FB4BDB6C1B68F94C1034A342EB
:1053100001D1012369E0F74BDB6C1B68F64C483C7C
:10532000A34201D1012360E0F24BDB6C1B68F04C1F
:105330007034A34201D1012357E0EE4BDB6C1B68B4
:10534000ED4C1834A34201D101234EE0E94BDB6C54
:105350001B68E74C2834A34201D1402345E0E54BCC
:10536000DB6C1B68E44C303CA34201D140233CE0A1
:10537000E04BDB6C1B68DE4C8834A34201D1402338
:1053800033E0DC4BDB6C1B68DB4C3034A34201D1D7
:1053900040232AE0D74BDB6C1B68D54C4034A3423A
:1053A00002D14FF4803320E0D24BDB6C1B68D24C2F
:1053B000183CA34202D14FF4803316E0CD4BDB6C96
:1053C0001B68CB4CA034A34202D14FF480330CE0D5
:1053D000C84BDB6C1B68C84C4834A34203D14FF464
:1053E000803302E005E04FF48003C34C4C3C236063
:1053F0006EE1C04BDB6C1B68BD4CB834A34276D960
:10540000BC4BDB6C1B68BA4C1034A34201D10123A6
:1054100069E0B84BDB6C1B68B74C483CA34201D138
:10542000012360E0B34BDB6C1B68B14C7034A342CA
:1054300001D1012357E0AF4BDB6C1B68AE4C183435
:10544000A34201D101234EE0AA4BDB6C1B68A84CA0
:105450002834A34201D1402345E0A64BDB6C1B68F6
:10546000A54C303CA34201D140233CE0A14BDB6C76
:105470001B689F4C8834A34201D1402333E09D4BED
:10548000DB6C1B689C4C3034A34201D140232AE0E2
:10549000984BDB6C1B68964C4034A34202D14FF40E
:1054A000803320E0934BDB6C1B68934C183CA34289
:1054B00002D14FF4803316E08E4BDB6C1B688C4CB2
:1054C000A034A34202D14FF480330CE0894BDB6C53
:1054D0001B68894C4834A34203D14FF4803302E067
:1054E00005E04FF48003844C503C2360F0E0814B96
:1054F000DB6C1B687E4C5834A34275D97D4BDB6C4A
:105500001B687B4C1034A34201D1012369E0794B25
:10551000DB6C1B68784C483CA34201D1012360E05E
:10552000744BDB6C1B68724C7034A34201D10123B5
:1055300057E0704BDB6C1B686F4C1834A34201D1F1
:1055400001234EE06B4BDB6C1B68694C2834A34293
:1055500001D1402345E0674BDB6C1B68664C303C57
:10556000A34201D140233CE0624BDB6C1B68604CE2
:105570008834A34201D1402333E05E4BDB6C1B68CF
:105580005D4C3034A34201D140232AE0594BDB6CFF
:105590001B68574C4034A34202D14FF4803320E0C3
:1055A000544BDB6C1B68544C183CA34202D14FF4A3
:1055B000803316E04F4BDB6C1B684D4CA034A3428C
:1055C00002D14FF480330CE04A4BDB6C1B684A4C31
:1055D0004834A34203D14FF4803302E004E04FF497
:1055E0008003434CE36073E0424BDB6C1B68404C30
:1055F0001034A34201D1012368E03E4BDB6C1B68F1
:105600003D4C483CA34201D101235FE0394BDB6CA8
:105610001B68374C7034A34201D1012356E0354B4F
:10562000DB6C1B68344C1834A34201D101234DE0DC
:10563000304BDB6C1B682E4C2834A34201D1402335
:1056400044E02C4BDB6C1B682B4C303CA34201D15B
:1056500040233BE0274BDB6C1B68254C8834A3427E
:1056600001D1402332E0234BDB6C1B68224C3034E9
:10567000A34201D1402329E01E4BDB6C1B681C4C6C
:105680004034A34202D14FF480331FE0194BDB6C4E
:105690001B68194C183CA34202D14FF4803315E02B
:1056A000144BDB6C1B68124CA034A34202D14FF4A4
:1056B00080330BE00F4BDB6C1B680F4C4834A3426C
:1056C00002D14FF4803301E04FF48003084CA36013
:1056D000084B9B6C1B68084CA3427BD9054B9B6C09
:1056E0001B68034C1034A34208D120236EE0000055
:1056F000006002407409002058640240F74B9B6C24
:105700001B68F74CA34201D120235FE0F34B9B6C55
:105710001B68F44CA34201D1202357E0EF4B9B6C54
:105720001B68EF4C6034A34201D120234EE0EB4BC9
:105730009B6C1B68EB4C483CA34201D1DB1445E059
:10574000E64B9B6C1B68E64C1834A34201D1DB147A
:105750003CE0E24B9B6C1B68E24C1834A34201D145
:10576000DB1433E0DD4B9B6C1B68DD4C7834A342CB
:1057700001D1DB142AE0D94B9B6C1B68D94C303C1F
:10578000A34202D14FF4001320E0D44B9B6C1B6862
:10579000D34C3034A34202D14FF4001316E0CF4B68
:1057A0009B6C1B68CF4C3034A34202D14FF40013E2
:1057B0000CE0CA4B9B6C1B68C94C9034A34203D1CC
:1057C0004FF4001302E005E04FF00063C44C241FC7
:1057D00023606AE1C14B9B6C1B68C24C4834A342F6
:1057E00074D9BE4B9B6C1B68BE4C603CA34201D17C
:1057F000202366E0B94B9B6C1B68B94CA34201D1D6
:1058000020235EE0B54B9B6C1B68B64CA34201D1D4
:10581000202356E0B14B9B6C1B68B14C6034A34213
:1058200001D120234DE0AD4B9B6C1B68AD4C483C37
:10583000A34201D1DB1444E0A84B9B6C1B68A84C2D
:105840001834A34201D1DB143BE0A44B9B6C1B68D2
:10585000A44C1834A34201D1DB1432E09F4B9B6C63
:105860001B689F4C7834A34201D1DB1429E09B4B89
:105870009B6C1B689B4C303CA34202D14FF400133D
:105880001FE0964B9B6C1B68954C3034A34202D1B1
:105890004FF4001315E0914B9B6C1B68914C303416
:1058A000A34202D14FF400130BE08C4B9B6C1B689E
:1058B0008B4C9034A34202D14FF4001301E04FF01F
:1058C0000063874C083C2360EFE0FFE7834B9B6C51
:1058D0001B68844C183CA34274D9804B9B6C1B689A
:1058E000804C603CA34201D1202366E07B4B9B6C43
:1058F0001B687B4CA34201D120235EE0774B9B6C5D
:105900001B68784CA34201D1202356E0734B9B6C5B
:105910001B68734C6034A34201D120234DE06F4BD0
:105920009B6C1B686F4C483CA34201D1DB1444E0E4
:105930006A4B9B6C1B686A4C1834A34201D1DB1480
:105940003BE0664B9B6C1B68664C1834A34201D14C
:10595000DB1432E0614B9B6C1B68614C7834A342D2
:1059600001D1DB1429E05D4B9B6C1B685D4C303C26
:10597000A34202D14FF400131FE0584B9B6C1B68ED
:10598000574C3034A34202D14FF4001315E0534B6F
:105990009B6C1B68534C3034A34202D14FF400136C
:1059A0000BE04E4B9B6C1B684D4C9034A34202D1D4
:1059B0004FF4001301E04FF000634A4C703CE36089
:1059C00073E0FFE7454B9B6C1B68464C603CA34271
:1059D00001D1202366E0414B9B6C1B68404CA342E5
:1059E00001D120235EE03D4B9B6C1B683D4CA342E4
:1059F00001D1202356E0394B9B6C1B68384C603436
:105A0000A34201D120234DE0344B9B6C1B68354CE5
:105A1000483CA34201D1DB1444E0304B9B6C1B6833
:105A20002F4C1834A34201D1DB143BE02B4B9B6C71
:105A30001B682C4C1834A34201D1DB1432E0274BF5
:105A40009B6C1B68264C7834A34201D1DB1429E0FF
:105A5000224B9B6C1B68234C303CA34202D14FF479
:105A600000131FE01D4B9B6C1B681D4C3034A34280
:105A700002D14FF4001315E0184B9B6C1B68194CB6
:105A80003034A34202D14FF400130BE0134B9B6C54
:105A90001B68134C9034A34202D14FF4001301E071
:105AA0004FF000630F4C703CA3600C4B9B6C1B6869
:105AB0000B4C4834A3427AD9084B9B6C1B68094CA9
:105AC000603CA34201D110236DE0044B9B6C1B682A
:105AD000034CA34208D1102365E0000074090020A4
