:020000040800F2
:1000000020080020D5020008C33100088330000812
:10001000C1310008D31C00080D37000800000000A3
:10002000000000000000000000000000293200086D
:10003000911D000800000000C53100082B320008A7
:10004000EF020008EF020008EF020008EF020008CC
:10005000EF020008EF020008EF020008EF020008BC
:10006000EF020008EF020008EF020008EF020008AC
:10007000D51C0008EF020008EF020008EF0200089C
:10008000EF020008EF020008EF020008EF0200088C
:10009000EF020008EF020008EF020008EF0200087C
:1000A000EF020008EF020008EF020008EF0200086C
:1000B000EF020008EF020008EF020008EF0200085C
:1000C000EF020008EF020008EF020008EF0200084C
:1000D000EF020008F5360008EF02000801370008BB
:1000E000EF020008EF020008EF020008EF0200082C
:1000F000EF020008EF020008EF020008EF0200081C
:10010000EF020008EF020008EF020008EF0200080B
:10011000EF020008EF020008EF020008EF020008FB
:10012000EF020008EF020008EF020008EF020008EB
:10013000EF020008EF020008EF020008EF020008DB
:10014000EF020008EF020008EF020008EF020008CB
:10015000EF020008EF020008E11C0008EF020008AF
:10016000EF020008EF020008EF020008EF020008AB
:10017000EF020008EF020008EF0200080000000094
:10018000EF020008EF02000800F002F800F092F819
:100190000AA090E8000C82448344AAF10107DA45E2
:1001A00001D100F087F8AFF2090EBAE80F0013F0A2
:1001B000010F18BFFB1A43F001031847BC380000B9
:1001C000DC380000103A24BF78C878C1FAD852074A
:1001D00024BF30C830C144BF04680C6070470000C1
:1001E0000023002400250026103A28BF78C1FBD840
:1001F000520728BF30C148BF0B6070476E2900F01E
:10020000DB81702900F01D83662903F0A283652934
:1002100003F09F83672903F09C83612903F09B838C
:1002200003681B0A28BF41F08001692900F088811A
:10023000642900F08581752900F082816F2900F022
:10024000AA82782900F0E982E92900F04582E429B0
:1002500000F04282F52900F03F82EF2900F0A782EA
:10026000F82900F0E8820368DB0928BF41F080012B
:10027000632900F0EB87732900F0F087E32900F091
:10028000FB87F32901F00080002070471FB503F0C1
:100290005BFB01F04BF804000020002103F03EFB63
:1002A000401C60600020002103F022FBE0601FBDC5
:1002B00010B510BD01F00CF81146FFF7E7FF03F091
:1002C00055FA01F0E9F803B4FFF7F2FF03BC01F0BF
:1002D00031F900000948804709480047FEE7FEE77A
:1002E000FEE7FEE7FEE7FEE7FEE7FEE7FEE7FEE7E6
:1002F00004480549054A064B70470000C53200080E
:10030000890100082002002020080020200400208D
:100310002004002053EA020C00F069802DE9F04B24
:100320004FF00006002B1FBFB3FA83F503FA05F464
:1003300024FA05F65E4012BF1643B2FA82F502FABD
:1003400005F4C5F120051EBF22FA05FC44EA0C04A1
:10035000203556EA044C4FEA144418BF641C4FF091
:1003600000084FF00009904271EB030C39D30029CB
:1003700019BFB1FA81F701FA07F6B0FA80F700FA6F
:1003800007F6C7F120071EBF20FA07FC46EA0C0655
:100390002037B6FBF4FCA7EB0507103F07F01F0B57
:1003A000CBF120060CFA0BFB2CFA06F644BFB34641
:1003B0000026202FA4BF5E464FF0000B5BEA060C20
:1003C00008BF4FF0010B19EB0B09ABFB027C48EBAC
:1003D0000608C01B06FB02CC0BFB03CC71EB0C0127
:1003E000C1E70B46024641464846BDE8F08B13B5CF
:1003F0004FF000004FF00001AFF30080BDE81C405B
:10040000704700001CB50C46064B7B4469460090C3
:10041000204600F0EAF804460020694600F0F8F8AB
:1004200020461CBD030200004FF0000200B5134639
:1004300094469646203922BFA0E80C50A0E80C5004
:10044000B1F12001BFF4F7AF090728BFA0E80C50B5
:1004500048BF0CC05DF804EB890028BF40F8042BAE
:1004600008BF704748BF20F8022B11F0804F18BF1B
:1004700000F8012B704770477047704770B504460D
:1004800085690068C10601D5302600E02026C00736
:1004900007D070BDD4E9012130469047206A401C46
:1004A00020626D1EF6D570BD70B504468569007872
:1004B000C00707D170BDD4E9012120209047206AF0
:1004C000401C20626D1EF6D570BD09684A0501D535
:1004D00040B27047C905FCD500B2704709684A05AB
:1004E00001D5C0B27047C905FCD580B2704770B560
:1004F0000C460546012A05D02878800600D5EA6911
:10050000002302E0012305E05B1C934202D2E05C81
:100510000028F9D1A869E618C01AA861286A184409
:1005200028622846FFF7AAFF04E0D5E9012114F864
:10053000010B9047B442F8D32846FFF7B5FF70BDD2
:100540002DE9F0410646002410687529314616A5AC
:1005500010D0FFF7BAFF002802DA404213A507E0E7
:1005600031688A0701D512A502E0490704D511A513
:10057000012401E0FFF7B2FF00210A2206F124075F
:1005800009E0B0FBF2FCB0FBF2F302FB1C003030E0
:1005900078541846491C0028F3D123462A46304691
:1005A000BDE8F04100F061BA000000002D0000003D
:1005B0002B0000002000000011680268006A53054B
:1005C00001D508700AE0D30501D5088006E01306BE
:1005D00003D5C217C1E9000200E00860012070479E
:1005E00001694A1C02610878704700B58FB0CDE9F7
:1005F00001310021059105497944CDE903101146E7
:10060000684600F029F90FB000BD0000E5FFFFFFCC
:100610000A6802F8010B0A60704700002DE9FF5FCD
:1006200015468A460446DFF8AC80F8440027D8E92E
:1006300000103E46CDE9001010E03AF816106A4668
:1006400002A800F025FE411C07D02178890603D5B9
:10065000E269391891420DD80744761C207880064B
:1006600002D5E069B84205DDAE42E6DB3AF8160095
:100670000028E2D1A069C01BA0612046FFF7FEFE62
:10068000D8E90010CDE90010002017E03AF8181062
:100690006A4602A800F0FCFDB0F1FF3F81460BD096
:1006A00000250DF1080B05E0D4E901211BF8050038
:1006B00090476D1C4D45F7D308F10100B0428046CC
:1006C000E4DB206A384420622046FFF7EDFEBDE8F7
:1006D000FF9F00004E3300002DE9F0418046D21DFF
:1006E00022F007020025D2E90002F52915A614D050
:1006F000011E72F1000106DA0023D0EB030063EB68
:10070000020211A608E0D8F800108B0701D50FA649
:1007100002E0490701D50EA601251146002408F183
:10072000240704E000F05CF930323A55641C50EACA
:100730000102F7D12B46324621464046BDE8F04142
:1007400000F093B9000000002D0000002B00000015
:100750002000000030B4002100F1240408E002F081
:100760000705D208303542EA4372DB086554491C5C
:1007700052EA0305F3D10468002310A2250707D528
:10078000A40600D421B1C46901230DA2641EC46172
:1007900030BC00F06AB910B5044621461068FFF776
:1007A0009DFE02462046BDE810400023D2E7D21D40
:1007B00022F00701D1E90023CCE70000000000008F
:1007C00030000000F0B40D460188090502D5214C27
:1007D0007C4402E01F4C7C440E34002100F12406CE
:1007E00008E002F00F071209E75D42EA03721B09F5
:1007F0007754491C52EA0307F3D102780023120709
:1008000004D5702D06D009B1022311342246F0BC64
:1008100000F02BB901231034F8E770B504460D46FB
:1008200021461068FFF75AFE024629462046BDE8D9
:1008300070400023C6E7D21D22F00703D3E900234E
:10084000C0E70368126843F0200303600823C36114
:100850000023B7E7B03100002DE9F05F8946044678
:100860004FF0000ADFF874B1FB44C0F820A0204626
:10087000E1688847002874D0252806D0D4E90121F2
:100880009047206A401C2062F1E700265F46204620
:10089000E16888472028054607DB312D05D2781905
:1008A00010F8200C08B10643F1E7B00701D526F097
:1008B0000406C4F81CA00027C4F818A02A2D09D0EB
:1008C000284602F04CFF38B304EB8708303DC8F8E7
:1008D000185019E059F8041B204604EB8702916177
:1008E000E1688847012F054618D1E069002820DA21
:1008F00026F020061DE0D8F8180000EB800005EB7C
:1009000040003038C8F818002046E168884705469E
:1009100002F025FF0028EED1012F0AD02E2D08D19C
:100920002046E16888477F1C0546022F46F02006D6
:10093000C4DBA069002803DA404246F00106A0614A
:10094000F00701D026F010066C2D0BD0682D09D0D1
:100950004C2D39D06A2D35D0742D35D07A2D33D029
:1009600016E038E0E1682F4620468847B842054641
:1009700009D16C2F26D04FF48060E16806432046F1
:100980008847054604E06C2F1AD04FF48070064368
:100990000DB3A5F14100192802D8203546F40066B0
:1009A0004A462946204626604E46FFF727FC80B17E
:1009B00001280BD0F61D26F0070000F1080956E7C4
:1009C0004020E4E78020D8E70020D6E706F10409BC
:1009D0004DE7284652E7206ABDE8F09F403100000D
:1009E00030B5B0F10A024FEA900E71F100034EEA01
:1009F000817EB0EB0E0061EB91014FEA101E4EEAD2
:100A0000017E10EB0E0041EB11114FEA102E4EEA61
:100A1000016E10EB0E0041EB11214FEA104E4EEA31
:100A2000014E10EB0E0041EB1141401841F1000165
:100A30004FEAD00040EA41704FEAD10110EB800547
:100A40004FEA810444EA907444EB01046D1944EBCD
:100A50000404521BA3414FF0000348BF0A3200D5E3
:100A600030BD401C41F1000130BD2DE9F0470D467D
:100A700099469246044600F124080168880604D588
:100A8000E06921F01001216000E00120A84201DDB1
:100A9000471B00E00027A1697A1902EB0900081A38
:100AA000A0612078C00602D42046FFF7E7FC0026AC
:100AB00008E0D4E901211AF806009047206A401C9A
:100AC000761C20624E45F4DB2078C0060AD520460D
:100AD000FFF7D4FC06E0D4E9012130209047206ADA
:100AE000401C2062381EA7F10107F4DC07E0D4E9BE
:100AF000012118F805009047206A401C2062281E3A
:100B0000A5F10105F3DC2046FFF7CEFC20780006B6
:100B100002D50220BDE8F0870120FBE770472DE9F0
:100B2000FF4F0C461E464FF0FF378BB0D2E9000155
:100B3000DDF860800A908A46C1F30A5505B93D4642
:100B4000002108464FF00000BAF1000F00F4400009
:100B500005DA00EB80004FF4400101EA50004FEA53
:100B60009059B9F1010F00DDB9460A9850EA4A00E0
:100B70000ED044F61050A5F2FF3545432F14B8F1BE
:100B8000000F1ED07542291E1EDDC9F100021CE0B7
:100B9000B8F1010F4FF0000001D0302103E0F24323
:100BA00005E02154401CB042FBDB3046002200210E
:100BB00021540B99C1F80880C1E900200FB0BDE8AD
:100BC000F08FBD1B6D1CDEE74A4600DA694206A8BD
:100BD00000F0F0FB06AB93E8070003AB83E80700E7
:100BE00050460A9900F0ADFC8DE80700A0F50050D2
:100BF0001F3800900398002D0ADD42F21F014A467B
:100C00000844002303A90390684600F016FF09E09A
:100C1000A0F500504A461F38002303A903906846F8
:100C200000F020FF8DE807000004000C03D04FF017
:100C3000FF30410800E01046B8F1000F03D0002259
:100C4000009215461EE0751E05D4FFF7C9FE30322E
:100C500062556D1EF9D5B3460122084302D0002229
:100C60007F1C04E02078302801D100227F1E002A5A
:100C7000099784D01DE0112D07DAFFF7B1FE30325D
:100C800062556D1C50EA0102F5D1084302D000986C
:100C9000C8B10EE00021681E05E0235C625C63546D
:100CA0002254401E491C8142F7DBAB46A81B401E64
:100CB0000990002004F80B000B98099AC0F80880EE
:100CC000C0E9002B7AE711264FF0000857E72DE91D
:100CD000F04F88460446D21D22F0070191B0D1E9B9
:100CE0000001CDE90A0102F012FD02460B98C00F87
:100CF00001D02D2007E02068810701D52B2002E0DC
:100D0000202101EAC000032A099001D0072A05DB4F
:100D100003464146204600F00DFB0BE1207880069B
:100D200001D5E06900E00620B8F1650F814606D0E4
:100D3000B8F1660F18D0B8F1670F70D131E000201C
:100D4000B9F1110F009001DB112301E009F101035A
:100D50000AAA01A90CA8FFF7E2FEDDE90C70002643
:100D600009F10105834647E001204B4600904FF012
:100D700000470AAA01A90CA8FFF7D1FEDDE90DB0D2
:100D80000C995D46002610B909F101000D18B9EB68
:100D9000050003D4C0F1FF3609F10105A5EB0900F8
:100DA0002BE0B9F1010F01DA4FF001090020B9F190
:100DB000110F0090484601DD112300E003460AAA06
:100DC00001A90CA8FFF7ABFEDDE90C704D4600262B
:100DD0008346207800070AD4AB4500DA5D4601A8B7
:100DE000012D04DD411911F8011C302907D04F45B0
:100DF00002DA17F1040F04DA012082460FE06D1EBB
:100E0000EEE7002F02DCED1B3E4403E0781CA84215
:100E100000DD7D1CB81B00F1010A4FF0004720786F
:100E2000000703D4AA4501DB4FF0FF3A0021B7F1D8
:100E3000004F0DF143088DF8431024D002202B23DE
:100E4000002F01DA7F422D230A21021EA0F10100AA
:100E500000DC5FB197FBF1FC97FBF1F201FB1C7C1E
:100E600017460CF1300C08F801CDEEE7A8F10100AF
:100E700003702188090501D5452100E06521A0F115
:100E8000010800F8011C09980FA9A1EB0807FF1D34
:100E900000B10120411901EBEA70A1693844081A38
:100EA000401EA0612078C00602D42046FFF7E6FA73
:100EB000099828B1D4E901219047206A401C20629A
:100EC0002078C00622D52046FFF7D8FA1EE0002E73
:100ED00004DBB34502DD01A8805D00E03020D4E9E9
:100EE00001219047206A401C2062761CAAF1010073
:100EF0005FEA000A0AD100F019FAC0680168405C94
:100F0000D4E901219047206A401C2062281EA5F1E7
:100F10000105DCDC07E0D4E9012118F8010B90475A
:100F2000206A401C2062381EA7F10107F3DC20462E
:100F3000FFF7BAFA032011B041E600002DE9F04FA7
:100F400004460D46D21D22F0070089B0D0E9009773
:100F50004846394602F0DBFB0246F80F01D02D234C
:100F600007E02068810701D52B2302E0202101EA58
:100F7000C0038DF820300BB1012000E00020032ACF
:100F8000824601D0072A04DB2946204600F0D2F928
:100F90003FE12078800601D40D2500E0E569C7F324
:100FA0000A560D2D49DA00214FEA175B08464FF02B
:100FB0000000002F00F4400007DA00EB80004FF43F
:100FC000400100EBD07001EA60008115012901DDCC
:100FD0004FF0FF3100224FEA850CBCF1180F06D309
:100FE0001346ACF118004FF08052C24003E04FF4BA
:100FF000801323FA0CF30CF10C0CBCF1200F04D37A
:10100000ACF1200C09FA0CF001E007FA0CF0002911
:101010004FF0004801DD18B90FE00ED140450CD368
:1010200019EB02095F4121B9404502D19F4329EAEA
:101030000209BBEB175F00D0761C2088000502D5A3
:101040007B48784402E07A487844193808AA30236B
:1010500002F80A30037C0AF10101002E0AF1020AAB
:1010600053546A4602DC4FF0300101E04FF0310189
:101070004FF001088DF8001002D0A6F2FF3603E011
:1010800059EA470100D06B4E002D02DC2178090798
:1010900004D54FF002082E218DF80110C44600211E
:1010A0000BE0C7F303433F01C35C491C6D1E02F80C
:1010B0000830052908F1010801DA002DF1DC0021D2
:1010C0000CE000EB1973491C1B786D1E082902F80F
:1010D00008304FEA091908F1010801DA002DF0DCA7
:1010E00021688B0602D516E0A8F10108E04505DD70
:1010F00002EB080313F8013C302BF5D0B8F1000FD8
:1011000009DD02EB080313F8013C2E2B03D109077C
:1011100001D4A8F10108002D05DD3E2102F80810D8
:101120006D1E08F10108407C002E02F8080008F14D
:10113000010804DA2D20764202F8080002E02B2094
:1011400002F808000A214FF47A70864208F101087B
:101150000BDB96FBF0F3303302F8083096FBF0F32C
:1011600008F1010800FB136601E0642E0CDB64202B
:1011700096FBF0F3303302F8083096FBF0F308F1F9
:10118000010800FB136601E00A2E06DB96FBF1F076
:10119000303002F8080008F1010896FBF1F001FB7D
:1011A0001060303002F80800A16908F1010808EB6E
:1011B000050202EB0A00081AA0612078C00602D4DA
:1011C0002046FFF75BF9216A08AE01EB0A002062B6
:1011D00004E0D4E9012116F8010B9047BAF1010AA5
:1011E000F7D22078C00602D52046FFF747F96E46B1
:1011F00009E016F8010B3E280FD0D4E901219047F1
:10120000206A401C2062B8F10108F2D22046FFF7A4
:101210004BF909B00320BDE8F08F206A2844206212
:1012200003E0D4E90121302090476D1EEBD3F8E7AD
:101230008A29000002FCFFFF10B5436913B1AFF328
:10124000008001E0FFF753F9012010BD127800F192
:1012500024010A7000224A700122EDE711684FF064
:10126000FF32E9E710B5436913B1AFF3008001E045
:10127000FFF7D4F9012010BD128800F12401828407
:101280000022C2840122EDE711684FF0FF32E9E746
:1012900070B516460C46054600F040F8036893F812
:1012A0000101012806D0FF2C0FD8185D68B101207C
:1012B0002C7070BDD3F807013246214603F20713A4
:1012C00003442846BDE8704018474FF0FF3070BD1A
:1012D000754600F0EBF8AE4605006946534620F02F
:1012E0000700854618B020B5FFF702F8BDE820409A
:1012F0004FF000064FF000074FF000084FF0000BD2
:1013000021F00701AC46ACE8C009ACE8C009ACE884
:10131000C009ACE8C0098D467047000010B500F068
:1013200005F8001D10BD00BFF525000000487047FE
:10133000DC0100202DE9F0411F4604460326016828
:10134000072A01F4006004DB08B116A505E016A524
:1013500003E008B115A500E015A521F010002060FC
:10136000A069C01EA0610FB1401EA0612046FFF71A
:1013700085F84FB1D4E9012138469047206A401CD6
:101380002062C01C206206E0206AFAE7D4E901214D
:1013900015F8010B9047761EF8D22046FFF784F827
:1013A000BDE8F0814E414E006E616E00494E460030
:1013B000696E66002DE9F047814616468AB03548C9
:1013C00078440DC88DE80D0032487844801C03AC89
:1013D0000DC884E80D0041F69B300844372190FB8E
:1013E000F1F290FBF1F5A5F1800501FB12041B3C25
:1013F00002D56442012000E00020DFF898A080467A
:101400000027FA44AAF1BE0A0EE0E0070AD03246ED
:10141000684607EB470101230AEB810100F022FB3C
:101420008DE8070064107F1C002CEED1194F7F441B
:10143000AE3F19E0E80715D007EB04100DF1180ACC
:1014400090E80E008AE80E00C068F04201D19819B9
:1014500008903246012306A903A800F003FB03AB62
:1014600083E807006D10641C002DE3D14FF00103E9
:1014700032466946B8F1000F03A802D000F0DDFA49
:1014800001E000F0EFFAC9E90001C9F808200AB04C
:10149000BDE8F0879C26000010B50446AFF300803D
:1014A0002046BDE81040FEF70EBF00000048704720
:1014B000BC0100204FF0013C50F8042B51F8043BD4
:1014C0009A4221D1A2EB0C03934313EACC1317D118
:1014D00050F8042B51F8043B9A4215D1A2EB0C03AF
:1014E000934313EACC130BD150F8042B51F8043B6F
:1014F0009A4209D1A2EB0C03934313EACC13DBD03D
:101500004FF00000704700BFD01A01BAB1FA81F164
:1015100001F0180122FA01F0CB40C1F12001DBB249
:10152000C0B2C01A2CFA01F3D11A914311EAC311C7
:10153000E6D1704701491820ABBEFEE72600020045
:1015400070475FEA400C08BF91F0000F4FEA8C2310
:101550004FEAC12243EA51514FEA1C5018BF00F52F
:10156000F0404FEA300018BF41F000415FEA6C5C88
:1015700000F02980BCF1FF3F08BF40F08040704779
:10158000130C06BF12044FF0100C4FF0000C130E9A
:1015900004BF12020CF1080C130F04BF12010CF16E
:1015A000040C930F04BF92000CF1020CD30F04BF84
:1015B00052000CF1010C11464FF00002A0F11F0087
:1015C000A0EB0C00704711F0004F08BF704731F0DE
:1015D00000413FF4D5AF0B0C06BF09044FF0100CCF
:1015E0004FF0000C0B0E04BF09020CF1080C0B0F9E
:1015F00004BF09010CF1040C8B0F04BF89000CF12E
:10160000020CCB0F04BF49000CF1010CCCF12003FC
:10161000A0EB0C0022FA03F302FA0CF241EA0301F8
:1016200000F10100704720F07F4C80EA030023F0B6
:101630007F47ACEB070303F57C5300F0004003F158
:10164000FF032DE980494FEA154B09B44FEA1443D3
:1016500025EA0B4E24EA03480FF2042606EB132773
:1016600049083E785FEA320203FB0667C7F50007C8
:1016700007FB06F64FEA54374FEAD64606F1020654
:1016800007FB066CCCF1005C4FEA1C472CEA074CC8
:1016900007FB06F40CFB06F504EB15464FEA96161D
:1016A00034BF00204FF000404FEAD13706FB07FC63
:1016B0004FEA1C4C0CFB0BF7D21B03FB0CF761EB46
:1016C00007010CFB0EF7B0EB074072EB17420CFB67
:1016D00008F734BFA2EB0742B2EB074261EB1741B8
:1016E0004FEA0C444FEA910706FB07FC4FEA1C4CFB
:1016F0000CFB0BF7B0EBC74072EB573203FB0CF758
:1017000034BFA2EBC742B2EBC74261EB57310CFBCF
:101710000EF7B0EBC70072EB57720CFB08F734BF43
:10172000A2EBC702B2EBC70261EB5771039F4FEA0E
:10173000816141EA921104EBCC044FEAD1374FEAC0
:10174000826206FB07FC42EA90124FEA80604FEA91
:101750001C4C0CFB0BF7D21B03FB0CF761EB0701D6
:101760000CFB0EF7B0EB074072EB17420CFB08F7CF
:1017700034BFA2EB0742B2EB074261EB17414FEADD
:101780008C554FEA910704EB9C2406FB07FC4FEABB
:101790001C4C0CFB0BF7B0EBC74072EB573203FB52
:1017A0000CF734BFA2EBC742B2EBC74261EB573133
:1017B0000CFB0EF7B0EBC70072EB57720CFB08F78F
:1017C00034BFA2EBC702B2EBC70261EB577115EB56
:1017D0004C254FEA816141EA92114FEA82624FEA59
:1017E000D13742EA901206FB07FC44F100044FEAAD
:1017F00080604FEA1C4C0CFB0BF7D21B03FB0CF771
:1018000061EB07010CFB0EF7B0EB074072EB1742E0
:101810000CFB08F734BFA2EB0742B2EB074261EBC7
:10182000174115EB1C154FEA813141EA92414FEA0D
:10183000823242EA90424FEA80304FEA0C7644F11D
:10184000000448EA03434EEA0B484FF0000EB2EBA7
:10185000080C71EB030724BF624639464EEB0E0EAF
:101860004FF0000B0018524149414BEB0B0BB2EB10
:10187000080C71EB03077BF1000B24BF624639466D
:101880004EEB0E0E4FF0000B0018524149414BEB4E
:101890000B0BB2EB080C71EB03077BF1000B24BFC1
:1018A000624639464EEB0E0E51EA020718BF46F06B
:1018B000010616EB0E7655F1000254F1000103D536
:1018C000BDE88901BDE80088BDE88901BDE80048A0
:1018D000B619524141EB0101A3F101037047808029
:1018E0007F7E7D7C7B7A797877767675747372717A
:1018F00071706F6E6E6D6C6C6B6A6A696868676632
:1019000066656464636362616160605F5F5E5E5DC3
:101910005D5C5C5B5B5A5A59595858575756565537
:1019200055555454535352525251515050504F4F99
:101930004F4E4E4D4D4D4C4C4C4B4B4B4A4A4A49E9
:10194000494948484847474747464646454545442C
:101950004444444343434342424242414141002BB9
:101960009C4630D477002BD01CB54FEA370703B420
:101970004FF010004FF01001BAF1000F06D0BCF18B
:10198000000FDCBF40F0080040F008014FF00000FD
:101990000FBCBDE810400BF1010BBBF1010F08BFFC
:1019A0005FEA170722BF12F1010211F101014FF0A6
:1019B000004143F1000300F0004043EA000070479B
:1019C000F9D35708D0E746EA064613F1400F4FEA2D
:1019D00016461FDD13F1200FDFBF16430A46002114
:1019E00020335B42BED0C3F1200746EA064602FA26
:1019F00007F74FEA164646EA0706C3F1200722FA20
:101A000003F201FA07F721FA03F14FF0000342EA6B
:101A10000702A7E746EA020646EA06464FEA1646E6
:101A200046EA0106BCBF46EA0646360C4FF0000304
:101A30004FF000024FF0000194E72DE9804C9A46E8
:101A4000934670B491E8380007C831EA400C48BFAB
:101A500034EA430C03D5FFF7E6FDFFF780FFF0BC47
:101A6000BDE8008C2DE9804C9A46934670B491E80D
:101A7000380007C810F0804F08BF13F0804F03D123
:101A800000F005F8FFF76BFFF0BCBDE8008C20F01C
:101A90007F4780EA030023F07F4C07EB0C03A3F59C
:101AA0007C5300F00040A3F1FE0392F0000F00F021
:101AB000B38095F0000F00F077802DE901494FEADF
:101AC00011404FEA144621EA004800FB06FC24EAD4
:101AD000064708FB06F607FB08F800FB07F718EBBC
:101AE00006484CEB164C4FEA124B18EB07484FEAEE
:101AF00015464CEB174022EA0B4E0BFB06FC25EA81
:101B000006470EFB06F607FB0EFE0BFB07F71EEB68
:101B1000064E4CEB164C4FF000061EEB074E4CEBFE
:101B2000174B18EB0B0840F1000018EB0E0B58EBAD
:101B3000000840F100008F1A4FF000013CBFC9437C
:101B4000661B14BFB5EB040C00213CBFC943F61B58
:101B50004FEA17444EEA8E0E27EA04454FEA1C4727
:101B600004FB07622CEA074C05FB07F70CFB05F6A4
:101B700004FB0CFC16EB074642EB174216EB0C4637
:101B800042EB1C421BEB060658EB0202414146EABF
:101B90009E0601D5BDE80189B619524141EB01010C
:101BA000A3F10103BDE801894FEA14454FEA11474B
:101BB00024EA054621EA074C05FB07F406FB07F774
:101BC0000CFB06F105FB0CFC11EB074144EB174441
:101BD0004FEA124711EB0C4144EB1C4422EA074C3C
:101BE00005FB07F206FB07F70CFB06F605FB0CFCF2
:101BF00016EB074642EB174216EB0C4642EB1C4530
:101C00006A1854F1000148BF7047B619524141EBC0
:101C10000101A3F10103704795F0000F37D04FEA9F
:101C200011424FEA144721EA024624EA074C02FB1C
:101C300007F106FB07F70CFB06F402FB0CFC14EBA8
:101C4000074441EB17414FEA154714EB0C4441EBB5
:101C50001C4125EA074C02FB07F506FB07F70CFBC6
:101C600006F602FB0CFC16EB074645EB174516EB98
:101C70000C4645EB1C42121951F1000148BF704758
:101C8000B619524141EB0101A3F1010370474FEA3C
:101C900014454FEA114724EA054621EA074C05FBA3
:101CA00007F106FB07F70CFB06F24FF0000605FBF9
:101CB0000CFC12EB074241EB174112EB0C4251EBCB
:101CC0001C4148BF7047921841EB0101A3F1010389
:101CD0007047FEE7014800F0B9B800005C01002041
:101CE000014800F0B3B80000FC0000200168182390
:101CF000CAB2103AB2FBF3F2054B6FF30901032AA3
:101D00009B5CC36500D9091D8165084670470000CA
:101D10005A39000810B5014600208B698A6A4FF0D5
:101D2000C07453B1B3F5005F15D072B1012A0CD065
:101D3000022A0AD0032A09D104E01AB1012A06D0E6
:101D4000022A03D1C96AC90100D5012010BDC96AA0
:101D5000A142FAD010BD002AF7D0012AF2D0022AFF
:101D6000F3D0032AF3D010BD30B50468256825F4FC
:101D700080252560046863608368402B036803D076
:101D800099600068C26030BD9A600068C16030BD73
:101D9000704772B6FEE72DE9F0410446876D00F00A
:101DA000DFFA064694F835000025022806D0802088
:101DB000606584F834500120BDE8F0812068016836
:101DC00021F0160101602068416921F08001416124
:101DD000206C08B9A06C20B12068016821F00801CE
:101DE00001602068016821F0010101600CE000F051
:101DF000B7FA801B052807D920206065032084F8E6
:101E0000350084F83450D7E720680068C007EED169
:101E100094F85C103F208840B860012084F83500B9
:101E200084F834500020C7E790F83510022903D019
:101E30008021416501207047052180F83510006838
:101E4000016821F001010160002070472DE9F8438D
:101E500004464FF00009CDF8009063484FF4165146
:101E6000A56D0068B0FBF1F72E6894F85C100820AF
:101E700000FA01F131420FD021680A6852070BD5F0
:101E80000A6822F004020A6094F85C108840A86096
:101E9000606D40F00100606594F85C104FF001083F
:101EA00008FA01F0304208D021684969090604D5D2
:101EB000A860606D40F00200606594F85C1004203A
:101EC0008840304208D021680968890704D5A86095
:101ED000606D40F00400606594F85C10102088404C
:101EE000304218D021680968090714D5A860206815
:101EF0000168490304D50068000308D5A16C07E018
:101F00000168C90503D4016821F008010160216C52
:101F100009B12046884794F85C1020208840304260
:101F200031D021680968C9062DD5A86094F835001C
:101F300005282068016806D0490347D500680003DA
:101F40001DD4616C1CE021F016010160206841691C
:101F500021F080014161206C08B9A06C20B120689B
:101F6000016821F00801016094F85C103F2088406E
:101F7000A86084F8358084F83490216D1FE0E16B0F
:101F800009B120468847606D00282BD0606DC007DE
:101F900014D0052084F835002068016821F0010183
:101FA00001600098401C0090B84203D82068006887
:101FB000C007F6D184F8358084F83490E16C0029AC
:101FC00010D001B02046BDE8F04308470168C905BC
:101FD000D5D4016821F01001016084F8358084F8BF
:101FE0003490CCE7BDE8F883100000202DE9F041E3
:101FF000044600F0B5F906465CB1022084F83500CD
:10200000002584F834502068016821F00101016046
:102010000DE00120BDE8F08100F0A2F9801B052849
:1020200005D920206065032084F83500F2E7206898
:102030000068C007F0D12268116820480140D4E947
:1020400001031843D4E90336334318436369184343
:10205000A3691843E3691843236A18430843616A74
:10206000042903D1D4E90B131943084310602068F5
:102070004069666A20F0070130460E4301270428B4
:102080000CD1A06A0643E06A40B12046FFF742FE49
:1020900020B14020606584F83570BAE72068466159
:1020A0002046FFF723FE94F85C203F219140816099
:1020B000656584F835700020ACE700003F8010F0C3
:1020C0002DE9F0410446866D90F834000025012882
:1020D0000DD0012084F8340094F835700020012FD1
:1020E00007D084F8340002252846BDE8F08102209C
:1020F000FBE7022784F8357060652046FFF734FE61
:1021000094F85C103F208840B0602068016841F07E
:1021100016010160206C20B12068016841F00801BF
:1021200001602068016841F001010160DCE7000006
:1021300070B5044600F014F90546601C02D004484E
:102140000078044400F00CF9401BA042FAD370BDA3
:10215000040000202DE9F84FDFF8BCA10022012582
:1021600003264FF00F090AF1040BAAF1040E00BF79
:102170000B6805FA02F42340A34270D10F7907F0EF
:102180000307012F01D0022F16D187684FEA4208BA
:1021900006FA08FC27EA0C07D1F80CC00CFA08FC78
:1021A0004CEA070CC0F808C04768A7430C79C4F391
:1021B000001494403C4344600C79E443A4070AD0E3
:1021C000C4684FEA420C06FA0CF7BC438F6807FA62
:1021D0000CF72743C7600C7904F00304022C12D1DA
:1021E000D40800EB840CDCF820405707FF0E09FAF6
:1021F00007F824EA0804D1F8108008FA07F848EA3A
:102200000408CCF8208004684FEA420C06FA0CF768
:10221000BC430F7907F0030707FA0CF72743076061
:102220004C6814F4403F70D03C4C276847F480471A
:102230002760246822F0030704F480440094384C9B
:1022400007EB040CDCF8084897074FEA177809FAFF
:1022500008F7BC43334FB84202D1002724E054E0D2
:10226000314FB84201D101271EE0304FB84201D1B1
:10227000022719E02E4FB84201D1032714E02D4F59
:10228000B84201D104270FE02B4FB84201D10527F6
:102290000AE02A4FB84201D1062705E0284FB8428C
:1022A00001D1072700E0082707FA08F72743CCF8F1
:1022B0000878DAF800405746D1F804C09C435FEA3A
:1022C000CC2C00D51C433C60DBF800405F46D1F8C5
:1022D00004C09C435FEA8C2C00D51C433C60DEF8B4
:1022E00000407746D1F804C09C435FEA8C3C00D59F
:1022F0001C433C60084F083F3C68D1F804C09C4335
:102300005FEACC3C00D51C433C60521C102AFFF411
:102310002FAFBDE8F88F0000083C01404438024070
:10232000003001400000024000040240000802406A
:10233000000C02400010024000140240001802404D
:10234000001C0240426921EA02030A4043EA0241BA
:10235000816170470AB1816170470904FBE70000A1
:10236000014880687047000004000020024881682E
:102370000278114481607047040000200B4810B5BA
:10238000016841F400710160016841F480610160FD
:10239000016841F480710160032000F06FF80F20A4
:1023A00000F006F800F024F8002010BD003C0240C8
:1023B00070B50D4D04464FF47A712878B1FBF0F0FA
:1023C0000A490968B1FBF0F000F00CFB48B9102C89
:1023D00007D200222146501E00F030F800206C6029
:1023E00070BD012070BD000004000020100000201E
:1023F0000A4808B5016841F480410160006800F4B2
:10240000804000900548001F016841F08051016044
:10241000006800F08050009008BD00004438024081
:10242000002809DB00F01F020121914040098000D3
:1024300000F1E020C0F8001170470000F0B40E4B2E
:102440001B680C46C3F30223C3F10705042D00D912
:102450000425191D072901D2002300E0DB1E0126F7
:1024600006FA05F1491E214099409E40761E16400D
:102470003143F0BC01F063B90CED00E0064900F017
:10248000070208684FF6FF03184040EA0220034A9B
:1024900010430860704700000CED00E00000FA05F2
:1024A0002DE9F0470E46050065D0DFF81481D8F815
:1024B0000000F7B200F00700B04207D288F80070C1
:1024C000D8F8000000F00700B04254D128683D4C15
:1024D000810712D5400703D5206840F4E050206002
:1024E0002878000703D5206840F460402060206809
:1024F000A96820F0F000084320602878C0072DD09C
:10250000304968680839012812D0022813D00328FE
:1025100011D00968890700292DDA216821F003010B
:1025200001432160FFF71CFF814641F2883A0EE02B
:1025300009688903EFE709688901ECE7FFF710FFF5
:10254000A0EB0901514502D90320BDE8F0872068BE
:10255000696800F00C00B0EB810FEFD1D8F80010E3
:10256000404601F00701B14207D90770006800F04A
:102570000700B04201D00120E7E72878400705D5E1
:102580002068E96820F4E0500843206028780007BC
:1025900006D52068296920F4604040EAC100206027
:1025A00000F038F82168084AC1F30311515CC840B3
:1025B0000649086006480068FFF7FAFE0020C4E7F5
:1025C000003C024008380240623900081000002038
:1025D000080000200448054900680968044AC1F35E
:1025E0008221515CC840704710000020083802402A
:1025F000723900080448054900680968044AC1F3B3
:102600004231515CC8407047100000200838024039
:1026100072390008154810B5006810F00C02144813
:1026200013D01449042A0FD0082A0ED10F4C241FAE
:102630002268236802F03F025B0207D52068C0F3DE
:102640008810A0FB010106E0084610BD2168C1F317
:102650008811A1FB00010023FDF75CFE2168C1F396
:102660000141491C4900B0FBF1F010BD083802409F
:102670000024F40040787D012DE9F84F04006ED06D
:102680002078DFF84C93C007A9F104054AD009F17E
:1026900004000168C1F38101012908D00068C0F37A
:1026A000810002280AD1D9F80000400206D5286826
:1026B000800337D560680028E1D033E06068B0F56A
:1026C000803F10D0B0F5A02F286810D020F48030C3
:1026D0002860286820F4802028606068A8B1FFF78F
:1026E0003FFE06460DE0286840F48030F4E740F4F1
:1026F00080202860F7E700BFFFF732FE801B6428C8
:1027000073D828688003F7D50CE0FFF729FE06464A
:1027100005E000BFFFF724FE801B6428F0D828687E
:102720008003F7D42078DFF8AC8280074FF0000AEE
:102730003ED5A748001D016811F00C0F08D00068B5
:10274000C0F3810002280BD1D9F80000400207D461
:102750002868800716D5E068012800D112E033E12F
:10276000E068B8B10120C8F80000FFF7F9FD06469F
:1027700005E000BFFFF7F4FD801B0228C0D82868E1
:102780008007F7D52868216920F0F80040EAC100E9
:1027900028600DE0C8F800A0FFF7E2FD064604E05F
:1027A000FFF7DEFD801B02281FD828688007F7D4BA
:1027B0002078000722D5864F87486169703771B14C
:1027C00001210160FFF7CCFD064604E0FFF7C8FDDC
:1027D000801B022809D838688007F7D50EE0C0F8BA
:1027E00000A0FFF7BDFD064605E082E0FFF7B8FD5B
:1027F000801B02287DD838688007F7D420784007EE
:1028000068D5DFF8CCB100270BF13C0BDBF80000FA
:10281000C0000BD4DBF8001041F08051CBF8001061
:10282000DBF80000012700F0805000906B4E30680C
:10283000C00510D4306840F480703060FFF790FD20
:10284000009005E0FFF78CFD0099401A022850D84F
:102850003068C005F6D55E4EA0686C3601280FD0F2
:102860000528306810D020F001003060306820F07A
:1028700004003060A068B8B1FFF772FD00900FE06F
:10288000306840F00100F4E740F004003060F7E702
:10289000FFF766FD0099411A41F28830814266D8FF
:1028A00030688007F4D50EE0FFF75AFD009007E08E
:1028B000FFF756FD0099411A41F28830814256D8FF
:1028C00030688007F4D42FB1DBF8001021F080517C
:1028D000CBF80010A069C8B33D49091D0968C1F3D0
:1028E000810102294AD00228504607D0C8F860006A
:1028F00000E03CE0FFF734FD04463BE04746C8F803
:102900006000FFF72DFD064605E000BFFFF728FD3C
:10291000801B02282BD828688001F7D4D4E907014E
:102920000843A16A2E4A490802EB0141626A41EA62
:102930008211084394F82C1040EA0161C9F8001094
:1029400001203866FFF70CFD044606E03EE000BFBC
:10295000FFF706FD001B022809D828688001F7D57B
:1029600034E000BFFFF7FCFC001B022802D9032063
:10297000BDE8F88F28688001F4D427E00128F7D05B
:10298000D9F80000E26900F4800191421CD1226A6A
:1029900000F03F01914217D147F6C071626A0140D1
:1029A000B1EB821F10D1A26A4FF0FF3300F4403127
:1029B00003EB5202B1EB024F06D194F82C1000F059
:1029C0007060B0EB016F01D00120D1E70020CFE7AC
:1029D0000438024000004742800E47420070004029
:1029E0000000FFFF10B5401EB0F1807F01D3012031
:1029F00010BD4FF0E02460610F21601700F09FFED2
:102A00000020A06107202061002010BD38B50446D9
:102A100090F84200202801D0022038BD51B14AB1BF
:102A20000120206300206063204600F013FE216B2C
:102A3000012901D0012038BD21680A684968009148
:102A400021680C3151E8002F42F0100241E80023C8
:102A5000002BF5D138BD000038B5324988422DD160
:102A6000314C4FF480612046FFF76CFCE1142046A6
:102A7000FFF768FC2D4D2868016821F00101016015
:102A8000286801682B4C0B0329494FF0200216D40B
:102A90004368C3F12003DBB20B7042602868016811
:102AA00041F400210160122B03D12146A1F1400025
:102AB00018E02868016841F00101016038BD036831
:102AC0001B03FBD54368C3F12003DBB20B704260EC
:102AD0002868016821F400210160122BE9D1154911
:102AE000A1F1200000F07EFEB4F906000090B4F9D8
:102AF0000430B4F90220B4F900100FA000F0CCFEAD
:102B0000E07C0090A37CB4F90E20B4F90C1014A062
:102B100000F0C2FEE37AA27AA18A1CA000F0BCFEFB
:102B2000C7E70000B4000020001C02405C01002048
:102B300000000020540000205243204368303A2017
:102B400025642C204368313A2025642C20436832C8
:102B50003A2025642C204368333A2025640D0A006E
:102B60004D6F75736520583A2025642C20593A2002
:102B700025642C205072657373204C3A2025642CF8
:102B800020523A2025640D0A000000004B65793A76
:102B9000203078253034582C2053776974636820AE
:102BA0004C3A2025642C20523A2025640D0A0D0A47
:102BB0000000000070470000F8B50168044608688E
:102BC000CA684B6910F00F0F4FF0000559D003F0A1
:102BD000010602F49077374365D0C10705D0D105CF
:102BE00003D5616C41F001016164410705D5D90746
:102BF00003D0616C41F002016164810705D5D907FA
:102C000003D0616C41F004016164010707D502F053
:102C10002001314303D0616C41F008016164616CB3
:102C200000293AD0800604D5900602D5204600F04F
:102C30002AFC20684069616CC0F38010090700D449
:102C400060B3204600F0EAFB20684069400621D5C9
:102C50002068143050E8001F21F0400140E80012C5
:102C6000002AF5D1E06BA8B172490165E06BFFF76E
:102C7000DBF8002811D0E06B016D01B0BDE8F04039
:102C8000084783060FD593060DD52046BDE8F840CA
:102C900000F0F9BB2046FFF78DFFF8BD2046FFF797
:102CA00089FF6564F8BD266B2023012E7ED1C60600
:102CB0007CD5D6067AD508684868009048694FF0F8
:102CC000020640064DD5E26B106840684FF48077ED
:102CD0000004000C3AD0A18D814237D9E085D0693B
:102CE000B8422DD020680C3050E8001F21F48071CC
:102CF00040E80012002AF5D12068143050E8001F87
:102D000021F0010140E80012002AF5D120681430BA
:102D100050E8001F21F0400140E80012002AF5D1E0
:102D200084F84230256320680C3050E8001F21F001
:102D3000100140E80012002AF5D1E06BFFF72BF8F4
:102D40006663A08DE18D401A81B206E0A18D8142BB
:102D5000A8D1D069B842A5D166632046FFF77CFEB2
:102D6000F8BDA08DE18D401A81B2E08D0028F7D02A
:102D70000029F5D020680C3050E8002F22F4907222
:102D800040E80027002FF5D12068143050E8002FCC
:102D900022F0010240E80027002FF5D184F84230EC
:102DA000256320680C3050E8002F00E006E022F098
:102DB000100240E80023002BF3D1CDE705062BD508
:102DC000150629D594F841002128C9D1A068B0F58D
:102DD000805F01D12069B0B1206A411C2162216865
:102DE00000784860E08C401E0004000CE084B7D1FD
:102DF0002068C16821F08001C1602068C16841F08D
:102E00004001C160F8BD206A0088C0F30800486036
:102E1000206A801C2062E5E74006F3D55006F1D514
:102E2000CA68204622F04002CA6084F8413000F0AF
:102E30001BF9F8BDD532000870B5040004D094F831
:102E40004100002510B106E0012070BD84F840501B
:102E5000204600F023F8242084F841002068C1684F
:102E600021F40051C160204600F06EFB206801692A
:102E700021F4904101612068416921F02A014161FA
:102E80002068C16841F40051C1606564202084F865
:102E9000410084F842006563002070BD2DE9F043D5
:102EA00087B0064614216846FDF7BEFADFF810C168
:102EB00002223168002443480323072597064FF474
:102EC00080684FF44039614538D13E491431D1F81A
:102ED00000C04CF0100CC1F800C0096801F01001EE
:102EE0000591016841F0020101600068694600F047
:102EF00002000590C0208DE81500CDE90335324869
:102F0000FFF728F9324D3148E5E802074020A5E8EF
:102F100011012F4845F81449AC61C5E907496C62B5
:102F2000FFF764F808B1FEF734FFB56300221146DD
:102F30002520AE63FFF782FA25203CE0DFF894C03D
:102F400061453AD11F491031D1F800C04CF4802CB2
:102F5000C1F800C0096801F480210591016841F0C1
:102F6000040101600068694600F0040005904FF418
:102F700040608DE81500CDE903351748FFF7EAF802
:102F8000134D164860352860C5E90174C5E903484A
:102F90006C61AC61C5E9074928466C62FFF726F809
:102FA00008B1FEF7F6FEF563002211462720AE6356
:102FB000FFF744FA2720FFF733FA07B0BDE8F083A4
:102FC000001001403038024000040240B864024062
:102FD000FC00002000480040000802402860024039
:102FE0007047704770B5044690F84100202801D022
:102FF000022070BD01B3FAB12162A284E2840020F4
:103000006064212384F84130A56B144BEB63A56BFE
:10301000134B2B64A56B134BEB64A36B18652068F3
:103020001346A56B021D2846FFF74AF830B1102061
:103030006064202084F84100012070BD21686FF099
:10304000400008602068143050E8001F41F0800103
:1030500040E80012002AF5D1002070BDD1330008ED
:1030600013340008E33200080349884202D10349BF
:1030700000204870704700006C0000200000002015
:103080007047FEE7114808B5016841F4800101600E
:10309000016801F480010091016841F400110160B0
:1030A0000068002200F40010009011460C20FFF789
:1030B000C5F90C20FFF7B4F9002211464620FFF7AE
:1030C000BDF9BDE808404620FFF7AAB930380240F4
:1030D00070B586B014216846FDF7A6F91A48002598
:1030E000016841F001010160016801F001010591F1
:1030F000016841F002010160016801F002010591DF
:10310000016841F004010160016801F004010591CA
:10311000016841F08001016000680C4E00F0800001
:103120004FF440640590012221463046FFF712F922
:103130000121CDE90041CDE9021569463046FFF78E
:1031400009F806B070BD000030380240001C024093
:103150000C4810B50A4901604FF4E131416000218B
:1031600081600C22C160C0E904128161C161FFF776
:1031700063FE002803D0BDE81040FEF70ABE10BD74
:10318000001001406C0000200C4810B50A49016095
:103190004FF4E1314160002181600C22C160C0E93F
:1031A00004128161C161FFF747FE002803D0BDE82A
:1031B0001040FEF7EEBD10BD00480040B4000020F6
:1031C000FEE7FEE77047000030B5144B1C686569E8
:1031D00045F0400565611B685C6944F010045C6162
:1031E0000F4B1C68256825F0010525601C682568C3
:1031F000ED07F7D11D680B4CAC601C68E0601868E7
:103200000161186842601868016841F4802101601A
:103210001868016841F00101016030BDB400002070
:103220005C010020044800407047FFF79FB8000091
:1032300030B593B030216846FDF7F6F814210CA89C
:10324000FDF7F2F81D480025016841F0805101604A
:10325000006800F0805011901948016841F48041E5
:1032600001600068022400F4804011900120039066
:1032700010200490009406940820CDE90750A8205F
:10328000CDE9090404200B906846FFF7F5F908B171
:1032900072B6FEE70CA90F2081E831004FF4A05070
:1032A0000F904FF48050109005210CA8FFF7F8F80C
:1032B000002801D072B6FEE713B030BD403802409E
:1032C000007000400248016841F4700101607047DD
:1032D00088ED00E010B5806B0021C185FFF76AFC26
:1032E00010BD70B5846B2068406994F84110C0F33C
:1032F000C0100025212904D118B1E584204600F032
:10330000B4F82068406994F84210C0F38010222974
:1033100004D118B1E585204600F080F8606C40F0DB
:10332000100060642046FFF745FC70BD10B50146F3
:10333000806B096809684FF00002C9052ED4C28568
:1033400001680C3151E8003F23F4807341E80034F8
:10335000002CF5D10168143151E8003F23F001033E
:1033600041E80034002CF5D10168143151E8003FE8
:1033700023F0400341E80034002CF5D1202180F8EF
:103380004210016B012909D101680C3151E8003F5D
:1033900023F0100341E80034002CF5D14263016BA7
:1033A000012902D0FFF71CFE10BD818DFFF754FBF1
:1033B00010BD10B5806B01214163016B012902D062
:1033C000FFF70FFE10BD818D4908FFF745FB10BDCB
:1033D00010B50146806B09680968C90516D400213B
:1033E000C1840168143151E8002F22F0800241E8C5
:1033F0000023002BF5D101680C3151E8002F42F079
:10340000400241E80023002BF5D110BDFFF72CFE50
:1034100010BD10B5806BFFF733FE10BD01680C3195
:1034200051E8002F22F4907241E80023002BF5D1DF
:103430000168143151E8002F22F0010241E8002315
:10344000002BF5D1016B012909D101680C3151E83C
:10345000002F22F0100241E80023002BF5D120219B
:1034600080F8421000210163704701680C3151E877
:10347000002F22F0C00241E80023002BF5D12021CB
:1034800080F84110704708B590F84210222901D009
:10349000022008BD82684FF480539A4201D101692D
:1034A00021B1816A9A421BD04AB10AE00268816A5E
:1034B0005268C2F308020A80816A891C08E0026926
:1034C00072B10268526802F07F020A70816A491C78
:1034D0008162C18D491E0904090CC18503D01BE01E
:1034E00002685268F1E70168CA6822F02002CA60E7
:1034F0000168CA6822F48072CA6001684A6922F0D1
:1035000001024A61202180F8421000214163026BD0
:10351000012A03D0FFF764FD002008BD01630168A4
:103520000C3151E8002F22F0100241E80023002B5B
:10353000F5D101680A68D20602D50A684968009187
:10354000818DFFF789FAE7E770B5044600680169E5
:10355000E26821F44051114301612169A068E269E8
:1035600008436169114308432168CA6849F20C6342
:103570009A430243CA6020684169A26921F44071FC
:103580001143416131492068884202D03049884264
:1035900002D1FFF72FF801E0FFF71CF8E2690023E2
:1035A000192164253226B2F5004F626828D0A0FBAD
:1035B0000101930F9200FCF7ADFE0146B0FBF5F060
:1035C0006FF01802504301EB800006EB0010B0FBD7
:1035D000F5F000F0F002B1FBF5F002EB0012B1FBE8
:1035E000F5F06FF01803584301EB800006EB001074
:1035F000B0FBF5F000F00F0021681044886070BD4A
:10360000A0FB010192185B41FCF784FE0146B0FB70
:10361000F5F00201B1FBF5F06FF01803584301EB30
:10362000800006EBC000B0FBF5F000F0F80002EB04
:103630004002B1FBF5F0584301EB800006EBC000FF
:10364000B0FBF5F000F00700D6E7000000100140E5
:103650000014014038B5816204468285002013467B
:103660006064222284F84220E56B1F4AEA63E56B1E
:103670001E4A2A64E56B1E4AEA64E26B10650A463C
:103680002168E06B091DFEF71BFD30B1102060645E
:10369000202084F84200012038BD2068016840687D
:1036A0000090206948B120680C3050E8001F41F4B8
:1036B000807140E80012002AF5D12068143050E8EB
:1036C000001F41F0010140E80012002AF5D12068F6
:1036D000143050E8001F41F0400140E80012002A79
:1036E000F5D1002038BD00002D330008B3330008A9
:1036F000E33200080148FFF75FBA00006C000020C9
:103700000148FFF759BA0000B4000020FEE703B4F7
:1037100001984100009850EAC12018BF04204A0DCA
:1037200018BF40F0010040F2FF72B2EB515F08BFDA
:1037300040F00200012808BF052002B070470907C9
:10374000090E002804DB00F1E02080F80014704727
:1037500000F00F0000F1E02080F8141D70473038B1
:103760000A2801D20120704700207047FEF706FEAC
:10377000FFF75EFDFFF7ACFCFFF784FCFFF7E8FC0A
:10378000FFF702FD0B492022A1F12000FFF71CFDED
:103790000849202220390848FFF738F9054C203421
:1037A00006A0E37AA27AA18A00F076F8FA20FEF762
:1037B000BFFCF5E734000020B40000204B65793AE7
:1037C000203078253034582C205377697463682072
:1037D0004C3A2025642C20523A2025640D0A0D0A0B
:1037E00000000000F0B5002855D0002953D0027821
:1037F000437842EA0322C2F30A020A8043788478BB
:10380000DB0843EA4413C3F30A034B808478C5788A
:10381000A40944EA8504057944EA8524C4F30A042A
:103820008C80057946796D0845EAC615C5F30A0509
:10383000CD804679C6F301168E724679B609CE72EE
:103840008679C77946EA07268E81067A477A46EA5C
:103850000726CE81867AC77A46EA07260E82067B3D
:103860008E74467BCE74867BC77B46EA07268E82A3
:10387000067C407CA2F580620A80A3F580634B80C1
:10388000A4F5806446EA00208C80A5F58065CD8093
:10389000A0F580600881F0BD0FB40B4800B54078FA
:1038A000C1B000280DD14FF480716846FCF7BCFD13
:1038B00043AA68464299FCF7A5FD81B2684600F02C
:1038C00005F841B05DF814FB0000002010B5064C6F
:1038D0006278002A06D10A4601460448FFF782FBB7
:1038E0000120607010BD0000000000206C0000206E
:1038F00010B500290AD00878002807D00548784478
:10390000FDF7D8FD002801D0002010BD0248784402
:1039100010BD00009A0100009201000010B50029BE
:103920000AD00878002807D005487844FDF7C2FD82
:10393000002801D0002010BD0248784410BD0000CE
:103940008A010000820100004FF04070E1EE100A91
:103950007047FDF7BCB9FDF7F1BA00061016000676
:10396000101600000000000000000102030406071A
:10397000080900000000010203040000000000002C
:1039800000000000303132333435363738394142A7
:1039900043444546403058003031323334353637B1
:1039A000383961626364656640307800040000085D
:1039B0000000000000000002000100001030313261
:1039C0003334353637383961626364656678700040
:1039D0003031323334353637383941424344454645
:1039E0005850000002400000000000A0000000004D
:1039F00005400000000000C8000000000C4000006E
:103A00000000409C00000000194000000020BCBEE7
:103A10000000000034400000BFC91B8E00000004FD
:103A2000B5400000504BCFD06607E2CF0100000048
:103A30006C4100003E8251AADFEEA7340100000075
:103A4000D9420000DCB5A0E23A301F97FFFFFFFF2C
:103A5000B4450000FD25A0C8E9A3C14FFFFFFFFF4B
:103A6000FF3F00000000008000000000FF3F00005A
:103A70000000008000000000C43B0008000000209F
:103A800014000000C4010008D83B00081400002006
:103A90000C080000E00100081C00000043000000CA
:103AA000F8FFFFFF0C0000000E0000000F000000F8
:103AB0002E0000001001000043000000F8FFFFFF8F
:103AC0000040404040404040404041414141414031
:103AD00040404040404040404040404040404040E6
:103AE0004005020202020202020202020202020275
:103AF000022020202020202020202002020202027A
:103B000002029090909090901010101010101010D1
:103B100010101010101010101010101002020202DD
:103B20000202888888888888080808080808080821
:103B3000080808080808080808080808020202021D
:103B40004000000000000000000000000000000035
:103B50000000000000000000000000000000000065
:103B60000000000000000000000000000000000055
:103B70000000000000000000000000000000000045
:103B80000000000000000000000000000000000035
:103B90000000000000000000000000000000000025
:103BA0000000000000000000000000000000000015
:103BB0000000000000000000000000000000000005
:103BC00000000000000000000100000010000000E4
:083BD000000000000024F400D5
:040000050800018965
:00000001FF
