:020000040800F2
:1000000098510020E902000851260008D123000879
:100010004D2600081F060008612E000800000000A1
:10002000000000000000000000000000290200089D
:10003000330700080000000085020008FB260008C6
:100040000303000803030008030300080303000878
:100050000303000803030008030300080303000868
:100060000303000803030008030300080303000858
:100070004506000803030008030300080303000803
:100080000303000803030008030300083506000803
:100090002506000803030008030300080303000803
:1000A0000303000803030008030300080303000818
:1000B0000303000803030008030300080303000808
:1000C00003030008030300080303000803030008F8
:1000D0000303000803030008030300083D2D000884
:1000E00003030008030300080303000803030008D8
:1000F00003030008030300080303000803030008C8
:1001000003030008030300080303000803030008B7
:1001100003030008030300080303000803030008A7
:100120000303000803030008030300080303000897
:100130000303000803030008030300080303000887
:100140000303000803030008030300080303000877
:100150000303000803030008030300080303000867
:100160000303000803030008030300080303000857
:100170000303000803030008030300080000000055
:10018000030300080303000800F002F800F03CF845
:100190000AA090E8000C82448344AAF10107DA45E2
:1001A00001D100F031F8AFF2090EBAE80F0013F0F8
:1001B000010F18BFFB1A43F0010318471C4F000042
:1001C0003C4F0000103A24BF78C878C1FAD85207D3
:1001D00024BF30C830C144BF04680C6070470000C1
:1001E0000023002400250026103A28BF78C1FBD840
:1001F000520728BF30C148BF0B6070471FB504F0DD
:10020000E5FE1FBD10B510BD00F0D0F91146FFF797
:10021000F5FF02F053FE00F0EEF903B4FFF7F2FF32
:1002200003BC00F0F5F900002C4B19680868B0E831
:10023000F04F80F30988BFF36F8F4FF0000080F319
:10024000118870470000000008480068006880F3CB
:1002500008884FF0000080F3148862B661B6BFF3DF
:100260004F8FBFF36F8F00DF00BF00BF08ED00E0CE
:10027000DFF80C00016841F470010160704700BFB5
:1002800088ED00E0EFF30980BFF36F8F134B1A681E
:100290001EF0100F08BF20ED108A20E9F04F10600B
:1002A00009B44FF0500080F31188BFF34F8FBFF3B4
:1002B0006F8F03F087FF4FF0000080F3118809BCB7
:1002C00019680868B0E8F04F1EF0100F08BFB0ECD6
:1002D000108A80F30988BFF36F8F704724000020D5
:1002E000EFF3058070470000094880470948004740
:1002F000FEE7FEE7FEE7FEE7FEE7FEE7FEE7FEE7D6
:10030000FEE7FEE704480549054A064B7047000032
:10031000C927000889010008984B00209851002047
:10032000984D0020984D002053EA020C00F069809F
:100330002DE9F04B4FF00006002B1FBFB3FA83F5F9
:1003400003FA05F424FA05F65E4012BF1643B2FA2A
:1003500082F502FA05F4C5F120051EBF22FA05FC5C
:1003600044EA0C04203556EA044C4FEA144418BF02
:10037000641C4FF000084FF00009904271EB030C31
:1003800039D3002919BFB1FA81F701FA07F6B0FA9B
:1003900080F700FA07F6C7F120071EBF20FA07FC16
:1003A00046EA0C062037B6FBF4FCA7EB0507103F26
:1003B00007F01F0BCBF120060CFA0BFB2CFA06F60C
:1003C00044BFB3460026202FA4BF5E464FF0000B6B
:1003D0005BEA060C08BF4FF0010B19EB0B09ABFBF6
:1003E000027C48EB0608C01B06FB02CC0BFB03CCCF
:1003F00071EB0C01C1E70B46024641464846BDE899
:10040000F08B13B54FF000004FF00001AFF3008008
:10041000BDE81C407047032A40F2308010F0030C06
:1004200000F0158011F8013BBCF1020F624498BF47
:1004300011F801CB00F8013B38BF11F8013BA2F1E4
:10044000040298BF00F801CB38BF00F8013B11F05F
:10045000030300F05780083AC0F0088051F8043BCD
:10046000083A51F804CBA0E80810F5E7121D5CBF6C
:1004700051F8043B40F8043BAFF30080D20724BF9F
:1004800011F8013B11F801CB48BF11F8012B24BF33
:1004900000F8013B00F801CB48BF00F8012B704782
:1004A00002F0FF0343EA032242EA024200F05EB890
:1004B0004FF0000200B5134694469646203922BFFD
:1004C000A0E80C50A0E80C50B1F12001BFF4F7AF48
:1004D000090728BFA0E80C5048BF0CC05DF804EB2A
:1004E000890028BF40F8042B08BF704748BF20F898
:1004F000022B11F0804F18BF00F8012B7047704796
:100500007047704710B5203AC0F00B80B1E8185022
:10051000203AA0E81850B1E81850A0E81850BFF4ED
:10052000F5AF5FEA027C24BFB1E81850A0E818508C
:1005300044BF18C918C0BDE810405FEA827C24BFE0
:1005400051F8043B40F8043B08BF7047D20728BF6E
:1005500031F8023B48BF11F8012B28BF20F8023BBD
:1005600048BF00F8012B70474FF000020429C0F08B
:10057000128010F0030C3FF49DAFCCF1040CBCF1E1
:10058000020F18BF00F8012BA8BF20F8022BA1EB27
:100590000C01FFF78FBF5FEAC17C24BF00F8012B7D
:1005A00000F8012B48BF00F8012B7047754600F09A
:1005B0002BF8AE4605006946534620F007008546F5
:1005C00018B020B5FFF79EFEBDE820404FF00006B2
:1005D0004FF000074FF000084FF0000B21F007012B
:1005E000AC46ACE8C009ACE8C009ACE8C009ACE86E
:1005F000C0098D46704710B50446AFF30080204611
:10060000BDE81040FFF709BE00487047384B002096
:1006100001491820ABBEFEE726000200704700BF6C
:10062000FEE7000010B5024800F052F910BD0000CE
:10063000B000002010B5024800F04AF910BD0000DB
:10064000B000002010B5024800F0EEFB10BD000025
:10065000680100200146087810381823B0FBF3F237
:100660000848805CC865032A05D908686FF309004B
:10067000001D886503E008686FF309008865886DD0
:10068000704700008C500008014600208A6A8B6980
:10069000CBB932B1012A0DD0022A03D0032A10D1DE
:1006A0000EE000BFCB6A03F08073B3F1807F00D10E
:1006B000012007E0CB6AB3F1C07F00D1012001E047
:1006C00000E000BF34E08B69B3F5005F1AD132B1AE
:1006D000012A07D0022A03D0032A11D10AE000BF61
:1006E00001200EE0CB6A03F08073B3F1807F00D16C
:1006F000012006E0CB6AB3F1C07F00D1012000E009
:1007000000BF15E032B1012A05D0022A04D0032A25
:100710000CD103E000BF00BF012008E0CB6A03F06A
:100720008073B3F1807F00D1012000E000BF00BFE3
:100730007047704772B600BFFEE7704770B5044659
:1007400094F82050012D01D0022D7DD151B920689F
:10075000C06800F0030080B9606A40F40010606275
:10076000012070BD2068006900F0030028B9606AAC
:1007700040F4001060620120F3E7206800F5D870B3
:1007800000EB0110006800F004009060906840B930
:10079000206800F5D87000EB01100068400D106073
:1007A00007E0206800F5D87000EB01100068C00871
:1007B0005060206800F5D87000EB0110006800F070
:1007C0000200D060206800F5D87000EB011040688E
:1007D00000F00F00082802D30820106108E020680C
:1007E00000F5D87000EB0110406800F00F001061B8
:1007F000206800F5D87000EB0110406800F47F40DD
:10080000000A9061206800F5D87000EB0110406884
:10081000000C5061206800F5D87000EB0110806872
:100820001870206800F5D87000EB0110806800F4A3
:100830007F40000A5870206800F5D87000EB011066
:10084000806800F47F0000E03CE0000C98702068B5
:1008500000F5D87000EB01108068000ED870206899
:1008600000F5D87000EB0110C0681871206800F521
:10087000D87000EB0110C06800F47F40000A587186
:10088000206800F5D87000EB0110C06800F47F000C
:10089000000C9871206800F5D87000EB0110C0685A
:1008A000000ED87131B92068C06840F02000266879
:1008B000F06005E02068006940F0200026683061A3
:1008C00000204EE7606A40F480206062012048E723
:1008D0002DE9F05F04460025206846692068D0F8BD
:1008E0000490206887682068D0F80CA02068D0F8B1
:1008F00010B02068D0F8188006F00100002855D00C
:1009000007F00100C0B101202168886007F00200F3
:1009100018B1204600F082FA0EE007F0040010B192
:1009200045F4006508E007F0080010B145F4805573
:1009300002E0204600F071FA07F48070C8B14FF46D
:1009400080702168886007F4007018B1204600F0BC
:1009500067FA0EE007F4806010B145F4005508E036
:1009600007F4006010B145F4804502E0204600F035
:1009700056FA07F48030C8B14FF48030216888609F
:1009800007F4003018B1204600F04CFA0EE007F4EE
:10099000802010B145F4004508E007F4002010B1B4
:1009A00045F4803502E0204600F03BFA06F00800EE
:1009B00038B10AF0100020B145F40075102021680C
:1009C000C86006F0040040B10AF0080028B1082011
:1009D0002168C860204600F0B1F906F0020038B185
:1009E0002068C06800F0030010B1204600F0A8F9AC
:1009F00006F0400038B10BF0100020B145F48065DE
:100A000010202168086106F0200040B10BF00800BA
:100A100028B1082021680861204600F0FBF906F0A3
:100A2000100038B12068006900F0030010B12046C2
:100A300000F0F1F906F4003040B109F0100028B1DF
:100A4000102021684860204600F0E6F906F4803066
:100A500040B109F0080028B108202168486020460C
:100A600000F0E1F906F4004088B309F0040078B31F
:100A700006F4807020B108F0010008B145F00105CE
:100A800006F4007020B108F0020008B145F002053C
:100A900006F4806020B108F0040008B145F00405B8
:100AA00006F40060A0B108F0700088B108F0700092
:100AB000402817D006DC10280BD020280CD0302876
:100AC00019D10CE0502810D0602814D110E01DE09E
:100AD00019E045F008050FE045F010050CE045F081
:100AE000200509E045F0400506E045F0800503E0FB
:100AF00045F4807500E000BF00BF2068806920F0E9
:100B00007000216888610420216848602DB1606A06
:100B1000284360622046FFF710FEBDE8F09F70B5E5
:100B200004460CB9012070BD94F8200010B920468D
:100B300000F0B0F82068006840F00100216808600B
:100B400000F002FC05460DE000F0FEFB401B0A2809
:100B500008D9606A40F400306062052084F8200003
:100B60000120E0E72068406800F001000028EBD099
:100B70002068006820F002002168086000F0E4FBB3
:100B800005460DE000F0E0FB401B0A2808D9606A2A
:100B900040F400306062052084F820000120C2E7A4
:100BA0002068406800F002000028EBD1207E012878
:100BB00006D12068006840F080002168086005E0E8
:100BC0002068006820F0800021680860607E0128AD
:100BD00006D12068006840F040002168086005E008
:100BE0002068006820F0400021680860A07E01288D
:100BF00006D12068006840F020002168086005E008
:100C00002068006820F0200021680860E07E01284C
:100C100006D12068006820F010002168086005E017
:100C20002068006840F0100021680860207F0128DB
:100C300006D12068006840F008002168086005E0DF
:100C40002068006820F0080021680860607F0128A3
:100C500006D12068006840F004002168086005E0C3
:100C60002068006820F0040021680860D4E90201CF
:100C7000084321690843616908436168491E0843C4
:100C80002168C86100206062012084F820000020F3
:100C900049E7000010B586B00446142101A8FFF70B
:100CA00007FC23492068884240D100BF0020009003
:100CB0002048006840F000701E490860084600683F
:100CC00000F00070009000BF00BF00BF0020009047
:100CD00018481038006840F00200164910390860C2
:100CE0000846006800F00200009000BF00BF4FF40B
:100CF0004070019002200290002003900320049095
:100D00000920059001A90C4800F024FA00220521D1
:100D1000132000F0ADFB132000F096FB002205210C
:100D2000142000F0A5FB142000F08EFB06B010BDCF
:100D30000064004040380240000402407047000058
:100D400010B58AB00446304884425AD101AB03AA98
:100D500000212046FFF7F2FC0398A0F2012030B1F9
:100D6000012805D0022804D0032847D102E000BFA3
:100D700000BF00BF0398401E244908700846007851
:100D800000EB8000224901EB400040881F490978B0
:100D900001EB81011E4A22F811009DF805009DF823
:100DA000041040EA01201949097801EB810102EBA6
:100DB000410148809DF807009DF8061040EA012097
:100DC0001249097801EB810102EB410188809DF80D
:100DD00009009DF8081040EA01200C49097801EB50
:100DE000810102EB4101C8809DF80A00074909789A
:100DF00001EB810102EB4101087200E000BF00BF7E
:100E000000BF0AB010BD0000B0000020AC00002000
:100E1000B44A00207047704770477047704770476A
:100E20007047704770477047F8B50446002000903F
:100E30008C4800684FF41651B0FBF1F7A56D2E6891
:100E400094F85C1008208840304098B12068006811
:100E500000F0040070B12068006820F004002168F0
:100E6000086094F85C1008208840A860606D40F02D
:100E70000100606594F85C1001208840304068B142
:100E80002068406900F0800040B194F85C100120B7
:100E90008840A860606D40F00200606594F85C10C6
:100EA00004208840304068B12068006800F00200EB
:100EB00040B194F85C1004208840A860606D40F058
:100EC0000400606594F85C1010208840304078B3CE
:100ED0002068006800F0080050B394F85C101020FF
:100EE0008840A8602068006800F4802080B12068F5
:100EF000006800F4002028B9206CC8B12046216C9D
:100F0000884715E0A06C98B12046A16C88470FE097
:100F10002068006800F4807028B92068006820F01C
:100F2000080021680860206C10B12046216C8847B9
:100F300094F85C10202088403040002865D020685C
:100F4000006800F0100000285FD094F85C102020AA
:100F50008840A86094F83500052828D120680068EA
:100F600020F01600216808602068406920F08000A9
:100F700021684861206C08B9A06C28B1206800681D
:100F800020F008002168086094F85C103F20884039
:100F9000A860012084F8350000BF002084F83400E8
:100FA00000BF206D10B12046216D8847F8BD206834
:100FB000006800F4802080B12068006800F4002000
:100FC00028B9606C10B12046616C88471DE0E06B69
:100FD000D8B12046E16B884717E02068006800F42C
:100FE000807068B92068006820F0100021680860EF
:100FF000012084F8350000BF002084F8340000BFD1
:10100000E06B10B12046E16B8847606D38B3606DCE
:1010100000F00100F0B1052084F835002068006878
:1010200020F001002168086000BF0098401C00907B
:10103000B84200D905E02068006800F001000028EF
:10104000F3D100BF012084F8350000BF002084F8F0
:10105000340000BFE06C10B12046E16C884700BF4F
:10106000A4E70000200000202DE9F04104460025FF
:1010700000F06AF9074614B90120BDE8F081606A02
:1010800000B100BF022084F8350000BF002084F8C2
:10109000340000BF2068006820F00100216808606B
:1010A0000AE000F051F9C01B052805D92020606531
:1010B000032084F83500E0E72068006800F00100B4
:1010C0000028EED12068056821480540D4E90101D7
:1010D0000843E16808432169084361690843A1693D
:1010E0000843E1690843216A08430543606A04280C
:1010F00003D1D4E90B01084305432068056020684B
:10110000456925F00705606A0543606A04280DD12A
:10111000A06A0543E06A48B12046FFF7B5FA28B156
:1011200040206065012084F83500A6E7206845610D
:101130002046FFF78FFA064694F85C103F2088405F
:10114000B06000206065012084F83500002094E73D
:101150003F8010F0F8B502460B4600250024002021
:101160000021D6E0012606FA01F51E6806EA05040C
:10117000AC4274D11E7906F00306012E04D01E790C
:1011800006F00306022E13D190684F000326BE40DE
:10119000B0434F00DE68BE40304390605068012687
:1011A0008E40B0431E79C6F300168E403043506027
:1011B0001E7906F00306032E09D0D0684F000326DF
:1011C000BE40B0434F009E68BE403043D0601E79A1
:1011D00006F00306022E13D1CF0802F1200656F8BE
:1011E00027004E07F70E0F26BE40B0434F07FF0EF5
:1011F0001E69BE403043CF0802F1200646F82700A2
:1012000010684F000326BE40B0431E7906F0030667
:101210004F00BE40304310605E6806F44036002E3A
:1012200076D000BF002600963C4E366846F48046D5
:101230003A4F3E603E46366806F48046009600BF50
:1012400000BF374E8F0856F827008E07370F0F263E
:10125000BE40B043334EB24202D1002624E057E0F4
:10126000314EB24201D101261EE0304EB24201D1D0
:10127000022619E02E4EB24201D1032614E02D4E73
:10128000B24201D104260FE02B4EB24201D1052615
:101290000AE02A4EB24201D1062605E0284EB242AB
:1012A00001D1072600E008268F073F0FBE403043DC
:1012B0001B4E8F0846F82700224E3068A0435E6818
:1012C00006F4801606B120431E4E3060361D30688D
:1012D000A0435E6806F4001606B12043194E361D81
:1012E0003060184E361F3068A0435E6806F4003642
:1012F00006B12043134E361F3060361F3068A043BE
:101300005E6806F4803606B120430E4E083E30601B
:10131000491C1029FFF426AFF8BD000044380240F4
:10132000083801400000024000040240000802406A
:10133000000C02400010024000140240001802405D
:10134000001C0240083C0140014800687047000052
:101350001400002003480068034909780844014943
:1013600008607047140000201C00002010B50D48D4
:10137000006840F400700B4908600846006840F4BB
:10138000806008600846006840F4807008600320B0
:1013900000F0ACF80F2000F007F800F02BF8002068
:1013A00010BD0000003C024070B504460E480078B5
:1013B0004FF47A71B1FBF0F00C490968B1FBF0F51C
:1013C000284600F035FC08B1012070BD102C07D272
:1013D00000222146501E00F04BF80548046001E051
:1013E0000120F2E70020F0E71C0000202000002090
:1013F0001800002008B500BF0020009011480068C8
:1014000040F480400F4908600846006800F48040BE
:10141000009000BF00BF00BF00200090081F0068C0
:1014200040F08050091F08600846006800F08050B6
:10143000009000BF00BF00220F21901E00F018F89E
:1014400008BD0000443802400146084600280DDB74
:1014500000BF00BF00F01F0301229A4043099B0018
:1014600003F1E023C3F8002100BF00BF00BF7047B5
:101470002DE9F05F80460D461646002701F0F2FC8C
:10148000074639462A46334601F00700C0F1070AED
:10149000BAF1040F02D94FF0040A01E0C0F1070AC3
:1014A000D14600F1040ABAF1070F02D24FF0000A48
:1014B00001E0A0F1030AD4464FF0010A0AFA09FA42
:1014C000AAF1010A0AEA020A0AFA0CFA4FF0010B21
:1014D0000BFA0CFBABF1010B0BEA030B4AEA0B0412
:1014E0002146404601F0C6FCBDE8F09F00BF00F079
:1014F0000702064B19684FF6FF031940044B0B43D4
:1015000043EA0221014B196000BF70470CED00E077
:101510000000FA0570B504460D460CB9012070BDF7
:101520005848006800F00700A84209D255490D70DC
:101530000846006800F00700A84201D00120EEE74D
:10154000207800F0020002281DD1207800F004006D
:10155000042805D14C48006840F4E0504A4908602E
:10156000207800F00800082805D14748006840F4BA
:101570006040454908604448006820F0F000A168D8
:10158000084341490860207800F00100A8B3606872
:10159000012807D13C4808380068C0F34040B8B97A
:1015A0000120BCE76068022802D06068032807D1E8
:1015B000354808380068C0F3406048B90120AEE7FC
:1015C000314808380068C0F3400008B90120A6E798
:1015D0002D48006820F00300616808432A4908602C
:1015E000FFF7B2FE064609E0FFF7AEFE801B41F2B0
:1015F0008831884202D9032091E707E02248006839
:1016000000F00C006168B0EB810FEDD11D4800685F
:1016100000F00700A84209D91A490D700846006871
:1016200000F00700A84201D0012078E7207800F000
:101630000400042807D11448006820F4E050E16851
:10164000084311490860207800F00800082808D1F4
:101650000D48006820F46040216940EAC1000A4951
:10166000086000F03FF808490968C1F30311074A10
:10167000515CC8400649086006480068FFF794FEC0
:1016800000204CE7003C024008380240945000081B
:10169000200000201800002001480068704700006A
:1016A0002000002000B5FFF7F7FF04490968C1F3E7
:1016B0008221034A515CC84000BD00000838024046
:1016C000A450000800B5FFF7E7FF04490968C1F31B
:1016D0004231034A515CC84000BD00000838024056
:1016E000A45000082DE9F047002400250026A1465B
:1016F0002548006800F00C0020B1042805D0082817
:101700003AD105E0DFF8849039E0DFF8849036E0E4
:101710001D48001F006800F03F041B48001F0068C0
:1017200000F4800078B11A481749091F0968C1F30D
:101730008811A0FB01700146224600233846FEF7BF
:10174000F3FD05460EE011480F49091F0968C1F372
:101750008811A0FB01700146224600233846FEF79F
:10176000E3FD05460848001F0068C0F30140401C27
:101770004600B5FBF6F902E0DFF8109000BF00BFAD
:101780004846BDE8F0870000083802400024F40015
:1017900040787D01F8B504460CB90120F8BD2078E9
:1017A00000F00100002874D0F948006800F00C0037
:1017B00004280DD0F648006800F00C00082813D16A
:1017C000F348001F006800F48000B0F5800F0BD1D3
:1017D000EF4808380068C0F34040002859D06068DE
:1017E000002856D10120D9E700BF6068B0F5803FDE
:1017F00008D1E7480838006840F48030E4490839E7
:1018000008601EE06068B0F5A02F0DD1E0480838F0
:10181000006840F48020DE49083908600846006806
:1018200040F4803008600CE0D9480838006820F4A3
:101830008030D749083908600846006820F48020C5
:10184000086000BF606890B1FFF77EFD054606E0C6
:10185000FFF77AFD401B642801D903209EE7CC489E
:1018600008380068C0F340400028F1D011E0FFF7CD
:101870006BFD054606E0FFF767FD401B642801D9B4
:1018800003208BE7C24808380068C0F340400028B6
:10189000F1D1207800F0020002285FD1BC48006836
:1018A00000F00C0058B1BA48006800F00C0008289D
:1018B0001CD1B748001F006800F48000B0B9B448DC
:1018C00008380068C0F3400020B1E068012801D06A
:1018D000012063E7AE480838006820F0F80021696D
:1018E00040EAC100AA490839086037E0E06800B35F
:1018F0000120A8490860FFF727FD054606E0FFF72D
:1019000023FD401B022801D9032047E7A0480838DF
:101910000068C0F340000028F1D09D4808380068F6
:1019200020F0F800216940EAC100994908390860AF
:1019300014E0002097490860FFF706FD054606E021
:10194000FFF702FD401B022801D9032026E790483B
:1019500008380068C0F340000028F1D1207800F07A
:10196000080008282CD16069A8B101208A490860C4
:10197000FFF7EAFC054606E0FFF7E6FC401B0228FD
:1019800001D903200AE782486C300068C0F34000A8
:101990000028F1D014E000207F490860FFF7D4FC54
:1019A000054606E0FFF7D0FC401B022801D90320C2
:1019B000F4E677486C300068C0F340000028F1D1AD
:1019C000207800F00400042870D1002770483830D7
:1019D000006800F0805090B900BF002000906C4873
:1019E0003830006840F08050694938310860084656
:1019F000006800F08050009000BF00BF01276748DA
:101A0000006800F48070B0B96448006840F48070E9
:101A100062490860FFF798FC054606E0FFF794FC72
:101A2000401B022801D90320B8E65C48006800F496
:101A300080700028F2D000BFA068012808D1544867
:101A40006830006840F001005149683108601DE0CD
:101A5000A06805280DD14E486830006840F00400A9
:101A60004B49683108600846006840F00100086092
:101A70000CE047486830006820F0010044496831B4
:101A800008600846006820F00400086000BFA068F5
:101A9000A8B1FFF759FC054609E0FFF755FC401BCC
:101AA00041F28831884202D9032077E626E038489F
:101AB00068300068C0F340000028EED013E0FFF764
:101AC00043FC054608E0FFF73FFC401B41F288312C
:101AD000884201D9032061E62D4868300068C0F3D0
:101AE00040000028EFD1012F07D129483830006885
:101AF00020F0805026493831086000BFA0690028D6
:101B000045D02348006800F00C0008285DD0A0698B
:101B1000022845D100201F490866FFF715FC05463D
:101B200006E0FFF711FC401B022801D9032035E62F
:101B3000174808380068C0F340600028F1D1D4E9A4
:101B400007010843616A40EA81110122A06AC2EBE1
:101B5000500041EA00412C20005D41EA00600C4940
:101B6000091F086001200B490866FFF7EDFB0546D9
:101B700006E0FFF7E9FB401B022801D903200DE630
:101B8000034808380068C0F340600028F1D049E0FD
:101B90000838024000004742800E47420070004073
:101BA000002021490866FFF7CFFB054606E0FFF756
:101BB000CBFB401B022801D90320EFE51B4800683E
:101BC000C0F340600028F2D12CE0A069012800D1C8
:101BD000E4E51648001D0668A069012820D006F437
:101BE0008001E06981421BD106F03F01206A8142F9
:101BF00016D147F6C0703040616AB0EB811F0FD13B
:101C000006F440310122A06AC2EB5000B1EB004F54
:101C100006D106F070612C20005DB1EB006F01D0A1
:101C20000120BBE50020B9E5000047420038024032
:101C300070B504462546681EB0F1807F01D30120AF
:101C40000FE0681E4FF0E02148610F214FF0FF3098
:101C500001F010F900204FF0E021886107200861B1
:101C6000002070BD30B502460B4600BF92F83C0024
:101C7000012801D1022030BD012082F83C0000BFC4
:101C8000022082F83D00106844681068816824F0E2
:101C900070041868044310684460184D1068A84226
:101CA0001BD01068B0F1804F17D0154D1068A842B6
:101CB00013D0144D1068A8420FD0134D1068A842DD
:101CC0000BD0124D1068A84207D0114D1068A842E1
:101CD00003D0104D1068A84205D121F0800158684A
:101CE000014310688160012082F83D0000BF0020A0
:101CF00082F83C0000BF00BFBDE7000000000140CB
:101D00000004004000080040000C004000040140B6
:101D1000004001400018004010B504460CB90120F5
:101D200010BD94F83D0028B9002084F83C002046FE
:101D300000F026F8022084F83D00211D206800F004
:101D40004DFD012084F8460000BF84F83E000121CB
:101D50003F200155402001554120015500BF00BFE3
:101D6000012084F8420043200155442001554520BC
:101D7000015500BF012084F83D000020D0E700009D
:101D800008B50A4A016891420FD100BF00210091B5
:101D90000749096841F00201054A116011460968C6
:101DA00001F00201009100BF00BF08BD0004004027
:101DB00040380240014691F83D00012801D0012041
:101DC0007047022081F83D000868C06840F00100BB
:101DD0000B68D8601A4B086898421BD00868B0F1AD
:101DE000804F17D0174B0868984213D0164B0868DD
:101DF00098420FD0154B086898420BD0144B0868D6
:101E0000984207D0134B0868984203D0124B0868D9
:101E100098420CD10868806800F00702062A0CD0AE
:101E20000868006840F001000B68186005E0086869
:101E3000006840F001000B6818600020C0E7000057
:101E4000000001400004004000080040000C004079
:101E50000004014000400140001800402DE9F0411D
:101E600004460D46002700BF94F83C00012802D12B
:101E70000220BDE8F081012084F83C0000BF022070
:101E800084F83D002068866826F0770626F47F46B1
:101E9000206886602868502833D00CDC202850D079
:101EA00004DC00284BD0102851D149E0302849D01B
:101EB00040284CD139E060282DD0702807D0B0F5EB
:101EC000805F03D0B0F5005F41D10DE041E0D5E97E
:101ED00002136A68206800F002FD2068866846F0F8
:101EE00077062068866034E0D5E902136A682068C6
:101EF00000F0F5FC2068806840F48040216888602C
:101F000027E0EA686968206800F0DAFD502120685F
:101F100000F0F0FC1DE0EA686968206800F0E3FD6D
:101F20006021206800F0E6FC13E0EA686968206838
:101F300000F0C6FD4021206800F0DCFC09E000BF95
:101F400000BF00BF2968206800F0D4FC01E0012731
:101F500000BF00BF012084F83D0000BF002084F8CE
:101F60003C0000BF384684E710B586B00446142113
:101F700001A8FEF79DFA1F492068884238D100BFAA
:101F8000002000901C48006840F002001A490860D8
:101F90000846006800F00200009000BF00BF00BFCC
:101FA000002000900846006840F0040008600846E1
:101FB000006800F00400009000BF00BF10200190F6
:101FC000022002900020039004900220059001A9B5
:101FD0000A48FFF7BFF880200190022002900020FD
:101FE000039004900220059001A90548FFF7B2F87C
:101FF00006B010BD0004004030380240000402402A
:10200000000802402DE9F04104460D46164600271F
:1020100000BF94F83C00012802D10220BDE8F08105
:10202000012084F83C0000BF36B1042E1BD0082EDE
:1020300031D00C2E5ED145E02946206800F064FCCA
:102040002068806940F00800216888612068806904
:1020500020F00400216888612068806929690843AC
:102060002168886148E02946206800F085FC2068E6
:10207000806940F40060216888612068806920F4EC
:1020800080602168886120688069296940EA0120B0
:102090002168886130E02946206800F0ABFC2068A8
:1020A000C06940F008002168C8612068C06920F05C
:1020B00004002168C8612068C06929690843216853
:1020C000C86119E02946206800F0D0FC2068C0698A
:1020D00040F400602168C8612068C06920F4806015
:1020E0002168C8612068C069296940EA0120216827
:1020F000C86101E0012700BF00BF00BF002084F8D5
:102100003C0000BF384689E710B504460CB90120F1
:1021100010BD94F83D0028B9002084F83C0020460A
:1021200000F025F8022084F83D00211D206800F011
:1021300055FB012084F8460000BF84F83E000121D1
:102140003F200155402001554120015500BF00BFEF
:10215000012084F8420043200155442001554520C8
:10216000015500BF012084F83D000020D0E77047F2
:1021700070B504460D4615B994F83E000BE0042DE9
:1021800002D13F20005D06E0082D02D14020005D15
:1021900001E04120005D012801D0012070BD1DB982
:1021A000022084F83E000EE0042D03D102213F20DE
:1021B000015508E0082D03D102214020015502E01D
:1021C00002214120015501222946206800F076FBBA
:1021D00023492068884203D022492068884201D1DF
:1021E000012000E0002028B12068406C40F400404D
:1021F000216848641A49206888421BD02068B0F1E1
:10220000804F17D018492068884213D0174920689A
:1022100088420FD01649206888420BD011492068A7
:10222000884207D013492068884203D012492068A9
:1022300088420CD12068806800F00706062E0CD07A
:102240002068006840F001002168086005E020680F
:10225000006840F001002168086000209EE700004F
:10226000000001400004014000040040000800405C
:10227000000C0040004001400018004010B504462A
:102280000CB9012010BDA06900B100E000BF94F8B6
:10229000410028B9002084F84000204600F02AF8C8
:1022A000242084F841002068C06820F40050216890
:1022B000C860204600F02CFC2068006920F49040A3
:1022C000216808612068406920F02A00216848617F
:1022D0002068C06840F400502168C8600020606435
:1022E000202084F8410084F842000020606300BF91
:1022F000C8E7000010B586B00446142101A8FEF717
:10230000D7F82E492068884255D100BF00200090A0
:102310002B48006840F4802029490860084600687E
:1023200000F48020009000BF00BF00BF002000909C
:1023300023481038006840F0040021491039086033
:102340000846006800F00400009000BF00BF4FF492
:10235000406001900220029000200390032004902E
:102360000720059001A91748FEF7F4FE1648174903
:1023700008604FF000604860002114488160C1602F
:102380004FF480610161002141618161C16101629D
:102390004162FEF769FE08B1FEF7CCF900BF0B48B9
:1023A000E063846300BF002205212720FFF760F867
:1023B0002720FFF749F806B010BD00000048004094
:1023C00040380240000802402860024068010020B6
:1023D00000BFFEE77047000010B50E480E490860C8
:1023E0000320486000210C488160C1604FF4102137
:1023F00001614FF40011416100210176417681763F
:10240000C17601774177FEF78AFB08B1FEF792F9B2
:1024100010BD000000640040B000002008B500BFFF
:10242000002000900A48006840F400100849086045
:102430000846006800F40010009000BF00BF0022B2
:1024400005210C20FFF714F80C20FEF7FDFF08BD56
:102450003038024010B5124A0021124800F0AAFD9F
:1024600011490860114A0021114800F0A3FD1149EB
:102470000860114A0021114800F09CFD10490860D5
:10248000104A0021104800F095FD10490860104ADC
:102490000021104800F08EFD0F49086010BD0000BB
:1024A000D84F0008F126000800000020FC4F00086B
:1024B000A52E00080400002020500008B72E0008B8
:1024C0000800002044500008B92E00080C0000202D
:1024D00068500008D52300081000002008B500BF90
:1024E000002000901D48006840F002001B49086071
:1024F0000846006800F00200009000BF00BF00BF67
:10250000002000900846006840F00100086008467E
:10251000006800F00100009000BF00BF00BF002075
:1025200000900846006840F0040008600846006813
:1025300000F00400009000BF00BF00BF002000902A
:102540000846006840F0800008600846006800F017
:102550008000009000BF00BF08BD0000303802407E
:1025600000B58DB0002009900A900B900C90079058
:1025700008901C216846FDF79BFF24482449086009
:10258000A720486000212248816040F2E731C16005
:10259000002101618161FFF7BFFB08B1FEF7CAF8B6
:1025A0004FF48050099009A91948FFF757FC08B16A
:1025B000FEF7C0F81648FFF7A7FD08B1FEF7BAF816
:1025C00000200790089007A91148FFF74BFB08B1BE
:1025D000FEF7B0F860200090002001900290049077
:1025E000002269460A48FFF70DFD08B1FEF7A2F880
:1025F000042269460648FFF705FD08B1FEF79AF880
:102600000348FFF7B1FC0DB000BD0000000400401E
:10261000D800002010B50A480A4908600A484860F6
:10262000002108488160C16001610C2141610021E5
:102630008161C161FFF722FE08B1FEF77BF810BD92
:102640000048004020010020A086010000BFFEE7F6
:1026500000BFFEE710B5234B1B685B6943F04003E6
:10266000204C246863611F4B1B685B6943F01003B7
:102670001C4C246863611C4B1B681B6823F001031E
:10268000194C2468236007E0174B1B681B6823F074
:102690000103154C24682360134B1B681B6803F06F
:1026A0000103002BF0D1114B0F4C2468A3600E4B9B
:1026B0001B68D8600C4B1B6819610B4B1B685A6078
:1026C000094B1B681B6843F48023074C2468236074
:1026D000054B1B681B6843F00103034C246823600F
:1026E00010BD0000200100206801002004480040C7
:1026F00000BF012000F008FCFBE710B5FEF72AFE42
:1027000002F00EFA012801D001F058FE10BD0000C1
:1027100000B593B0302107A8FDF7CAFE142102A826
:10272000FDF7C6FE00BF002001902548006840F07C
:102730008050234908600846006800F080500190EE
:1027400000BF00BF00BF002001901E48006840F499
:1027500080401C4908600846006800F480400190F1
:1027600000BF00BF0220079001200A9010200B90AC
:1027700002200D9000210E9108210F91A8211091A7
:10278000022111910421129107A8FFF703F808B163
:10279000FDF7D0FF0F20029002200390002004904C
:1027A0004FF4A05005904FF480500690052102A8E8
:1027B000FEF7B0FE08B1FDF7BDFF13B000BD00008D
:1027C00040380240007000400348006840F4700048
:1027D000014908607047000088ED00E010B502680C
:1027E0002B4B98420ED0B0F1804F0BD0294B984222
:1027F00008D0294B984205D0284B984202D0284B4C
:10280000984203D122F070024B681A43204B984241
:1028100020D0B0F1804F1DD01E4B98421AD01E4BD5
:10282000984217D01D4B984214D01D4B984211D09E
:102830001C4B98420ED01C4B98420BD01B4B98421D
:1028400008D01B4B984205D01A4B984202D01A4B25
:10285000984203D122F44072CB681A4322F08003DD
:102860004C6943EA04028B68C3620B688362084BBD
:10287000984202D00A4B984201D10B690363036866
:1028800043F00403036001234361026010BD0000B4
:10289000000001400004004000080040000C00401F
:1028A0000004014000400140004401400048014054
:1028B00000180040001C00400020004030B501F02E
:1028C0001F05012404FA05F3046A9C430462046AA8
:1028D00001F01F0502FA05F52C43046230BD30B546
:1028E0000C46816821F47F4142EA032525432943B0
:1028F000816030BD0A46816821F0700142F0070313
:10290000194381607047000030B5026A056A25F0FE
:10291000010505624368846924F0700424F003040F
:102920000D682C4322F002028D682A43104DA84204
:1029300000D103E00F4DA84206D100BF22F00802EB
:10294000CD682A4322F00402094DA84202D0094D65
:10295000A84207D123F4807323F400734D692B43FD
:102960008D692B43436084614D684563026230BDCD
:10297000000001400004014030B5026A056A25F0FC
:10298000100505624368846924F4E04424F440742B
:102990000D6844EA052422F020028D6842EA0512FF
:1029A000124DA84200D103E0114DA84207D100BF4B
:1029B00022F08002CD6842EA051222F040020B4D5F
:1029C000A84202D00A4DA84209D123F4806323F41F
:1029D00000634D6943EA85038D6943EA85034360DB
:1029E00084614D688563026230BD000000000140D3
:1029F0000004014030B5026A056A25F4807505625D
:102A00004368C46924F0700424F003040D682C4367
:102A100022F400728D6842EA0522124DA84200D1CC
:102A200003E0114DA84207D100BF22F40062CD6837
:102A300042EA052222F480620A4DA84202D00A4DE1
:102A4000A84209D123F4805323F400534D6943EA8B
:102A500005138D6943EA05134360C4614D68C5637E
:102A6000026230BD000001400004014030B5036A3D
:102A7000056A25F4805505624468C26922F4E04283
:102A800022F440720D6842EA052223F400538D6857
:102A900043EA0533084DA84202D0084DA84204D1AC
:102AA00024F480444D6944EA85144460C2614D6851
:102AB0000564036230BD00000000014000040140D5
:102AC00030B50B461446026A056A25F00105056219
:102AD000816921F0F00141EA041122F00A021A434F
:102AE0008161026230BD30B50B461446026A056A48
:102AF00025F010050562816921F4704141EA043135
:102B000022F0A00242EA03128161026230BD00009D
:102B10002DE9F84F04462068006920F44050E16830
:102B20000843216808612169A06808436169084376
:102B3000E169084300902068C06849F20C6188434D
:102B4000009908432168C8602068406920F44070FB
:102B5000A16908432168486176492068884203D00A
:102B600075492068884203D1FEF7ACFD814602E03A
:102B7000FEF798FD8146E069B0F5004F6CD1022068
:102B80006168A0FB015003461920A9FB00700146B3
:102B90002A463846FDF7C8FB6421B0FBF1F04FEA46
:102BA000001A02206168A0FB01510B461920A9FB05
:102BB00000712A463846FDF7B7FB8346022061685C
:102BC000A0FB015003461920A9FB00712A46384694
:102BD000FDF7AAFB6421B0FBF1F000EBC00101EBB3
:102BE0000010ABEB8000322101EBC0006421B0FB90
:102BF000F1F000F0F8000AEB400A02206168A0FB47
:102C0000015003461920A9FB007001462A463846A8
:102C1000FDF78AFB834602206168A0FB0150034652
:102C20001920A9FB00712A463846FDF77DFB642177
:102C3000B0FBF1F000EBC00101EB0010ABEB80004A
:102C4000322101EBC0006421B0FBF1F000F007007D
:102C50005044216888606AE004206168A0FB01504C
:102C600003461920A9FB007001462A463846FDF7A5
:102C70005BFB824604206168A0FB015003461920DB
:102C8000A9FB007001462A463846FDF74DFB64213A
:102C9000B0FBF1F000EBC00101EB0010AAEB8000EB
:102CA000322101EB00106421B0FBF1F000F0F00ADA
:102CB00004206168A0FB017003461920A9FB0051A4
:102CC0003A462846FDF730FB6421B0FBF1F00AEBF1
:102CD000001A04206168A0FB01510B461920A9FBD2
:102CE00000712A463846FDF71FFB834604206168C1
:102CF000A0FB015003461920A9FB007001462A469B
:102D00003846FDF711FB6421B0FBF1F000EBC00188
:102D100001EB0010ABEB8000322101EB00106421CD
:102D2000B0FBF1F000F00F00504421688860BDE86E
:102D3000F88F0000001001400014014008B5414820
:102D40000068006800F0200060B100BF0020009023
:102D50003C480068006800903A480068406800906D
:102D600000BF6DE03848006800F01000002867D010
:102D700000BF002000903348006800680090314890
:102D800000684068009000BF00BF304800680068DD
:102D900020F001002D49096808602C48006800688F
:102DA00000F4002018BB294800684068C0F12000EA
:102DB0002749087020202549096848602348006891
:102DC000006840F400202149096808602048007824
:102DD000122803D11F49204800F022FF1B48006839
:102DE000006840F0010019490968086028E01748A8
:102DF0000068006800F4002010B3144800684068C0
:102E0000C0F120001249087020201049096848606C
:102E10000E480068006820F400200C49096808602A
:102E20000B480078122803D10A490C4800F0F8FE3C
:102E300006480068006840F001000449096808601D
:102E400008BD00002001002000480040680100206B
:102E5000AE000020204B0020DC4A0020FE4A00206B
:102E600000BFFEE702480068C0F302207047000080
:102E70000CED00E010B5002804DB0A07130E054A2C
:102E8000135406E00A07140E034A00F00F031B1F39
:102E9000D45410BD00E400E018ED00E0EFF305802D
:102EA0007047704710B5044640F2651001F0AAF86B
:102EB000FFF7F7FF10BD704770470000FEF756FAA6
:102EC000FFF726FC00F0A0FEFFF708FBFFF7A6FACD
:102ED000FFF782FAFFF744FBFFF79CFB0948FEF778
:102EE00069FF00210748FFF743F904210548FFF770
:102EF0003FF900F019F8FFF7ADFA00F02BF800BF2A
:102F0000FEE70000D800002070B50546FFF7C6FFB9
:102F100010B16FF0050404E0002415B1284601F05B
:102F200071F8204670BD000010B5FFF7B7FF10B173
:102F30006FF0050409E00648006820B90120044943
:102F40000860002401E04FF0FF34204610BD00006F
:102F50007400002070B5FFF7A1FF10B16FF00504F9
:102F60001FE011480068012819D100BF801F00210F
:102F7000002804DB0A07130E0C4A135406E00A0764
:102F8000150E0B4A00F00F031B1FD55400BF00BFE6
:102F900002200549086001F0B1F8002401E04FF07B
:102FA000FF34204670BD00007400002000E400E003
:102FB00018ED00E02DE9FF478046894614460020C1
:102FC0000390FFF76BFF00284ED1B8F1000F4BD0F4
:102FD000802618258246471E44B3206808B1D4F8DD
:102FE00000A0A06900B1A5692DB1382D03D82079C2
:102FF00000F0010018B1002004B0BDE8F08760695E
:1030000008B160698608A06840B1E0685C2805D313
:10301000206918B1606908B1012708E0A06830B9DB
:10302000E06820B9206910B9002700E00027012FCF
:103030000CD12169A0684B463246CDE9005102907F
:103040005146404601F00EFD03900DE067B903A81C
:10305000B2B24B465146CDE90050404601F0D0FC9B
:10306000012801D0002003900398C5E72DE9F04125
:1030700005460E461648076816480068001D00F011
:1030800038FE681C38B936B112480168091D12486B
:1030900000F086FE1AE07C190E4800684460BC42CD
:1030A00007D20C480168091D0C48006800F05EFE5C
:1030B0000CE008480168091D0948006800F056FE48
:1030C00008480068844201D206480460BDE8F081E7
:1030D0003800002024000020B80600202C0000202A
:1030E000280000205400002010B5044600F064FEC3
:1030F00024480068401C234908602348006840B900
:10310000214804600846006801280DD100F0FCF950
:103110000AE01E48006838B91B480068C06AE16AC6
:10312000884201D81848046019480068401C1849B2
:1031300008600846006860641649E06A09688842C9
:1031400002D91449E06A0860E16A01EB8101124A80
:1031500002EB8100211D00F023FE00F057FE0B481A
:10316000006868B108480068C06AE16A884207D20E
:103170004FF0805009490860BFF34F8FBFF36F8F46
:1031800010BD00003400002024000020400000207A
:10319000500000203C0000200802002004ED00E068
:1031A00008B500F009FE12480068E8B9114800F0BF
:1031B000CDFD114800F0CAFD0E48104908600E48C8
:1031C0000F49086000200F4B0F4A102100900A2081
:1031D00001F00EF9064908600846006820B10BA10D
:1031E0000348006800F0D2FE00F010FE08BD0000A9
:1031F00068000020CC060020E006002060000020CF
:1032000064000020F406002044070020546D725131
:103210000000000010B516E000F0CEFD0C48C068BC
:10322000C468201D00F065FD0A480068401E094979
:10323000086009480068401E0749086000F0E6FD84
:10324000204600F05FF8044800680028E4D110BD73
:10325000A4060020340000203000002070B5044691
:103260000D46206C70B1216CE0680144E160D4E946
:103270000210884201D32168E1602846226CE1688F
:10328000FDF7C9F870BD2DE9F04104460F4615461B
:103290004FF00008A66B206C48B9206800282CD19C
:1032A000A06801F0F5FC80460020A06025E07DB913
:1032B0003946226C6068FDF7AEF8216C60680844FE
:1032C0006060D4E90101884217D32068606014E08F
:1032D0003946226CE068FDF79EF8216CE068411ADF
:1032E000E1602168E068884203D2216CA068411A3D
:1032F000E160022D01D106B1761E701CA06340462C
:10330000BDE8F08110B5044694F8590030B9206B3F
:1033100000F09AFD204600F097FD1AE094F859005D
:10332000012803D1204600F08FFD12E094F85900E7
:10333000022801D1012000E0002050B900BF502038
:1033400080F31188BFF34F8FBFF36F8F00BF00BFB3
:10335000FEE710BD0146084A126812680AB9012248
:1033600000E000220A600A6822B9034A1268D268A3
:10337000106800E0002070476000002030B54FF476
:103380007053174800F007042CB1C01D20F007004F
:10339000134C041B1B1B0246124C22600024114DCF
:1033A0006C60D018083820F007000F4C2060002413
:1033B0000D4D2D686C600C4D2D682C601146441A23
:1033C0004C60094C24680C60084D4C682C60084D1A
:1033D0004C682C604FF00044064D2C6030BD00005E
:1033E0009C0E002078000020800000208800002033
:1033F000840000209400002000BFFFF70BFF064868
:1034000000680128F9D94FF0805004490860BFF3E3
:103410004F8FBFF36F8FF0E70802002004ED00E04C
:103420002DE9F04106460D4617469846069C0DB913
:10343000246000E02760E66325640121204601F056
:1034400047F884F84C80BDE8F0812DE9F05F8246B2
:103450000E4690469B460A9F0C9C4FEA8801A52287
:10346000206BFDF71DF8A8F10100216B01EB80092D
:1034700029F0070909F0070008B9012000E0002041
:1034800050B900BF502080F31188BFF34F8FBFF3B6
:103490006F8F00BF00BFFEE786B1002507E0715DBA
:1034A00004F134004155705D00B902E06D1C102D2F
:1034B000F5D300BF00214320015502E0002084F82D
:1034C0003400382F00D33727E762E76400202065F7
:1034D000201D00F048FC04F1180000F044FC2461B9
:1034E000C7F13800A06164620020606584F858006C
:1034F0005A465146484600F071FB20600B9808B1CF
:103500000B980460BDE8F09F10B5002407E004EBC1
:1035100084010F4A02EB810000F018FC641C382C77
:10352000F5D30C4800F012FC0B4800F00FFC0B48E0
:1035300000F00CFC0A4800F009FC0A4800F006FC08
:1035400004480949086004480849086010BD0000A3
:1035500008020020680600207C060020900600205B
:10356000A4060020B8060020280000202C0000201F
:1035700010B50146164800E0006803688B42FBD393
:103580000246436813448B4204D143684C68234489
:10359000436001460A464B6813440468A34211D1B4
:1035A0000C4C03682468A34208D04B680468646824
:1035B00023444B6003681B680B6005E0054B1B68E8
:1035C0000B6001E003680B60884200D0016010BD11
:1035D00078000020800000202DE9F04104460D46CF
:1035E00016461F464FF0000865602461B5420CD8AE
:1035F000F01BA169884202D34FF0010811E0211DA0
:103600000948006800F0B2FB0BE0BE4204D2BD42A4
:1036100002D34FF0010804E0211D0448006800F0C7
:10362000A5FB4046BDE8F08164000020600000205A
:1036300070B5054600F0C0FBA86B08B9012400E096
:10364000002400F0E3FB204670BD70B5054600F095
:10365000B3FBA86BE96B884201D1012400E0002490
:1036600000F0D4FB204670BDF8B505460F461A4859
:103670000068C068C468201D00F03BFB94F8280077
:1036800000F00400E8B1A06941192B463A462046F3
:10369000FFF7A2FFD8B1002003462A46014600905A
:1036A000204601F051FC064656B900BF502080F379
:1036B0001188BFF34F8FBFF36F8F00BF00BFFEE7CE
:1036C00005E094F8280020F0010084F82800204646
:1036D000216A8847F8BD000060000020F0B587B07F
:1036E000A0E00398002811DA04AE56B900BF5020BC
:1036F00080F31188BFF34F8FBFF36F8F00BF00BF00
:10370000FEE7D6E90020B168904700BF0398002883
:10371000E6DB059C606908B9012000E0002010B9D3
:10372000201D00F0E6FA02A800F0DEF80546039836
:103730000A2875D2DFE800F0090507394163060859
:103740003A4200BF00BF00BF00BF94F8280040F01D
:10375000010084F828000498A269811803462A46CB
:103760002046FFF739FFF8B12046216A884794F8D0
:10377000280000F00400B8B1002000900498A1696E
:10378000421800231946204601F0DEFB074657B9D0
:1037900000BF502080F31188BFF34F8FBFF36F8FAE
:1037A00000BF00BFFEE700BF3BE000BF94F8280069
:1037B00020F0010084F8280033E000BF94F82800CE
:1037C00040F0010084F828000498A061A06908B1C5
:1037D000012000E0002050B900BF502080F3118884
:1037E000BFF34F8FBFF36F8F00BF00BFFEE7A0692D
:1037F00041192B462A462046FFF7EEFE11E094F8C9
:10380000280000F0020018B9204600F01DFB05E07A
:1038100094F8280020F0010084F8280001E0FFE778
:1038200000BF00BF002203A90448006800F0EEFFBB
:1038300000287FF456AF07B0F0BD000068000020FC
:10384000F8B505460C4600F0B5FC684600F04CF8AB
:103850000646009820BB44B9B54206D801F0B6FA36
:1038600031462846FFF700FF1CE03CB10E480068D7
:10387000006808B9012000E000200446A91B224688
:103880000A48006800F098FB01F0A0FA50B94FF028
:10389000805007490860BFF34F8FBFF36F8F01E07F
:1038A00001F094FAF8BD00006400002068000020D8
:1038B00004ED00E00A490968096809B9012100E03E
:1038C000002121B14FF0FF31064A116006E00449A2
:1038D0000968C968C868034A4168116070470000F8
:1038E000280000205400002070B5044601F028F99B
:1038F000054607480068854204D200F00BF8012015
:10390000206001E00020206001480560284670BD6D
:10391000700000202DE9F84334E025480068C068B5
:10392000056823480068C068C468201D00F0E1F9FC
:103930002046216A884794F8280000F0040008B364
:10394000A0694619AE4207D966602461211D184856
:10395000006800F00BFA15E0002003462A460146F5
:103960000090204601F0F0FA074657B900BF5020FA
:1039700080F31188BFF34F8FBFF36F8F00BF00BF7D
:10398000FEE700BF0A480068006808B9012000E0AF
:1039900000200028C1D00648D0F800800548006803
:1039A000034908600348C0F80080BDE8F8830000C0
:1039B00060000020640000200E480068401C08B928
:1039C000012000E0002050B900BF502080F3118892
:1039D000BFF34F8FBFF36F8F00BF00BFFEE700BF85
:1039E000502080F31188BFF34F8FBFF36F8F00BF5C
:1039F00000BFFEE79800002008B500BF6846FFF74B
:103A0000A9FC044620460099FFF71AFFFFF766FE5F
:103A1000F4E770B5044600F0CFF994F9455010E092
:103A2000606A08B9012000E0002038B904F12400E0
:103A300001F080F918B100F01FFB00E003E0681E00
:103A400045B2002DECDC00BFFF2084F8450000F0FB
:103A5000DDF900F0B1F994F9445010E0206908B99B
:103A6000012000E0002048B904F1100001F062F9E3
:103A700008B100F001FB681E45B200E001E0002D36
:103A8000ECDC00BFFF2084F8440000F0BFF970BDFB
:103A90002DE9F04104464FF0000800F08BFB494847
:103AA000006808B9FFF76AFC474800682040002812
:103AB00070D1D4B1083404F00700B0B104F00700AD
:103AC000C0F10800044404F0070008B9012000E038
:103AD000002050B900BF502080F31188BFF34F8FF2
:103AE000BFF36F8F00BF00BFFEE7002C52D03748F6
:103AF000006884424ED8364E3046056801E02E46B6
:103B00002D686868A04202D228680028F7D12D48A5
:103B1000006885423ED0306800F1080828683060AF
:103B20006868001B102819D92F1907F0070008B979
:103B3000012000E0002050B900BF502080F3118820
:103B4000BFF34F8FBFF36F8F00BF00BFFEE7686802
:103B5000001B78606C603846FFF70AFD1B496868F7
:103B60000968081A1949086008460068194909686F
:103B7000884203D2154800681649086012496868EF
:103B80000968084368600020286013480068401CEA
:103B90001149086001F01AF908F0070008B901207E
:103BA00000E0002050B900BF502080F31188BFF31F
:103BB0004F8FBFF36F8F00BF00BFFEE74046BDE8E9
:103BC000F08100008000002094000020840000208C
:103BD00078000020880000208C000020001F4FF09B
:103BE00080730360001F21F001030360001F054B79
:103BF000036014380260001F6FF002030360203876
:103C000070470000B939000800B520220249034876
:103C1000FEF720FD00BD0000FE4A0020DC4A002027
:103C200000B101B970470278437842EA0322C2F337
:103C30000A020A804278D210837842EA4312C2F321
:103C40000A024A8082789211C37842EA8302037999
:103C500042EA8322C2F30A028A800279521043792F
:103C600042EAC312C2F30A02CA804279C2F30112C5
:103C70008A72427912119308CB728279C37942EA2F
:103C8000032212B28A81027A437A42EA032213B2F1
:103C9000CB81827AC37A42EA032213B20B82037B7E
:103CA0008B74437BCB74827BC37B42EA03228A8280
:103CB000027C437C42EA032212B20A810A88A2F5FE
:103CC000806212B20A804A88A2F5806212B24A80EB
:103CD0008A88A2F5806212B28A80CA88A2F58062C0
:103CE00012B2CA800A89A2F5806212B20A8100BFAC
:103CF00098E701460A69D1E901309860D1E90103EA
:103D000058605068884201D188685060002008617E
:103D10001068401E1060106870470000034B03607D
:103D2000034B0B608023136070470000E407002002
:103D300040080020034B0360034B0B604FF480737B
:103D400013607047400A00209C0A002000F108011F
:103D500041604FF0FF31816000F10801C1600161F5
:103D600000210160704700210161704710B50246D3
:103D70000B685C1C0CB9106907E002F1080000E058
:103D80004068446824689C42FAD944684C604C6896
:103D9000A160886041600A611468641C146010BDF1
:103DA00042684A6093688B609368596091600861CB
:103DB00003685B1C0360704700BF502080F31188CC
:103DC000BFF34F8FBFF36F8F00BF0E480068401CDA
:103DD0000C49086008460068012812D10A480068AA
:103DE000C0B208B9012000E0002050B900BF502047
:103DF00080F31188BFF34F8FBFF36F8F00BF00BFF9
:103E0000FEE770479800002004ED00E00D480068D0
:103E100050B900BF502080F31188BFF34F8FBFF31C
:103E20006F8F00BF00BFFEE706480068401E0549CF
:103E300008600846006820B9002080F3118800BFA0
:103E400000BF70479800002070B506463546002E2A
:103E500044D0083D2C46224960680968084008B1F2
:103E6000012000E0002050B900BF502080F31188ED
:103E7000BFF34F8FBFF36F8F00BF00BFFEE7206817
:103E800008B9012000E0002050B900BF502080F3A5
:103E90001188BFF34F8FBFF36F8F00BF00BFFEE7E6
:103EA0000F49606809680840C0B12068B0B90C4982
:103EB000606809688843606000F07CF909496068BF
:103EC00009680844074908602046FFF751FB064887
:103ED0000068401C0449086000F078FF70BD0000D5
:103EE00094000020840000209000002000204FF06B
:103EF000E02108618861064800684FF47A71B0FBE0
:103F0000F1F0401E4FF0E021486107200861704742
:103F10002000002070B5FCF7E3F90446102C16D3FE
:103F200004F1E02090F8F05315480078854201DB59
:103F3000012000E0002050B900BF502080F311881C
:103F4000BFF34F8FBFF36F8F00BF00BFFEE70D4879
:103F5000006800F4E0600C490968884201D801203B
:103F600000E0002050B900BF502080F31188BFF35B
:103F70004F8FBFF36F8F00BF00BFFEE770BD000023
:103F80009C0000200CED00E0A00000200246002074
:103F90000BE0084B53F8303033B9064B43F8301080
:103FA00003EBC0035A6002E0401C0828F1D300BFB5
:103FB00070470000C80100202DE9F04105460E467B
:103FC00017462C46FFF7F8FE94F94400401C10B940
:103FD000002084F8440094F94500401C10B90020EA
:103FE00084F84500FFF712FFA06B28B93A46314626
:103FF00004F1240000F062F82046FFF70AFDBDE856
:10400000F081000070B504460025D4B11248006864
:1040100008B9012000E0002050B900BF502080F313
:104020001188BFF34F8FBFF36F8F00BF00BFFEE754
:1040300000F0C0F800212046FFF718F800F0C6FE97
:1040400005463DB94FF0805004490860BFF34F8FDB
:10405000BFF36F8F70BD00005C00002004ED00E036
:10406000034909680160034909684160704700001D
:104070004C000020380000200120014908607047F2
:104080004800002070B504460D4654B900BF5020CA
:1040900080F31188BFF34F8FBFF36F8F00BF00BF56
:1040A000FEE70548016818312046FFF75FFE012151
:1040B0002846FEF7DBFF70BD2400002070B50546E2
:1040C0000E46144655B900BF502080F31188BFF347
:1040D0004F8FBFF36F8F00BF00BFFEE70648016838
:1040E00018312846FFF75CFE0CB14FF0FF36214631
:1040F0003046FEF7BBFF70BD2400002010B586B02F
:1041000000200590049003AA04A905A8FFF706FE65
:104110000022DDE904101346CDE9002102901EA122
:104120001F48039A00F09EFC1E490860084600687C
:1041300008B1012400E00024012C02D100F0C8FEE7
:104140000446012C15D100BF502080F31188BFF325
:104150004F8FBFF36F8F00BF4FF0FF3012490860E1
:1041600001201249086000201149086000F072F82F
:1041700010E0601C08B1012000E0002050B900BF31
:10418000502080F31188BFF34F8FBFF36F8F00BFB4
:1041900000BFFEE706B010BD49444C4500000000DA
:1041A000F93300085800002054000020400000208F
:1041B0003800002002480068401C01490860704730
:1041C0005C0000201E48006818B101201D490860ED
:1041D00034E000201B4908601B4801680CE051B91D
:1041E00000BF502080F31188BFF34F8FBFF36F8F54
:1041F00000BF00BFFEE7491E01EB8100134A52F8E1
:10420000200008B9012000E000200028E7D101EBE0
:1042100081020E4B03EB820042685268426000F15B
:1042200008024368934202D1426852684260426881
:10423000D268074B1A600448016000BF7047000055
:104240005C000020480000203C0000200802002004
:10425000240000201CB5524800685249884201D011
:10426000012000E0002050B900BF502080F31188E9
:10427000BFF34F8FBFF36F8F00BF00BFFEE748480B
:1042800000684849491E884201D0012000E0002012
:1042900050B900BF502080F31188BFF34F8FBFF398
:1042A0006F8F00BF00BFFEE73F49084600780190CE
:1042B000FF200A4610700846007800909DF8000024
:1042C00000F0F0009DF80020904201D1012000E0B4
:1042D000002050B900BF502080F31188BFF34F8FEA
:1042E000BFF36F8F00BF00BFFEE79DF8000000F036
:1042F00050002E4A107007202D4A106009E02C480B
:104300000068401E2A4A10609DF800004006000E1A
:1043100000909DF8000000F080008028EFD0244835
:104320000068C0F10700042801D1012000E000204E
:1043300050B900BF502080F31188BFF34F8FBFF3F7
:104340006F8F00BF00BFFEE7194800680002184ADF
:1043500010601046008800F4E0601060124A019876
:1043600010700F482030006840F470000C49203174
:1043700008600846006840F070400860FFF7B6FD2E
:1043800000200C490860FBF773FF0B48006840F001
:10439000404009490860FBF757FF00201CBD0000A2
:1043A00000ED00E071C20F4100E400E09C0000203D
:1043B000A00000209800002034EF00E010B500BFFE
:1043C000502080F31188BFF34F8FBFF36F8F00BF72
:1043D00000F0BCFB18B14FF080500449086000BFEA
:1043E000002080F3118800BF10BD000004ED00E044
:1043F0002DE9F84380460E4617461D46DDF820900D
:10440000B8F1000F01D0012000E0002050B900BF3A
:10441000502080F31188BFF34F8FBFF36F8F00BF21
:1044200000BFFEE70DB1012000E0002050B900BF41
:10443000502080F31188BFF34F8FBFF36F8F00BF01
:1044400000BFFEE707B10EB1012000E0002050B927
:1044500000BF502080F31188BFF34F8FBFF36F8FE1
:1044600000BF00BFFEE707B90EB9012000E0002041
:1044700050B900BF502080F31188BFF34F8FBFF3B6
:104480006F8F00BF00BFFEE75020009000985028BB
:1044900001D1012000E0002050B900BF502080F37E
:1044A0001188BFF34F8FBFF36F8F00BF00BFFEE7D0
:1044B00000BF2C464CB1012084F846004B463A46DA
:1044C000314640460094FEF7ABFF2046BDE8F88336
:1044D00070B505460E462C4654B900BF502080F3F7
:1044E0001188BFF34F8FBFF36F8F00BF00BFFEE790
:1044F000FFF762FCD4E90F12206801FB0200A06004
:104500000020A06320686060E06B401E226C216880
:1045100000FB0211E160FF2084F8440084F84500AC
:104520009EB9206908B9012000E00020A8B904F173
:10453000100000F0FFFB80B14FF080500949086087
:10454000BFF34F8FBFF36F8F07E004F11000FFF749
:10455000FDFB04F12400FFF7F9FBFFF757FC0120F6
:1045600070BD000004ED00E02DE9FF4383B0064676
:1045700088461D464FF00009344654B900BF50200C
:1045800080F31188BFF34F8FBFF36F8F00BF00BF61
:10459000FEE7B8F1000F01D1206C08B9012000E05E
:1045A000002050B900BF502080F31188BFF34F8F17
:1045B000BFF36F8F00BF00BFFEE7022D02D1E06B9B
:1045C000012801D1012000E0002050B900BF502097
:1045D00080F31188BFF34F8FBFF36F8F00BF00BF11
:1045E000FEE700F09DFA08B9059808B9012000E03F
:1045F000002050B900BF502080F31188BFF34F8FC7
:10460000BFF36F8F00BF00BFFEE700BFFFF7D4FB13
:10461000A06BE16B884201D3022D28D12A46414686
:104620002046FEF730FE0746606A08B9012000E028
:10463000002068B904F1240000F07CFB88B14FF041
:10464000805032490860BFF34F8FBFF36F8F08E08F
:104650003FB14FF080502D490860BFF34F8FBFF33B
:104660006F8FFFF7D3FB012007B0BDE8F0830598FB
:1046700018B9FFF7CBFB0020F6E7B9F1000F04D122
:1046800001A8FFF7EDFC4FF00109FFF7BFFBFFF7B3
:1046900091FDFFF791FB94F94400401C10B90020F4
:1046A00084F8440094F94500401C10B9002084F8B7
:1046B0004500FFF7ABFB05A901A800F05BF9F0B9D5
:1046C0002046FEF7C2FFA0B104F110000599FFF7E4
:1046D000D9FC2046FFF79DF900F078FB002895D122
:1046E0004FF0805009490860BFF34F8FBFF36F8FC1
:1046F0008CE72046FFF78DF900F068FB86E720463F
:10470000FFF787F900F062FB0020ADE704ED00E061
:104710002DE9F84F07468A4690461E463C4654B956
:1047200000BF502080F31188BFF34F8FBFF36F8F0E
:1047300000BF00BFFEE7BAF1000F01D1206C08B93D
:10474000012000E0002050B900BF502080F3118804
:10475000BFF34F8FBFF36F8F00BF00BFFEE7022E86
:1047600002D1E06B012801D1012000E0002050B906
:1047700000BF502080F31188BFF34F8FBFF36F8FBE
:1047800000BF00BFFEE7FFF7C5FB00BF5021EFF3FE
:10479000118081F31188BFF34F8FBFF36F8F00BF7C
:1047A0000546A06BE16B884201D3022E25D194F916
:1047B00045B0A06B0090324651462046FEF763FD9F
:1047C0000BF1010088B9606A08B9012000E00020FF
:1047D00050B904F1240000F0ADFA28B1B8F1000F8F
:1047E00002D00120C8F8000004E00BF1010040B243
:1047F00084F845004FF0010901E04FF0000900BFC7
:1048000085F3118800BF4846BDE8F88F2DE9F741D0
:1048100083B005460E464FF000082C4654B900BF41
:10482000502080F31188BFF34F8FBFF36F8F00BF0D
:1048300000BFFEE70EB9206C08B9012000E000209F
:1048400050B900BF502080F31188BFF34F8FBFF3E2
:104850006F8F00BF00BFFEE700F062F908B905984E
:1048600008B9012000E0002050B900BF502080F3BB
:104870001188BFF34F8FBFF36F8F00BF00BFFEE7FC
:1048800000BFFFF799FAA76BF7B131462046FEF754
:10489000E5FC781EA063206908B9012000E0002033
:1048A00060B904F1100000F045FA38B14FF08050C3
:1048B0002F490860BFF34F8FBFF36F8FFFF7A6FA42
:1048C000012006B0BDE8F081059818B9FFF79EFAFF
:1048D0000020F6E7B8F1000F04D101A8FFF7C0FBF4
:1048E0004FF00108FFF792FAFFF764FCFFF764FA54
:1048F00094F94400401C10B9002084F8440094F955
:104900004500401C10B9002084F84500FFF77EFAEE
:1049100005A901A800F02EF8F0B92046FEF788FEA0
:10492000A0B104F124000599FFF7ACFB2046FFF786
:1049300070F800F04BFA0028A3D14FF080500C49DA
:104940000860BFF34F8FBFF36F8F9AE72046FFF7E2
:1049500060F800F03BFA94E72046FFF75AF800F0C1
:1049600035FA2046FEF764FE00288AD00020A8E72A
:1049700004ED00E070B505460C4655B900BF502067
:1049800080F31188BFF34F8FBFF36F8F00BF00BF5D
:10499000FEE754B900BF502080F31188BFF34F8F5A
:1049A000BFF36F8F00BF00BFFEE7FFF705FA1248A5
:1049B00002686868131A2068401C08B9002617E0CE
:1049C0000E4928680968884204D06868904201D876
:1049D00001260DE02068984207D92068C01A20609F
:1049E0002846FFF73DFB002602E00020206001265C
:1049F000FFF70CFA304670BD380000204C00002054
:104A00002DE9FF4F85B0804689461746DDE912AB98
:104A1000B800FFF73DF8064656B15C20FFF738F8BE
:104A200004460CB1266304E03046FFF70DFA00E0BF
:104A300000248CB1002084F85900CDE900ABCDE909
:104A400002403A4649464046089BFEF7FEFC204697
:104A5000FEF74AFB012501E04FF0FF35284609B07B
:104A6000BDE8F08F2DE9F04F85B0074688469146A6
:104A70009A46DDE90EB6109C0EB1012000E0002040
:104A800050B900BF502080F31188BFF34F8FBFF3A0
:104A90006F8F00BF00BFFEE70CB1012000E00020D7
:104AA00050B900BF502080F31188BFF34F8FBFF380
:104AB0006F8F00BF00BFFEE75C20039003985C2867
:104AC00001D1012000E0002050B900BF502080F348
:104AD0001188BFF34F8FBFF36F8F00BF00BFFEE79A
:104AE00000BFB4B1AEB125462C462E63022085F836
:104AF0005900002004A953464A46CDE900B1CDE94A
:104B0000025041463846FEF7A0FC2846FEF7ECFA74
:104B100001E000200490049805B0BDE8F08F00008B
:104B20000549096809B9012005E00449096809B97E
:104B3000022000E000207047400000205C000020C0
:104B40000149086870470000380000202DE9F04155
:104B50004FF000084348006800287BD142480068B5
:104B6000451C4148056015BB40480068006808B90D
:104B7000012000E0002050B900BF502080F31188D0
:104B8000BFF34F8FBFF36F8F00BF00BFFEE7374803
:104B90000768374800683549086035480760354878
:104BA0000068401C33490860FEF784FE00BF3248AD
:104BB000006885423BD300BF2C480068006808B9F4
:104BC000012000E0002020B14FF0FF302A490860AA
:104BD0002CE026480068C068C4686668B54202D206
:104BE0002548066022E0201DFFF783F8A06A18B16F
:104BF00004F11800FFF77DF82049E06A096888424F
:104C000002D91E49E06A0860E16A01EB81011C4A91
:104C100002EB8100211DFFF7C3F81A49E06A096819
:104C2000C96A8842C8D34FF00108C5E700BF1548DC
:104C30000068C06A00EB8000114951F8200001288B
:104C400001D94FF001081048006808B14FF0010881
:104C500005E0FFE70D480068401C0C49086040462D
:104C6000BDE8F0815C000020380000202800002012
:104C70002C0000204C000020540000203C000020AC
:104C800008020020240000204800002044000020EA
:104C900070B505462C460026002D43D022480068FA
:104CA000844201D1012000E0002050B900BF502013
:104CB00080F31188BFF34F8FBFF36F8F00BF00BF2A
:104CC000FEE7206D50B900BF502080F31188BFF37C
:104CD0004F8FBFF36F8F00BF00BFFEE7206D401EF8
:104CE0002065E16CE06A88421CD0206DD0B9201D9F
:104CF000FEF7FFFFE06CE062E06AC0F13800A061FF
:104D00000A49E06A0968884202D90849E06A0860ED
:104D1000E16A01EB8101064A02EB8100211DFFF7E8
:104D20003FF80126304670BD240000203C000020E2
:104D30000802002070B50646F068C46854B900BF88
:104D4000502080F31188BFF34F8FBFF36F8F00BFE8
:104D500000BFFEE704F11800FEF7CBFF154800681E
:104D6000A0B9201DFEF7C5FF1349E06A0968884213
:104D700002D91149E06A0860E16A01EB81010F4A3A
:104D800002EB8100211DFFF70BF804E004F118018C
:104D90000B48FFF705F80B49E06A0968C96A8842C1
:104DA00004D9012501200849086000E000252846B3
:104DB00070BD00005C0000203C00002008020020C4
:104DC00090060020240000204800002070B5002438
:104DD00000263648006850B900BF502080F3118883
:104DE000BFF34F8FBFF36F8F00BF00BFFEE7FEF72B
:104DF000E3FF2E480068401E2C4908600846006802
:104E000000284ED12A48006800284AD023E02948CB
:104E1000C068C46804F11800FEF76BFF201DFEF7A0
:104E200068FF2549E06A0968884202D92249E06A98
:104E30000860E16A01EB8101204A02EB8100211D3B
:104E4000FEF7AEFF1E49E06A0968C96A884202D3CC
:104E500001201C4908601748006808B9012000E0DB
:104E600000200028D3D00CB1FEF724FD16480568B9
:104E700065B100BFFFF76AFE10B10120114908605B
:104E80006D1E002DF6D100200F4908600D48006806
:104E900038B1012630070D490860BFF34F8FBFF3CB
:104EA0006F8FFEF7B3FF304670BD00005C0000203E
:104EB00034000020900600203C0000200802002062
:104EC00024000020480000204400002004ED00E001
:104ED00010B586B00024FEF763F916480068D0B11B
:104EE00000200590049003AA04A905A8FEF722FF5C
:104EF0000222DDE904100023CDE9002102900EA179
:104F00000F48039AFFF7AEFD0E4908600846006897
:104F100000B1012400BF54B900BF502080F31188B4
:104F2000BFF34F8FBFF36F8F00BF00BFFEE7204678
:104F300006B010BD68000020546D722053766300E7
:104F4000F93900086C0000202DE9FF4704460D46A2
:104F500016461F46DDF830804FF0000954B900BFF7
:104F6000502080F31188BFF34F8FBFF36F8F00BFC6
:104F700000BFFEE71448006810B300950196029444
:104F8000062D15DAFFF7CCFD022808D10023424692
:104F900069460D480068FFF7E7FA814610E00023F4
:104FA0001A46694608480068FFF7DEFA814607E0BE
:104FB00000233A46694604480068FFF7A9FB81468A
:104FC000484604B0BDE8F087680000204FF040700C
:104FD000E1EE100A70470000C45000080000000015
:104FE00000000000000000000000000000020000BF
:104FF000180000000000000000000000B850000889
:1050000000000000000000000000000000000000A0
:10501000000200002000000000000000000000006E
:10502000AC5000080000000000000000000000007C
:105030000000000000020000180000000000000056
:1050400000000000B4500008000000000000000054
:105050000000000000000000000200001800000036
:105060000000000000000000D05000080000000018
:10507000000000000000000000000000000200002E
:1050800008000000000000000000000000061016EC
:1050900000061016000000000000000001020304DA
:1050A00006070809000000000102030444455445B6
:1050B000435400006C656400436861737369735402
:1050C00061736B0064656661756C745461736B0029
:1050D000696D755461736B00F85000080000002082
:1050E000B0000000C4010008A8510008B000002072
:1050F000E8500000E001000800000000000000008F
:10510000000000000000000000000000000000009F
:1051100010000000010000000024F4000000000066
:10512000000000000000000000000000000000007F
:10513000000000000000000000000000000000006F
:10514000000000000000000000000000000000005F
:10515000000000000000000000000000000000004F
:10516000000000000000000000000000000000003F
:10517000000000000000000000000000000000002F
:10518000000000000000000000000000000000001F
:10519000AAAAAAAA00000000000000000000000067
:0851A000000000000000000007
:040000050800018965
:00000001FF
